{"contracts/NftMerkleDistributorFactory.sol":{"NftMerkleDistributorFactory":{"abi":[{"anonymous":false,"inputs":[{"indexed":true,"internalType":"address","name":"distributor","type":"address"},{"indexed":true,"internalType":"address","name":"creator","type":"address"},{"indexed":true,"internalType":"address","name":"token","type":"address"},{"indexed":false,"internalType":"uint256","name":"tokenId","type":"uint256"}],"name":"NftMerkleDistributorDeployed","type":"event"},{"inputs":[{"internalType":"address[]","name":"distributors","type":"address[]"},{"internalType":"address","name":"account","type":"address"},{"internalType":"uint256[]","name":"amounts","type":"uint256[]"},{"internalType":"bytes32[][]","name":"merkleProofs","type":"bytes32[][]"}],"name":"claim","outputs":[],"stateMutability":"nonpayable","type":"function"},{"inputs":[{"internalType":"address","name":"token","type":"address"},{"internalType":"uint256","name":"tokenId","type":"uint256"},{"internalType":"bytes32","name":"merkleRoot","type":"bytes32"},{"internalType":"uint256","name":"AirdropAmount","type":"uint256"}],"name":"createMerkleDistributor","outputs":[],"stateMutability":"nonpayable","type":"function"},{"inputs":[{"internalType":"address","name":"","type":"address"}],"name":"deployedContracts","outputs":[{"internalType":"bool","name":"","type":"bool"}],"stateMutability":"view","type":"function"},{"inputs":[{"internalType":"uint256","name":"","type":"uint256"}],"name":"deployedContractsList","outputs":[{"internalType":"address","name":"","type":"address"}],"stateMutability":"view","type":"function"},{"inputs":[],"name":"getAllDeployedContracts","outputs":[{"internalType":"address[]","name":"","type":"address[]"}],"stateMutability":"view","type":"function"},{"inputs":[{"internalType":"address","name":"","type":"address"},{"internalType":"address","name":"","type":"address"},{"internalType":"uint256[]","name":"","type":"uint256[]"},{"internalType":"uint256[]","name":"","type":"uint256[]"},{"internalType":"bytes","name":"","type":"bytes"}],"name":"onERC1155BatchReceived","outputs":[{"internalType":"bytes4","name":"","type":"bytes4"}],"stateMutability":"nonpayable","type":"function"},{"inputs":[{"internalType":"address","name":"","type":"address"},{"internalType":"address","name":"","type":"address"},{"internalType":"uint256","name":"","type":"uint256"},{"internalType":"uint256","name":"","type":"uint256"},{"internalType":"bytes","name":"","type":"bytes"}],"name":"onERC1155Received","outputs":[{"internalType":"bytes4","name":"","type":"bytes4"}],"stateMutability":"nonpayable","type":"function"},{"inputs":[{"internalType":"bytes4","name":"interfaceId","type":"bytes4"}],"name":"supportsInterface","outputs":[{"internalType":"bool","name":"","type":"bool"}],"stateMutability":"view","type":"function"},{"inputs":[{"internalType":"address","name":"","type":"address"},{"internalType":"address","name":"","type":"address"}],"name":"tokenBalances","outputs":[{"internalType":"uint256","name":"","type":"uint256"}],"stateMutability":"view","type":"function"}],"evm":{"bytecode":{"linkReferences":{},"object":"608060405234801561001057600080fd5b50612fb8806100206000396000f3fe60806040523480156200001157600080fd5b5060043610620000a05760003560e01c80636c9364b2116200006f5780636c9364b2146200015157806399ca49eb1462000173578063bc197c8114620001a9578063c70242ad14620001df578063f23a6e61146200021557620000a0565b806301ffc9a714620000a55780633849617e14620000db578063470f0f8614620000fb5780634dbf6c5a146200011b575b600080fd5b620000c36004803603810190620000bd919062000dbf565b6200024b565b604051620000d2919062000e0e565b60405180910390f35b620000f96004803603810190620000f3919062000f06565b620002c8565b005b62000119600480360381019062000113919062001227565b62000760565b005b620001396004803603810190620001339190620012fb565b62000b97565b60405162000148919062001353565b60405180910390f35b6200015b62000bbc565b6040516200016a91906200143e565b60405180910390f35b6200019160048036038101906200018b919062001462565b62000c4c565b604051620001a09190620014a5565b60405180910390f35b620001c76004803603810190620001c191906200158a565b62000c8c565b604051620001d6919062001680565b60405180910390f35b620001fd6004803603810190620001f791906200169d565b62000ca1565b6040516200020c919062000e0e565b60405180910390f35b6200023360048036038101906200022d9190620016cf565b62000cc1565b60405162000242919062001680565b60405180910390f35b60007f4e2312e0000000000000000000000000000000000000000000000000000000007bffffffffffffffffffffffffffffffffffffffffffffffffffffffff1916827bffffffffffffffffffffffffffffffffffffffffffffffffffffffff19161480620002c15750620002c08262000cd6565b5b9050919050565b808473ffffffffffffffffffffffffffffffffffffffff1662fdd58e33866040518363ffffffff1660e01b81526004016200030592919062001776565b602060405180830381865afa15801562000323573d6000803e3d6000fd5b505050506040513d601f19601f82011682018060405250810190620003499190620017ba565b10156200038d576040517f08c379a0000000000000000000000000000000000000000000000000000000008152600401620003849062001873565b60405180910390fd5b6000808573ffffffffffffffffffffffffffffffffffffffff1673ffffffffffffffffffffffffffffffffffffffff16815260200190815260200160002060009054906101000a900460ff16156200041c576040517f08c379a000000000000000000000000000000000000000000000000000000000815260040162000413906200190b565b60405180910390fd5b8373ffffffffffffffffffffffffffffffffffffffff1663f242432a333086856040518563ffffffff1660e01b81526004016200045d949392919062001968565b600060405180830381600087803b1580156200047857600080fd5b505af11580156200048d573d6000803e3d6000fd5b50505050600084848484604051620004a59062000d40565b620004b49493929190620019db565b604051809103906000f080158015620004d1573d6000803e3d6000fd5b5090508473ffffffffffffffffffffffffffffffffffffffff1663f242432a308387866040518563ffffffff1660e01b815260040162000515949392919062001968565b600060405180830381600087803b1580156200053057600080fd5b505af115801562000545573d6000803e3d6000fd5b5050505060016000808773ffffffffffffffffffffffffffffffffffffffff1673ffffffffffffffffffffffffffffffffffffffff16815260200190815260200160002060006101000a81548160ff02191690831515021790555060016000808373ffffffffffffffffffffffffffffffffffffffff1673ffffffffffffffffffffffffffffffffffffffff16815260200190815260200160002060006101000a81548160ff0219169083151502179055506001819080600181540180825580915050600190039060005260206000200160009091909190916101000a81548173ffffffffffffffffffffffffffffffffffffffff021916908373ffffffffffffffffffffffffffffffffffffffff16021790555081600260008373ffffffffffffffffffffffffffffffffffffffff1673ffffffffffffffffffffffffffffffffffffffff16815260200190815260200160002060008773ffffffffffffffffffffffffffffffffffffffff1673ffffffffffffffffffffffffffffffffffffffff168152602001908152602001600020819055508473ffffffffffffffffffffffffffffffffffffffff163373ffffffffffffffffffffffffffffffffffffffff168273ffffffffffffffffffffffffffffffffffffffff167f73a84c7215af8f6fb58a130ac0f0b705dd2763155cc0d95d6c4178cdcc5d23258760405162000751919062001353565b60405180910390a45050505050565b82518551148015620007755750818190508551145b620007b7576040517f08c379a0000000000000000000000000000000000000000000000000000000008152600401620007ae9062001a78565b60405180910390fd5b60005b855181101562000b8f576000868281518110620007dc57620007db62001a9a565b5b602002602001015190506000858381518110620007fe57620007fd62001a9a565b5b6020026020010151905036600086868681811062000821576200082062001a9a565b5b905060200281019062000835919062001ad8565b915091506000808573ffffffffffffffffffffffffffffffffffffffff1673ffffffffffffffffffffffffffffffffffffffff16815260200190815260200160002060009054906101000a900460ff16620008c7576040517f08c379a0000000000000000000000000000000000000000000000000000000008152600401620008be9062001b94565b60405180910390fd5b82600260008673ffffffffffffffffffffffffffffffffffffffff1673ffffffffffffffffffffffffffffffffffffffff16815260200190815260200160002060008673ffffffffffffffffffffffffffffffffffffffff1663fc0c546a6040518163ffffffff1660e01b8152600401602060405180830381865afa15801562000955573d6000803e3d6000fd5b505050506040513d601f19601f820116820180604052508101906200097b919062001bcd565b73ffffffffffffffffffffffffffffffffffffffff1673ffffffffffffffffffffffffffffffffffffffff168152602001908152602001600020541015620009fa576040517f08c379a0000000000000000000000000000000000000000000000000000000008152600401620009f19062001c75565b60405180910390fd5b82600260008673ffffffffffffffffffffffffffffffffffffffff1673ffffffffffffffffffffffffffffffffffffffff16815260200190815260200160002060008673ffffffffffffffffffffffffffffffffffffffff1663fc0c546a6040518163ffffffff1660e01b8152600401602060405180830381865afa15801562000a88573d6000803e3d6000fd5b505050506040513d601f19601f8201168201806040525081019062000aae919062001bcd565b73ffffffffffffffffffffffffffffffffffffffff1673ffffffffffffffffffffffffffffffffffffffff168152602001908152602001600020600082825462000af9919062001cc6565b925050819055508373ffffffffffffffffffffffffffffffffffffffff16633d13f8748a8585856040518563ffffffff1660e01b815260040162000b41949392919062001d83565b600060405180830381600087803b15801562000b5c57600080fd5b505af115801562000b71573d6000803e3d6000fd5b5050505050505050808062000b869062001dc9565b915050620007ba565b505050505050565b6002602052816000526040600020602052806000526040600020600091509150505481565b6060600180548060200260200160405190810160405280929190818152602001828054801562000c4257602002820191906000526020600020905b8160009054906101000a900473ffffffffffffffffffffffffffffffffffffffff1673ffffffffffffffffffffffffffffffffffffffff168152602001906001019080831162000bf7575b5050505050905090565b6001818154811062000c5d57600080fd5b906000526020600020016000915054906101000a900473ffffffffffffffffffffffffffffffffffffffff1681565b600063bc197c8160e01b905095945050505050565b60006020528060005260406000206000915054906101000a900460ff1681565b600063f23a6e6160e01b905095945050505050565b60007f01ffc9a7000000000000000000000000000000000000000000000000000000007bffffffffffffffffffffffffffffffffffffffffffffffffffffffff1916827bffffffffffffffffffffffffffffffffffffffffffffffffffffffff1916149050919050565b61116c8062001e1783390190565b6000604051905090565b600080fd5b600080fd5b60007fffffffff0000000000000000000000000000000000000000000000000000000082169050919050565b62000d998162000d62565b811462000da557600080fd5b50565b60008135905062000db98162000d8e565b92915050565b60006020828403121562000dd85762000dd762000d58565b5b600062000de88482850162000da8565b91505092915050565b60008115159050919050565b62000e088162000df1565b82525050565b600060208201905062000e25600083018462000dfd565b92915050565b600073ffffffffffffffffffffffffffffffffffffffff82169050919050565b600062000e588262000e2b565b9050919050565b62000e6a8162000e4b565b811462000e7657600080fd5b50565b60008135905062000e8a8162000e5f565b92915050565b6000819050919050565b62000ea58162000e90565b811462000eb157600080fd5b50565b60008135905062000ec58162000e9a565b92915050565b6000819050919050565b62000ee08162000ecb565b811462000eec57600080fd5b50565b60008135905062000f008162000ed5565b92915050565b6000806000806080858703121562000f235762000f2262000d58565b5b600062000f338782880162000e79565b945050602062000f468782880162000eb4565b935050604062000f598782880162000eef565b925050606062000f6c8782880162000eb4565b91505092959194509250565b600080fd5b6000601f19601f8301169050919050565b7f4e487b7100000000000000000000000000000000000000000000000000000000600052604160045260246000fd5b62000fc88262000f7d565b810181811067ffffffffffffffff8211171562000fea5762000fe962000f8e565b5b80604052505050565b600062000fff62000d4e565b90506200100d828262000fbd565b919050565b600067ffffffffffffffff82111562001030576200102f62000f8e565b5b602082029050602081019050919050565b600080fd5b60006200105d620010578462001012565b62000ff3565b9050808382526020820190506020840283018581111562001083576200108262001041565b5b835b81811015620010b057806200109b888262000e79565b84526020840193505060208101905062001085565b5050509392505050565b600082601f830112620010d257620010d162000f78565b5b8135620010e484826020860162001046565b91505092915050565b600067ffffffffffffffff8211156200110b576200110a62000f8e565b5b602082029050602081019050919050565b6000620011336200112d84620010ed565b62000ff3565b9050808382526020820190506020840283018581111562001159576200115862001041565b5b835b8181101562001186578062001171888262000eb4565b8452602084019350506020810190506200115b565b5050509392505050565b600082601f830112620011a857620011a762000f78565b5b8135620011ba8482602086016200111c565b91505092915050565b600080fd5b60008083601f840112620011e157620011e062000f78565b5b8235905067ffffffffffffffff811115620012015762001200620011c3565b5b60208301915083602082028301111562001220576200121f62001041565b5b9250929050565b60008060008060006080868803121562001246576200124562000d58565b5b600086013567ffffffffffffffff81111562001267576200126662000d5d565b5b6200127588828901620010ba565b9550506020620012888882890162000e79565b945050604086013567ffffffffffffffff811115620012ac57620012ab62000d5d565b5b620012ba8882890162001190565b935050606086013567ffffffffffffffff811115620012de57620012dd62000d5d565b5b620012ec88828901620011c8565b92509250509295509295909350565b6000806040838503121562001315576200131462000d58565b5b6000620013258582860162000e79565b9250506020620013388582860162000e79565b9150509250929050565b6200134d8162000e90565b82525050565b60006020820190506200136a600083018462001342565b92915050565b600081519050919050565b600082825260208201905092915050565b6000819050602082019050919050565b620013a78162000e4b565b82525050565b6000620013bb83836200139c565b60208301905092915050565b6000602082019050919050565b6000620013e18262001370565b620013ed81856200137b565b9350620013fa836200138c565b8060005b8381101562001431578151620014158882620013ad565b97506200142283620013c7565b925050600181019050620013fe565b5085935050505092915050565b600060208201905081810360008301526200145a8184620013d4565b905092915050565b6000602082840312156200147b576200147a62000d58565b5b60006200148b8482850162000eb4565b91505092915050565b6200149f8162000e4b565b82525050565b6000602082019050620014bc600083018462001494565b92915050565b600080fd5b600067ffffffffffffffff821115620014e557620014e462000f8e565b5b620014f08262000f7d565b9050602081019050919050565b82818337600083830152505050565b6000620015236200151d84620014c7565b62000ff3565b905082815260208101848484011115620015425762001541620014c2565b5b6200154f848285620014fd565b509392505050565b600082601f8301126200156f576200156e62000f78565b5b8135620015818482602086016200150c565b91505092915050565b600080600080600060a08688031215620015a957620015a862000d58565b5b6000620015b98882890162000e79565b9550506020620015cc8882890162000e79565b945050604086013567ffffffffffffffff811115620015f057620015ef62000d5d565b5b620015fe8882890162001190565b935050606086013567ffffffffffffffff81111562001622576200162162000d5d565b5b620016308882890162001190565b925050608086013567ffffffffffffffff81111562001654576200165362000d5d565b5b620016628882890162001557565b9150509295509295909350565b6200167a8162000d62565b82525050565b60006020820190506200169760008301846200166f565b92915050565b600060208284031215620016b657620016b562000d58565b5b6000620016c68482850162000e79565b91505092915050565b600080600080600060a08688031215620016ee57620016ed62000d58565b5b6000620016fe8882890162000e79565b9550506020620017118882890162000e79565b9450506040620017248882890162000eb4565b9350506060620017378882890162000eb4565b925050608086013567ffffffffffffffff8111156200175b576200175a62000d5d565b5b620017698882890162001557565b9150509295509295909350565b60006040820190506200178d600083018562001494565b6200179c602083018462001342565b9392505050565b600081519050620017b48162000e9a565b92915050565b600060208284031215620017d357620017d262000d58565b5b6000620017e384828501620017a3565b91505092915050565b600082825260208201905092915050565b7f4e66744d65726b6c654469737472696275746f723a20496e737566666963696560008201527f6e742062616c616e636500000000000000000000000000000000000000000000602082015250565b60006200185b602a83620017ec565b91506200186882620017fd565b604082019050919050565b600060208201905081810360008301526200188e816200184c565b9050919050565b7f4e66744d65726b6c654469737472696275746f7220666f72207468697320746f60008201527f6b656e20697320616c7265616479206465706c6f796564000000000000000000602082015250565b6000620018f3603783620017ec565b9150620019008262001895565b604082019050919050565b600060208201905081810360008301526200192681620018e4565b9050919050565b600082825260208201905092915050565b50565b6000620019506000836200192d565b91506200195d826200193e565b600082019050919050565b600060a0820190506200197f600083018762001494565b6200198e602083018662001494565b6200199d604083018562001342565b620019ac606083018462001342565b8181036080830152620019bf8162001941565b905095945050505050565b620019d58162000ecb565b82525050565b6000608082019050620019f2600083018762001494565b62001a01602083018662001342565b62001a106040830185620019ca565b62001a1f606083018462001342565b95945050505050565b7f4172726179206c656e677468206d69736d617463680000000000000000000000600082015250565b600062001a60601583620017ec565b915062001a6d8262001a28565b602082019050919050565b6000602082019050818103600083015262001a938162001a51565b9050919050565b7f4e487b7100000000000000000000000000000000000000000000000000000000600052603260045260246000fd5b600080fd5b600080fd5b600080fd5b6000808335600160200384360303811262001af85762001af762001ac9565b5b80840192508235915067ffffffffffffffff82111562001b1d5762001b1c62001ace565b5b60208301925060208202360383131562001b3c5762001b3b62001ad3565b5b509250929050565b7f496e76616c6964206469737472696275746f7220636f6e747261637400000000600082015250565b600062001b7c601c83620017ec565b915062001b898262001b44565b602082019050919050565b6000602082019050818103600083015262001baf8162001b6d565b9050919050565b60008151905062001bc78162000e5f565b92915050565b60006020828403121562001be65762001be562000d58565b5b600062001bf68482850162001bb6565b91505092915050565b7f496e73756666696369656e7420746f6b656e2062616c616e636520666f72206460008201527f69737472696275746f7200000000000000000000000000000000000000000000602082015250565b600062001c5d602a83620017ec565b915062001c6a8262001bff565b604082019050919050565b6000602082019050818103600083015262001c908162001c4e565b9050919050565b7f4e487b7100000000000000000000000000000000000000000000000000000000600052601160045260246000fd5b600062001cd38262000e90565b915062001ce08362000e90565b925082820390508181111562001cfb5762001cfa62001c97565b5b92915050565b600082825260208201905092915050565b600080fd5b82818337505050565b600062001d2e838562001d01565b93507f07ffffffffffffffffffffffffffffffffffffffffffffffffffffffffffffff83111562001d645762001d6362001d12565b5b60208302925062001d7783858462001d17565b82840190509392505050565b600060608201905062001d9a600083018762001494565b62001da9602083018662001342565b818103604083015262001dbe81848662001d20565b905095945050505050565b600062001dd68262000e90565b91507fffffffffffffffffffffffffffffffffffffffffffffffffffffffffffffffff820362001e0b5762001e0a62001c97565b5b60018201905091905056fe60806040523480156200001157600080fd5b506040516200116c3803806200116c833981810160405281019062000037919062000176565b836000806101000a81548173ffffffffffffffffffffffffffffffffffffffff021916908373ffffffffffffffffffffffffffffffffffffffff16021790555082600281905550816001819055508060048190555050505050620001e8565b600080fd5b600073ffffffffffffffffffffffffffffffffffffffff82169050919050565b6000620000c8826200009b565b9050919050565b620000da81620000bb565b8114620000e657600080fd5b50565b600081519050620000fa81620000cf565b92915050565b6000819050919050565b620001158162000100565b81146200012157600080fd5b50565b60008151905062000135816200010a565b92915050565b6000819050919050565b62000150816200013b565b81146200015c57600080fd5b50565b600081519050620001708162000145565b92915050565b6000806000806080858703121562000193576200019262000096565b5b6000620001a387828801620000e9565b9450506020620001b68782880162000124565b9350506040620001c9878288016200015f565b9250506060620001dc8782880162000124565b91505092959194509250565b610f7480620001f86000396000f3fe608060405234801561001057600080fd5b50600436106100885760003560e01c806346c7b2981161005b57806346c7b29814610115578063bc197c8114610133578063f23a6e6114610163578063fc0c546a1461019357610088565b806301ffc9a71461008d57806317d70f7c146100bd5780632eb4a7ab146100db5780633d13f874146100f9575b600080fd5b6100a760048036038101906100a29190610679565b6101b1565b6040516100b491906106c1565b60405180910390f35b6100c561022b565b6040516100d291906106f5565b60405180910390f35b6100e3610231565b6040516100f09190610729565b60405180910390f35b610113600480360381019061010e9190610833565b610237565b005b61011d6104a0565b60405161012a91906106f5565b60405180910390f35b61014d60048036038101906101489190610aab565b6104a6565b60405161015a9190610b89565b60405180910390f35b61017d60048036038101906101789190610ba4565b6104bb565b60405161018a9190610b89565b60405180910390f35b61019b6104d0565b6040516101a89190610c4a565b60405180910390f35b60007f4e2312e0000000000000000000000000000000000000000000000000000000007bffffffffffffffffffffffffffffffffffffffffffffffffffffffff1916827bffffffffffffffffffffffffffffffffffffffffffffffffffffffff191614806102245750610223826104f4565b5b9050919050565b60025481565b60015481565b6000600360008673ffffffffffffffffffffffffffffffffffffffff1673ffffffffffffffffffffffffffffffffffffffff16815260200190815260200160002054146102b9576040517f08c379a00000000000000000000000000000000000000000000000000000000081526004016102b090610ce8565b60405180910390fd5b600084846040516020016102ce929190610d71565b604051602081830303815290604052805190602001209050610334838380806020026020016040519081016040528093929190818152602001838360200280828437600081840152601f19601f820116905080830192505050505050506001548361055e565b610373576040517f08c379a000000000000000000000000000000000000000000000000000000000815260040161036a90610de9565b60405180910390fd5b6001600360008773ffffffffffffffffffffffffffffffffffffffff1673ffffffffffffffffffffffffffffffffffffffff1681526020019081526020016000208190555060008054906101000a900473ffffffffffffffffffffffffffffffffffffffff1673ffffffffffffffffffffffffffffffffffffffff1663f242432a3087600254886040518563ffffffff1660e01b81526004016104199493929190610e40565b600060405180830381600087803b15801561043357600080fd5b505af1158015610447573d6000803e3d6000fd5b505050508473ffffffffffffffffffffffffffffffffffffffff167fd8138f8a3f377c5259ca548e70e4c2de94f129f5a11036a15b69513cba2b426a8560405161049191906106f5565b60405180910390a25050505050565b60045481565b600063bc197c8160e01b905095945050505050565b600063f23a6e6160e01b905095945050505050565b60008054906101000a900473ffffffffffffffffffffffffffffffffffffffff1681565b60007f01ffc9a7000000000000000000000000000000000000000000000000000000007bffffffffffffffffffffffffffffffffffffffffffffffffffffffff1916827bffffffffffffffffffffffffffffffffffffffffffffffffffffffff1916149050919050565b60008261056b8584610575565b1490509392505050565b60008082905060005b84518110156105c0576105ab8286838151811061059e5761059d610e98565b5b60200260200101516105cb565b915080806105b890610ef6565b91505061057e565b508091505092915050565b60008183106105e3576105de82846105f6565b6105ee565b6105ed83836105f6565b5b905092915050565b600082600052816020526040600020905092915050565b6000604051905090565b600080fd5b600080fd5b60007fffffffff0000000000000000000000000000000000000000000000000000000082169050919050565b61065681610621565b811461066157600080fd5b50565b6000813590506106738161064d565b92915050565b60006020828403121561068f5761068e610617565b5b600061069d84828501610664565b91505092915050565b60008115159050919050565b6106bb816106a6565b82525050565b60006020820190506106d660008301846106b2565b92915050565b6000819050919050565b6106ef816106dc565b82525050565b600060208201905061070a60008301846106e6565b92915050565b6000819050919050565b61072381610710565b82525050565b600060208201905061073e600083018461071a565b92915050565b600073ffffffffffffffffffffffffffffffffffffffff82169050919050565b600061076f82610744565b9050919050565b61077f81610764565b811461078a57600080fd5b50565b60008135905061079c81610776565b92915050565b6107ab816106dc565b81146107b657600080fd5b50565b6000813590506107c8816107a2565b92915050565b600080fd5b600080fd5b600080fd5b60008083601f8401126107f3576107f26107ce565b5b8235905067ffffffffffffffff8111156108105761080f6107d3565b5b60208301915083602082028301111561082c5761082b6107d8565b5b9250929050565b6000806000806060858703121561084d5761084c610617565b5b600061085b8782880161078d565b945050602061086c878288016107b9565b935050604085013567ffffffffffffffff81111561088d5761088c61061c565b5b610899878288016107dd565b925092505092959194509250565b6000601f19601f8301169050919050565b7f4e487b7100000000000000000000000000000000000000000000000000000000600052604160045260246000fd5b6108f0826108a7565b810181811067ffffffffffffffff8211171561090f5761090e6108b8565b5b80604052505050565b600061092261060d565b905061092e82826108e7565b919050565b600067ffffffffffffffff82111561094e5761094d6108b8565b5b602082029050602081019050919050565b600061097261096d84610933565b610918565b90508083825260208201905060208402830185811115610995576109946107d8565b5b835b818110156109be57806109aa88826107b9565b845260208401935050602081019050610997565b5050509392505050565b600082601f8301126109dd576109dc6107ce565b5b81356109ed84826020860161095f565b91505092915050565b600080fd5b600067ffffffffffffffff821115610a1657610a156108b8565b5b610a1f826108a7565b9050602081019050919050565b82818337600083830152505050565b6000610a4e610a49846109fb565b610918565b905082815260208101848484011115610a6a57610a696109f6565b5b610a75848285610a2c565b509392505050565b600082601f830112610a9257610a916107ce565b5b8135610aa2848260208601610a3b565b91505092915050565b600080600080600060a08688031215610ac757610ac6610617565b5b6000610ad58882890161078d565b9550506020610ae68882890161078d565b945050604086013567ffffffffffffffff811115610b0757610b0661061c565b5b610b13888289016109c8565b935050606086013567ffffffffffffffff811115610b3457610b3361061c565b5b610b40888289016109c8565b925050608086013567ffffffffffffffff811115610b6157610b6061061c565b5b610b6d88828901610a7d565b9150509295509295909350565b610b8381610621565b82525050565b6000602082019050610b9e6000830184610b7a565b92915050565b600080600080600060a08688031215610bc057610bbf610617565b5b6000610bce8882890161078d565b9550506020610bdf8882890161078d565b9450506040610bf0888289016107b9565b9350506060610c01888289016107b9565b925050608086013567ffffffffffffffff811115610c2257610c2161061c565b5b610c2e88828901610a7d565b9150509295509295909350565b610c4481610764565b82525050565b6000602082019050610c5f6000830184610c3b565b92915050565b600082825260208201905092915050565b7f4d65726b6c654469737472696275746f723a2044726f7020616c72656164792060008201527f636c61696d656400000000000000000000000000000000000000000000000000602082015250565b6000610cd2602783610c65565b9150610cdd82610c76565b604082019050919050565b60006020820190508181036000830152610d0181610cc5565b9050919050565b60008160601b9050919050565b6000610d2082610d08565b9050919050565b6000610d3282610d15565b9050919050565b610d4a610d4582610764565b610d27565b82525050565b6000819050919050565b610d6b610d66826106dc565b610d50565b82525050565b6000610d7d8285610d39565b601482019150610d8d8284610d5a565b6020820191508190509392505050565b7f496e76616c69642070726f6f6600000000000000000000000000000000000000600082015250565b6000610dd3600d83610c65565b9150610dde82610d9d565b602082019050919050565b60006020820190508181036000830152610e0281610dc6565b9050919050565b600082825260208201905092915050565b50565b6000610e2a600083610e09565b9150610e3582610e1a565b600082019050919050565b600060a082019050610e556000830187610c3b565b610e626020830186610c3b565b610e6f60408301856106e6565b610e7c60608301846106e6565b8181036080830152610e8d81610e1d565b905095945050505050565b7f4e487b7100000000000000000000000000000000000000000000000000000000600052603260045260246000fd5b7f4e487b7100000000000000000000000000000000000000000000000000000000600052601160045260246000fd5b6000610f01826106dc565b91507fffffffffffffffffffffffffffffffffffffffffffffffffffffffffffffffff8203610f3357610f32610ec7565b5b60018201905091905056fea26469706673582212207eb59e42de8dbb408940162b73b0d8319670e76fe5772f9e8aed7de0ee7873d664736f6c63430008130033a26469706673582212209036bf33aefcba859113407665e56a559685e58ff452b5d13c99f9957bdcac6f64736f6c63430008130033","opcodes":"PUSH1 0x80 PUSH1 0x40 MSTORE CALLVALUE DUP1 ISZERO PUSH2 0x10 JUMPI PUSH1 0x0 DUP1 REVERT JUMPDEST POP PUSH2 0x2FB8 DUP1 PUSH2 0x20 PUSH1 0x0 CODECOPY PUSH1 0x0 RETURN INVALID PUSH1 0x80 PUSH1 0x40 MSTORE CALLVALUE DUP1 ISZERO PUSH3 0x11 JUMPI PUSH1 0x0 DUP1 REVERT JUMPDEST POP PUSH1 0x4 CALLDATASIZE LT PUSH3 0xA0 JUMPI PUSH1 0x0 CALLDATALOAD PUSH1 0xE0 SHR DUP1 PUSH4 0x6C9364B2 GT PUSH3 0x6F JUMPI DUP1 PUSH4 0x6C9364B2 EQ PUSH3 0x151 JUMPI DUP1 PUSH4 0x99CA49EB EQ PUSH3 0x173 JUMPI DUP1 PUSH4 0xBC197C81 EQ PUSH3 0x1A9 JUMPI DUP1 PUSH4 0xC70242AD EQ PUSH3 0x1DF JUMPI DUP1 PUSH4 0xF23A6E61 EQ PUSH3 0x215 JUMPI PUSH3 0xA0 JUMP JUMPDEST DUP1 PUSH4 0x1FFC9A7 EQ PUSH3 0xA5 JUMPI DUP1 PUSH4 0x3849617E EQ PUSH3 0xDB JUMPI DUP1 PUSH4 0x470F0F86 EQ PUSH3 0xFB JUMPI DUP1 PUSH4 0x4DBF6C5A EQ PUSH3 0x11B JUMPI JUMPDEST PUSH1 0x0 DUP1 REVERT JUMPDEST PUSH3 0xC3 PUSH1 0x4 DUP1 CALLDATASIZE SUB DUP2 ADD SWAP1 PUSH3 0xBD SWAP2 SWAP1 PUSH3 0xDBF JUMP JUMPDEST PUSH3 0x24B JUMP JUMPDEST PUSH1 0x40 MLOAD PUSH3 0xD2 SWAP2 SWAP1 PUSH3 0xE0E JUMP JUMPDEST PUSH1 0x40 MLOAD DUP1 SWAP2 SUB SWAP1 RETURN JUMPDEST PUSH3 0xF9 PUSH1 0x4 DUP1 CALLDATASIZE SUB DUP2 ADD SWAP1 PUSH3 0xF3 SWAP2 SWAP1 PUSH3 0xF06 JUMP JUMPDEST PUSH3 0x2C8 JUMP JUMPDEST STOP JUMPDEST PUSH3 0x119 PUSH1 0x4 DUP1 CALLDATASIZE SUB DUP2 ADD SWAP1 PUSH3 0x113 SWAP2 SWAP1 PUSH3 0x1227 JUMP JUMPDEST PUSH3 0x760 JUMP JUMPDEST STOP JUMPDEST PUSH3 0x139 PUSH1 0x4 DUP1 CALLDATASIZE SUB DUP2 ADD SWAP1 PUSH3 0x133 SWAP2 SWAP1 PUSH3 0x12FB JUMP JUMPDEST PUSH3 0xB97 JUMP JUMPDEST PUSH1 0x40 MLOAD PUSH3 0x148 SWAP2 SWAP1 PUSH3 0x1353 JUMP JUMPDEST PUSH1 0x40 MLOAD DUP1 SWAP2 SUB SWAP1 RETURN JUMPDEST PUSH3 0x15B PUSH3 0xBBC JUMP JUMPDEST PUSH1 0x40 MLOAD PUSH3 0x16A SWAP2 SWAP1 PUSH3 0x143E JUMP JUMPDEST PUSH1 0x40 MLOAD DUP1 SWAP2 SUB SWAP1 RETURN JUMPDEST PUSH3 0x191 PUSH1 0x4 DUP1 CALLDATASIZE SUB DUP2 ADD SWAP1 PUSH3 0x18B SWAP2 SWAP1 PUSH3 0x1462 JUMP JUMPDEST PUSH3 0xC4C JUMP JUMPDEST PUSH1 0x40 MLOAD PUSH3 0x1A0 SWAP2 SWAP1 PUSH3 0x14A5 JUMP JUMPDEST PUSH1 0x40 MLOAD DUP1 SWAP2 SUB SWAP1 RETURN JUMPDEST PUSH3 0x1C7 PUSH1 0x4 DUP1 CALLDATASIZE SUB DUP2 ADD SWAP1 PUSH3 0x1C1 SWAP2 SWAP1 PUSH3 0x158A JUMP JUMPDEST PUSH3 0xC8C JUMP JUMPDEST PUSH1 0x40 MLOAD PUSH3 0x1D6 SWAP2 SWAP1 PUSH3 0x1680 JUMP JUMPDEST PUSH1 0x40 MLOAD DUP1 SWAP2 SUB SWAP1 RETURN JUMPDEST PUSH3 0x1FD PUSH1 0x4 DUP1 CALLDATASIZE SUB DUP2 ADD SWAP1 PUSH3 0x1F7 SWAP2 SWAP1 PUSH3 0x169D JUMP JUMPDEST PUSH3 0xCA1 JUMP JUMPDEST PUSH1 0x40 MLOAD PUSH3 0x20C SWAP2 SWAP1 PUSH3 0xE0E JUMP JUMPDEST PUSH1 0x40 MLOAD DUP1 SWAP2 SUB SWAP1 RETURN JUMPDEST PUSH3 0x233 PUSH1 0x4 DUP1 CALLDATASIZE SUB DUP2 ADD SWAP1 PUSH3 0x22D SWAP2 SWAP1 PUSH3 0x16CF JUMP JUMPDEST PUSH3 0xCC1 JUMP JUMPDEST PUSH1 0x40 MLOAD PUSH3 0x242 SWAP2 SWAP1 PUSH3 0x1680 JUMP JUMPDEST PUSH1 0x40 MLOAD DUP1 SWAP2 SUB SWAP1 RETURN JUMPDEST PUSH1 0x0 PUSH32 0x4E2312E000000000000000000000000000000000000000000000000000000000 PUSH28 0xFFFFFFFFFFFFFFFFFFFFFFFFFFFFFFFFFFFFFFFFFFFFFFFFFFFFFFFF NOT AND DUP3 PUSH28 0xFFFFFFFFFFFFFFFFFFFFFFFFFFFFFFFFFFFFFFFFFFFFFFFFFFFFFFFF NOT AND EQ DUP1 PUSH3 0x2C1 JUMPI POP PUSH3 0x2C0 DUP3 PUSH3 0xCD6 JUMP JUMPDEST JUMPDEST SWAP1 POP SWAP2 SWAP1 POP JUMP JUMPDEST DUP1 DUP5 PUSH20 0xFFFFFFFFFFFFFFFFFFFFFFFFFFFFFFFFFFFFFFFF AND PUSH3 0xFDD58E CALLER DUP7 PUSH1 0x40 MLOAD DUP4 PUSH4 0xFFFFFFFF AND PUSH1 0xE0 SHL DUP2 MSTORE PUSH1 0x4 ADD PUSH3 0x305 SWAP3 SWAP2 SWAP1 PUSH3 0x1776 JUMP JUMPDEST PUSH1 0x20 PUSH1 0x40 MLOAD DUP1 DUP4 SUB DUP2 DUP7 GAS STATICCALL ISZERO DUP1 ISZERO PUSH3 0x323 JUMPI RETURNDATASIZE PUSH1 0x0 DUP1 RETURNDATACOPY RETURNDATASIZE PUSH1 0x0 REVERT JUMPDEST POP POP POP POP PUSH1 0x40 MLOAD RETURNDATASIZE PUSH1 0x1F NOT PUSH1 0x1F DUP3 ADD AND DUP3 ADD DUP1 PUSH1 0x40 MSTORE POP DUP2 ADD SWAP1 PUSH3 0x349 SWAP2 SWAP1 PUSH3 0x17BA JUMP JUMPDEST LT ISZERO PUSH3 0x38D JUMPI PUSH1 0x40 MLOAD PUSH32 0x8C379A000000000000000000000000000000000000000000000000000000000 DUP2 MSTORE PUSH1 0x4 ADD PUSH3 0x384 SWAP1 PUSH3 0x1873 JUMP JUMPDEST PUSH1 0x40 MLOAD DUP1 SWAP2 SUB SWAP1 REVERT JUMPDEST PUSH1 0x0 DUP1 DUP6 PUSH20 0xFFFFFFFFFFFFFFFFFFFFFFFFFFFFFFFFFFFFFFFF AND PUSH20 0xFFFFFFFFFFFFFFFFFFFFFFFFFFFFFFFFFFFFFFFF AND DUP2 MSTORE PUSH1 0x20 ADD SWAP1 DUP2 MSTORE PUSH1 0x20 ADD PUSH1 0x0 KECCAK256 PUSH1 0x0 SWAP1 SLOAD SWAP1 PUSH2 0x100 EXP SWAP1 DIV PUSH1 0xFF AND ISZERO PUSH3 0x41C JUMPI PUSH1 0x40 MLOAD PUSH32 0x8C379A000000000000000000000000000000000000000000000000000000000 DUP2 MSTORE PUSH1 0x4 ADD PUSH3 0x413 SWAP1 PUSH3 0x190B JUMP JUMPDEST PUSH1 0x40 MLOAD DUP1 SWAP2 SUB SWAP1 REVERT JUMPDEST DUP4 PUSH20 0xFFFFFFFFFFFFFFFFFFFFFFFFFFFFFFFFFFFFFFFF AND PUSH4 0xF242432A CALLER ADDRESS DUP7 DUP6 PUSH1 0x40 MLOAD DUP6 PUSH4 0xFFFFFFFF AND PUSH1 0xE0 SHL DUP2 MSTORE PUSH1 0x4 ADD PUSH3 0x45D SWAP5 SWAP4 SWAP3 SWAP2 SWAP1 PUSH3 0x1968 JUMP JUMPDEST PUSH1 0x0 PUSH1 0x40 MLOAD DUP1 DUP4 SUB DUP2 PUSH1 0x0 DUP8 DUP1 EXTCODESIZE ISZERO DUP1 ISZERO PUSH3 0x478 JUMPI PUSH1 0x0 DUP1 REVERT JUMPDEST POP GAS CALL ISZERO DUP1 ISZERO PUSH3 0x48D JUMPI RETURNDATASIZE PUSH1 0x0 DUP1 RETURNDATACOPY RETURNDATASIZE PUSH1 0x0 REVERT JUMPDEST POP POP POP POP PUSH1 0x0 DUP5 DUP5 DUP5 DUP5 PUSH1 0x40 MLOAD PUSH3 0x4A5 SWAP1 PUSH3 0xD40 JUMP JUMPDEST PUSH3 0x4B4 SWAP5 SWAP4 SWAP3 SWAP2 SWAP1 PUSH3 0x19DB JUMP JUMPDEST PUSH1 0x40 MLOAD DUP1 SWAP2 SUB SWAP1 PUSH1 0x0 CREATE DUP1 ISZERO DUP1 ISZERO PUSH3 0x4D1 JUMPI RETURNDATASIZE PUSH1 0x0 DUP1 RETURNDATACOPY RETURNDATASIZE PUSH1 0x0 REVERT JUMPDEST POP SWAP1 POP DUP5 PUSH20 0xFFFFFFFFFFFFFFFFFFFFFFFFFFFFFFFFFFFFFFFF AND PUSH4 0xF242432A ADDRESS DUP4 DUP8 DUP7 PUSH1 0x40 MLOAD DUP6 PUSH4 0xFFFFFFFF AND PUSH1 0xE0 SHL DUP2 MSTORE PUSH1 0x4 ADD PUSH3 0x515 SWAP5 SWAP4 SWAP3 SWAP2 SWAP1 PUSH3 0x1968 JUMP JUMPDEST PUSH1 0x0 PUSH1 0x40 MLOAD DUP1 DUP4 SUB DUP2 PUSH1 0x0 DUP8 DUP1 EXTCODESIZE ISZERO DUP1 ISZERO PUSH3 0x530 JUMPI PUSH1 0x0 DUP1 REVERT JUMPDEST POP GAS CALL ISZERO DUP1 ISZERO PUSH3 0x545 JUMPI RETURNDATASIZE PUSH1 0x0 DUP1 RETURNDATACOPY RETURNDATASIZE PUSH1 0x0 REVERT JUMPDEST POP POP POP POP PUSH1 0x1 PUSH1 0x0 DUP1 DUP8 PUSH20 0xFFFFFFFFFFFFFFFFFFFFFFFFFFFFFFFFFFFFFFFF AND PUSH20 0xFFFFFFFFFFFFFFFFFFFFFFFFFFFFFFFFFFFFFFFF AND DUP2 MSTORE PUSH1 0x20 ADD SWAP1 DUP2 MSTORE PUSH1 0x20 ADD PUSH1 0x0 KECCAK256 PUSH1 0x0 PUSH2 0x100 EXP DUP2 SLOAD DUP2 PUSH1 0xFF MUL NOT AND SWAP1 DUP4 ISZERO ISZERO MUL OR SWAP1 SSTORE POP PUSH1 0x1 PUSH1 0x0 DUP1 DUP4 PUSH20 0xFFFFFFFFFFFFFFFFFFFFFFFFFFFFFFFFFFFFFFFF AND PUSH20 0xFFFFFFFFFFFFFFFFFFFFFFFFFFFFFFFFFFFFFFFF AND DUP2 MSTORE PUSH1 0x20 ADD SWAP1 DUP2 MSTORE PUSH1 0x20 ADD PUSH1 0x0 KECCAK256 PUSH1 0x0 PUSH2 0x100 EXP DUP2 SLOAD DUP2 PUSH1 0xFF MUL NOT AND SWAP1 DUP4 ISZERO ISZERO MUL OR SWAP1 SSTORE POP PUSH1 0x1 DUP2 SWAP1 DUP1 PUSH1 0x1 DUP2 SLOAD ADD DUP1 DUP3 SSTORE DUP1 SWAP2 POP POP PUSH1 0x1 SWAP1 SUB SWAP1 PUSH1 0x0 MSTORE PUSH1 0x20 PUSH1 0x0 KECCAK256 ADD PUSH1 0x0 SWAP1 SWAP2 SWAP1 SWAP2 SWAP1 SWAP2 PUSH2 0x100 EXP DUP2 SLOAD DUP2 PUSH20 0xFFFFFFFFFFFFFFFFFFFFFFFFFFFFFFFFFFFFFFFF MUL NOT AND SWAP1 DUP4 PUSH20 0xFFFFFFFFFFFFFFFFFFFFFFFFFFFFFFFFFFFFFFFF AND MUL OR SWAP1 SSTORE POP DUP2 PUSH1 0x2 PUSH1 0x0 DUP4 PUSH20 0xFFFFFFFFFFFFFFFFFFFFFFFFFFFFFFFFFFFFFFFF AND PUSH20 0xFFFFFFFFFFFFFFFFFFFFFFFFFFFFFFFFFFFFFFFF AND DUP2 MSTORE PUSH1 0x20 ADD SWAP1 DUP2 MSTORE PUSH1 0x20 ADD PUSH1 0x0 KECCAK256 PUSH1 0x0 DUP8 PUSH20 0xFFFFFFFFFFFFFFFFFFFFFFFFFFFFFFFFFFFFFFFF AND PUSH20 0xFFFFFFFFFFFFFFFFFFFFFFFFFFFFFFFFFFFFFFFF AND DUP2 MSTORE PUSH1 0x20 ADD SWAP1 DUP2 MSTORE PUSH1 0x20 ADD PUSH1 0x0 KECCAK256 DUP2 SWAP1 SSTORE POP DUP5 PUSH20 0xFFFFFFFFFFFFFFFFFFFFFFFFFFFFFFFFFFFFFFFF AND CALLER PUSH20 0xFFFFFFFFFFFFFFFFFFFFFFFFFFFFFFFFFFFFFFFF AND DUP3 PUSH20 0xFFFFFFFFFFFFFFFFFFFFFFFFFFFFFFFFFFFFFFFF AND PUSH32 0x73A84C7215AF8F6FB58A130AC0F0B705DD2763155CC0D95D6C4178CDCC5D2325 DUP8 PUSH1 0x40 MLOAD PUSH3 0x751 SWAP2 SWAP1 PUSH3 0x1353 JUMP JUMPDEST PUSH1 0x40 MLOAD DUP1 SWAP2 SUB SWAP1 LOG4 POP POP POP POP POP JUMP JUMPDEST DUP3 MLOAD DUP6 MLOAD EQ DUP1 ISZERO PUSH3 0x775 JUMPI POP DUP2 DUP2 SWAP1 POP DUP6 MLOAD EQ JUMPDEST PUSH3 0x7B7 JUMPI PUSH1 0x40 MLOAD PUSH32 0x8C379A000000000000000000000000000000000000000000000000000000000 DUP2 MSTORE PUSH1 0x4 ADD PUSH3 0x7AE SWAP1 PUSH3 0x1A78 JUMP JUMPDEST PUSH1 0x40 MLOAD DUP1 SWAP2 SUB SWAP1 REVERT JUMPDEST PUSH1 0x0 JUMPDEST DUP6 MLOAD DUP2 LT ISZERO PUSH3 0xB8F JUMPI PUSH1 0x0 DUP7 DUP3 DUP2 MLOAD DUP2 LT PUSH3 0x7DC JUMPI PUSH3 0x7DB PUSH3 0x1A9A JUMP JUMPDEST JUMPDEST PUSH1 0x20 MUL PUSH1 0x20 ADD ADD MLOAD SWAP1 POP PUSH1 0x0 DUP6 DUP4 DUP2 MLOAD DUP2 LT PUSH3 0x7FE JUMPI PUSH3 0x7FD PUSH3 0x1A9A JUMP JUMPDEST JUMPDEST PUSH1 0x20 MUL PUSH1 0x20 ADD ADD MLOAD SWAP1 POP CALLDATASIZE PUSH1 0x0 DUP7 DUP7 DUP7 DUP2 DUP2 LT PUSH3 0x821 JUMPI PUSH3 0x820 PUSH3 0x1A9A JUMP JUMPDEST JUMPDEST SWAP1 POP PUSH1 0x20 MUL DUP2 ADD SWAP1 PUSH3 0x835 SWAP2 SWAP1 PUSH3 0x1AD8 JUMP JUMPDEST SWAP2 POP SWAP2 POP PUSH1 0x0 DUP1 DUP6 PUSH20 0xFFFFFFFFFFFFFFFFFFFFFFFFFFFFFFFFFFFFFFFF AND PUSH20 0xFFFFFFFFFFFFFFFFFFFFFFFFFFFFFFFFFFFFFFFF AND DUP2 MSTORE PUSH1 0x20 ADD SWAP1 DUP2 MSTORE PUSH1 0x20 ADD PUSH1 0x0 KECCAK256 PUSH1 0x0 SWAP1 SLOAD SWAP1 PUSH2 0x100 EXP SWAP1 DIV PUSH1 0xFF AND PUSH3 0x8C7 JUMPI PUSH1 0x40 MLOAD PUSH32 0x8C379A000000000000000000000000000000000000000000000000000000000 DUP2 MSTORE PUSH1 0x4 ADD PUSH3 0x8BE SWAP1 PUSH3 0x1B94 JUMP JUMPDEST PUSH1 0x40 MLOAD DUP1 SWAP2 SUB SWAP1 REVERT JUMPDEST DUP3 PUSH1 0x2 PUSH1 0x0 DUP7 PUSH20 0xFFFFFFFFFFFFFFFFFFFFFFFFFFFFFFFFFFFFFFFF AND PUSH20 0xFFFFFFFFFFFFFFFFFFFFFFFFFFFFFFFFFFFFFFFF AND DUP2 MSTORE PUSH1 0x20 ADD SWAP1 DUP2 MSTORE PUSH1 0x20 ADD PUSH1 0x0 KECCAK256 PUSH1 0x0 DUP7 PUSH20 0xFFFFFFFFFFFFFFFFFFFFFFFFFFFFFFFFFFFFFFFF AND PUSH4 0xFC0C546A PUSH1 0x40 MLOAD DUP2 PUSH4 0xFFFFFFFF AND PUSH1 0xE0 SHL DUP2 MSTORE PUSH1 0x4 ADD PUSH1 0x20 PUSH1 0x40 MLOAD DUP1 DUP4 SUB DUP2 DUP7 GAS STATICCALL ISZERO DUP1 ISZERO PUSH3 0x955 JUMPI RETURNDATASIZE PUSH1 0x0 DUP1 RETURNDATACOPY RETURNDATASIZE PUSH1 0x0 REVERT JUMPDEST POP POP POP POP PUSH1 0x40 MLOAD RETURNDATASIZE PUSH1 0x1F NOT PUSH1 0x1F DUP3 ADD AND DUP3 ADD DUP1 PUSH1 0x40 MSTORE POP DUP2 ADD SWAP1 PUSH3 0x97B SWAP2 SWAP1 PUSH3 0x1BCD JUMP JUMPDEST PUSH20 0xFFFFFFFFFFFFFFFFFFFFFFFFFFFFFFFFFFFFFFFF AND PUSH20 0xFFFFFFFFFFFFFFFFFFFFFFFFFFFFFFFFFFFFFFFF AND DUP2 MSTORE PUSH1 0x20 ADD SWAP1 DUP2 MSTORE PUSH1 0x20 ADD PUSH1 0x0 KECCAK256 SLOAD LT ISZERO PUSH3 0x9FA JUMPI PUSH1 0x40 MLOAD PUSH32 0x8C379A000000000000000000000000000000000000000000000000000000000 DUP2 MSTORE PUSH1 0x4 ADD PUSH3 0x9F1 SWAP1 PUSH3 0x1C75 JUMP JUMPDEST PUSH1 0x40 MLOAD DUP1 SWAP2 SUB SWAP1 REVERT JUMPDEST DUP3 PUSH1 0x2 PUSH1 0x0 DUP7 PUSH20 0xFFFFFFFFFFFFFFFFFFFFFFFFFFFFFFFFFFFFFFFF AND PUSH20 0xFFFFFFFFFFFFFFFFFFFFFFFFFFFFFFFFFFFFFFFF AND DUP2 MSTORE PUSH1 0x20 ADD SWAP1 DUP2 MSTORE PUSH1 0x20 ADD PUSH1 0x0 KECCAK256 PUSH1 0x0 DUP7 PUSH20 0xFFFFFFFFFFFFFFFFFFFFFFFFFFFFFFFFFFFFFFFF AND PUSH4 0xFC0C546A PUSH1 0x40 MLOAD DUP2 PUSH4 0xFFFFFFFF AND PUSH1 0xE0 SHL DUP2 MSTORE PUSH1 0x4 ADD PUSH1 0x20 PUSH1 0x40 MLOAD DUP1 DUP4 SUB DUP2 DUP7 GAS STATICCALL ISZERO DUP1 ISZERO PUSH3 0xA88 JUMPI RETURNDATASIZE PUSH1 0x0 DUP1 RETURNDATACOPY RETURNDATASIZE PUSH1 0x0 REVERT JUMPDEST POP POP POP POP PUSH1 0x40 MLOAD RETURNDATASIZE PUSH1 0x1F NOT PUSH1 0x1F DUP3 ADD AND DUP3 ADD DUP1 PUSH1 0x40 MSTORE POP DUP2 ADD SWAP1 PUSH3 0xAAE SWAP2 SWAP1 PUSH3 0x1BCD JUMP JUMPDEST PUSH20 0xFFFFFFFFFFFFFFFFFFFFFFFFFFFFFFFFFFFFFFFF AND PUSH20 0xFFFFFFFFFFFFFFFFFFFFFFFFFFFFFFFFFFFFFFFF AND DUP2 MSTORE PUSH1 0x20 ADD SWAP1 DUP2 MSTORE PUSH1 0x20 ADD PUSH1 0x0 KECCAK256 PUSH1 0x0 DUP3 DUP3 SLOAD PUSH3 0xAF9 SWAP2 SWAP1 PUSH3 0x1CC6 JUMP JUMPDEST SWAP3 POP POP DUP2 SWAP1 SSTORE POP DUP4 PUSH20 0xFFFFFFFFFFFFFFFFFFFFFFFFFFFFFFFFFFFFFFFF AND PUSH4 0x3D13F874 DUP11 DUP6 DUP6 DUP6 PUSH1 0x40 MLOAD DUP6 PUSH4 0xFFFFFFFF AND PUSH1 0xE0 SHL DUP2 MSTORE PUSH1 0x4 ADD PUSH3 0xB41 SWAP5 SWAP4 SWAP3 SWAP2 SWAP1 PUSH3 0x1D83 JUMP JUMPDEST PUSH1 0x0 PUSH1 0x40 MLOAD DUP1 DUP4 SUB DUP2 PUSH1 0x0 DUP8 DUP1 EXTCODESIZE ISZERO DUP1 ISZERO PUSH3 0xB5C JUMPI PUSH1 0x0 DUP1 REVERT JUMPDEST POP GAS CALL ISZERO DUP1 ISZERO PUSH3 0xB71 JUMPI RETURNDATASIZE PUSH1 0x0 DUP1 RETURNDATACOPY RETURNDATASIZE PUSH1 0x0 REVERT JUMPDEST POP POP POP POP POP POP POP POP DUP1 DUP1 PUSH3 0xB86 SWAP1 PUSH3 0x1DC9 JUMP JUMPDEST SWAP2 POP POP PUSH3 0x7BA JUMP JUMPDEST POP POP POP POP POP POP JUMP JUMPDEST PUSH1 0x2 PUSH1 0x20 MSTORE DUP2 PUSH1 0x0 MSTORE PUSH1 0x40 PUSH1 0x0 KECCAK256 PUSH1 0x20 MSTORE DUP1 PUSH1 0x0 MSTORE PUSH1 0x40 PUSH1 0x0 KECCAK256 PUSH1 0x0 SWAP2 POP SWAP2 POP POP SLOAD DUP2 JUMP JUMPDEST PUSH1 0x60 PUSH1 0x1 DUP1 SLOAD DUP1 PUSH1 0x20 MUL PUSH1 0x20 ADD PUSH1 0x40 MLOAD SWAP1 DUP2 ADD PUSH1 0x40 MSTORE DUP1 SWAP3 SWAP2 SWAP1 DUP2 DUP2 MSTORE PUSH1 0x20 ADD DUP3 DUP1 SLOAD DUP1 ISZERO PUSH3 0xC42 JUMPI PUSH1 0x20 MUL DUP3 ADD SWAP2 SWAP1 PUSH1 0x0 MSTORE PUSH1 0x20 PUSH1 0x0 KECCAK256 SWAP1 JUMPDEST DUP2 PUSH1 0x0 SWAP1 SLOAD SWAP1 PUSH2 0x100 EXP SWAP1 DIV PUSH20 0xFFFFFFFFFFFFFFFFFFFFFFFFFFFFFFFFFFFFFFFF AND PUSH20 0xFFFFFFFFFFFFFFFFFFFFFFFFFFFFFFFFFFFFFFFF AND DUP2 MSTORE PUSH1 0x20 ADD SWAP1 PUSH1 0x1 ADD SWAP1 DUP1 DUP4 GT PUSH3 0xBF7 JUMPI JUMPDEST POP POP POP POP POP SWAP1 POP SWAP1 JUMP JUMPDEST PUSH1 0x1 DUP2 DUP2 SLOAD DUP2 LT PUSH3 0xC5D JUMPI PUSH1 0x0 DUP1 REVERT JUMPDEST SWAP1 PUSH1 0x0 MSTORE PUSH1 0x20 PUSH1 0x0 KECCAK256 ADD PUSH1 0x0 SWAP2 POP SLOAD SWAP1 PUSH2 0x100 EXP SWAP1 DIV PUSH20 0xFFFFFFFFFFFFFFFFFFFFFFFFFFFFFFFFFFFFFFFF AND DUP2 JUMP JUMPDEST PUSH1 0x0 PUSH4 0xBC197C81 PUSH1 0xE0 SHL SWAP1 POP SWAP6 SWAP5 POP POP POP POP POP JUMP JUMPDEST PUSH1 0x0 PUSH1 0x20 MSTORE DUP1 PUSH1 0x0 MSTORE PUSH1 0x40 PUSH1 0x0 KECCAK256 PUSH1 0x0 SWAP2 POP SLOAD SWAP1 PUSH2 0x100 EXP SWAP1 DIV PUSH1 0xFF AND DUP2 JUMP JUMPDEST PUSH1 0x0 PUSH4 0xF23A6E61 PUSH1 0xE0 SHL SWAP1 POP SWAP6 SWAP5 POP POP POP POP POP JUMP JUMPDEST PUSH1 0x0 PUSH32 0x1FFC9A700000000000000000000000000000000000000000000000000000000 PUSH28 0xFFFFFFFFFFFFFFFFFFFFFFFFFFFFFFFFFFFFFFFFFFFFFFFFFFFFFFFF NOT AND DUP3 PUSH28 0xFFFFFFFFFFFFFFFFFFFFFFFFFFFFFFFFFFFFFFFFFFFFFFFFFFFFFFFF NOT AND EQ SWAP1 POP SWAP2 SWAP1 POP JUMP JUMPDEST PUSH2 0x116C DUP1 PUSH3 0x1E17 DUP4 CODECOPY ADD SWAP1 JUMP JUMPDEST PUSH1 0x0 PUSH1 0x40 MLOAD SWAP1 POP SWAP1 JUMP JUMPDEST PUSH1 0x0 DUP1 REVERT JUMPDEST PUSH1 0x0 DUP1 REVERT JUMPDEST PUSH1 0x0 PUSH32 0xFFFFFFFF00000000000000000000000000000000000000000000000000000000 DUP3 AND SWAP1 POP SWAP2 SWAP1 POP JUMP JUMPDEST PUSH3 0xD99 DUP2 PUSH3 0xD62 JUMP JUMPDEST DUP2 EQ PUSH3 0xDA5 JUMPI PUSH1 0x0 DUP1 REVERT JUMPDEST POP JUMP JUMPDEST PUSH1 0x0 DUP2 CALLDATALOAD SWAP1 POP PUSH3 0xDB9 DUP2 PUSH3 0xD8E JUMP JUMPDEST SWAP3 SWAP2 POP POP JUMP JUMPDEST PUSH1 0x0 PUSH1 0x20 DUP3 DUP5 SUB SLT ISZERO PUSH3 0xDD8 JUMPI PUSH3 0xDD7 PUSH3 0xD58 JUMP JUMPDEST JUMPDEST PUSH1 0x0 PUSH3 0xDE8 DUP5 DUP3 DUP6 ADD PUSH3 0xDA8 JUMP JUMPDEST SWAP2 POP POP SWAP3 SWAP2 POP POP JUMP JUMPDEST PUSH1 0x0 DUP2 ISZERO ISZERO SWAP1 POP SWAP2 SWAP1 POP JUMP JUMPDEST PUSH3 0xE08 DUP2 PUSH3 0xDF1 JUMP JUMPDEST DUP3 MSTORE POP POP JUMP JUMPDEST PUSH1 0x0 PUSH1 0x20 DUP3 ADD SWAP1 POP PUSH3 0xE25 PUSH1 0x0 DUP4 ADD DUP5 PUSH3 0xDFD JUMP JUMPDEST SWAP3 SWAP2 POP POP JUMP JUMPDEST PUSH1 0x0 PUSH20 0xFFFFFFFFFFFFFFFFFFFFFFFFFFFFFFFFFFFFFFFF DUP3 AND SWAP1 POP SWAP2 SWAP1 POP JUMP JUMPDEST PUSH1 0x0 PUSH3 0xE58 DUP3 PUSH3 0xE2B JUMP JUMPDEST SWAP1 POP SWAP2 SWAP1 POP JUMP JUMPDEST PUSH3 0xE6A DUP2 PUSH3 0xE4B JUMP JUMPDEST DUP2 EQ PUSH3 0xE76 JUMPI PUSH1 0x0 DUP1 REVERT JUMPDEST POP JUMP JUMPDEST PUSH1 0x0 DUP2 CALLDATALOAD SWAP1 POP PUSH3 0xE8A DUP2 PUSH3 0xE5F JUMP JUMPDEST SWAP3 SWAP2 POP POP JUMP JUMPDEST PUSH1 0x0 DUP2 SWAP1 POP SWAP2 SWAP1 POP JUMP JUMPDEST PUSH3 0xEA5 DUP2 PUSH3 0xE90 JUMP JUMPDEST DUP2 EQ PUSH3 0xEB1 JUMPI PUSH1 0x0 DUP1 REVERT JUMPDEST POP JUMP JUMPDEST PUSH1 0x0 DUP2 CALLDATALOAD SWAP1 POP PUSH3 0xEC5 DUP2 PUSH3 0xE9A JUMP JUMPDEST SWAP3 SWAP2 POP POP JUMP JUMPDEST PUSH1 0x0 DUP2 SWAP1 POP SWAP2 SWAP1 POP JUMP JUMPDEST PUSH3 0xEE0 DUP2 PUSH3 0xECB JUMP JUMPDEST DUP2 EQ PUSH3 0xEEC JUMPI PUSH1 0x0 DUP1 REVERT JUMPDEST POP JUMP JUMPDEST PUSH1 0x0 DUP2 CALLDATALOAD SWAP1 POP PUSH3 0xF00 DUP2 PUSH3 0xED5 JUMP JUMPDEST SWAP3 SWAP2 POP POP JUMP JUMPDEST PUSH1 0x0 DUP1 PUSH1 0x0 DUP1 PUSH1 0x80 DUP6 DUP8 SUB SLT ISZERO PUSH3 0xF23 JUMPI PUSH3 0xF22 PUSH3 0xD58 JUMP JUMPDEST JUMPDEST PUSH1 0x0 PUSH3 0xF33 DUP8 DUP3 DUP9 ADD PUSH3 0xE79 JUMP JUMPDEST SWAP5 POP POP PUSH1 0x20 PUSH3 0xF46 DUP8 DUP3 DUP9 ADD PUSH3 0xEB4 JUMP JUMPDEST SWAP4 POP POP PUSH1 0x40 PUSH3 0xF59 DUP8 DUP3 DUP9 ADD PUSH3 0xEEF JUMP JUMPDEST SWAP3 POP POP PUSH1 0x60 PUSH3 0xF6C DUP8 DUP3 DUP9 ADD PUSH3 0xEB4 JUMP JUMPDEST SWAP2 POP POP SWAP3 SWAP6 SWAP2 SWAP5 POP SWAP3 POP JUMP JUMPDEST PUSH1 0x0 DUP1 REVERT JUMPDEST PUSH1 0x0 PUSH1 0x1F NOT PUSH1 0x1F DUP4 ADD AND SWAP1 POP SWAP2 SWAP1 POP JUMP JUMPDEST PUSH32 0x4E487B7100000000000000000000000000000000000000000000000000000000 PUSH1 0x0 MSTORE PUSH1 0x41 PUSH1 0x4 MSTORE PUSH1 0x24 PUSH1 0x0 REVERT JUMPDEST PUSH3 0xFC8 DUP3 PUSH3 0xF7D JUMP JUMPDEST DUP2 ADD DUP2 DUP2 LT PUSH8 0xFFFFFFFFFFFFFFFF DUP3 GT OR ISZERO PUSH3 0xFEA JUMPI PUSH3 0xFE9 PUSH3 0xF8E JUMP JUMPDEST JUMPDEST DUP1 PUSH1 0x40 MSTORE POP POP POP JUMP JUMPDEST PUSH1 0x0 PUSH3 0xFFF PUSH3 0xD4E JUMP JUMPDEST SWAP1 POP PUSH3 0x100D DUP3 DUP3 PUSH3 0xFBD JUMP JUMPDEST SWAP2 SWAP1 POP JUMP JUMPDEST PUSH1 0x0 PUSH8 0xFFFFFFFFFFFFFFFF DUP3 GT ISZERO PUSH3 0x1030 JUMPI PUSH3 0x102F PUSH3 0xF8E JUMP JUMPDEST JUMPDEST PUSH1 0x20 DUP3 MUL SWAP1 POP PUSH1 0x20 DUP2 ADD SWAP1 POP SWAP2 SWAP1 POP JUMP JUMPDEST PUSH1 0x0 DUP1 REVERT JUMPDEST PUSH1 0x0 PUSH3 0x105D PUSH3 0x1057 DUP5 PUSH3 0x1012 JUMP JUMPDEST PUSH3 0xFF3 JUMP JUMPDEST SWAP1 POP DUP1 DUP4 DUP3 MSTORE PUSH1 0x20 DUP3 ADD SWAP1 POP PUSH1 0x20 DUP5 MUL DUP4 ADD DUP6 DUP2 GT ISZERO PUSH3 0x1083 JUMPI PUSH3 0x1082 PUSH3 0x1041 JUMP JUMPDEST JUMPDEST DUP4 JUMPDEST DUP2 DUP2 LT ISZERO PUSH3 0x10B0 JUMPI DUP1 PUSH3 0x109B DUP9 DUP3 PUSH3 0xE79 JUMP JUMPDEST DUP5 MSTORE PUSH1 0x20 DUP5 ADD SWAP4 POP POP PUSH1 0x20 DUP2 ADD SWAP1 POP PUSH3 0x1085 JUMP JUMPDEST POP POP POP SWAP4 SWAP3 POP POP POP JUMP JUMPDEST PUSH1 0x0 DUP3 PUSH1 0x1F DUP4 ADD SLT PUSH3 0x10D2 JUMPI PUSH3 0x10D1 PUSH3 0xF78 JUMP JUMPDEST JUMPDEST DUP2 CALLDATALOAD PUSH3 0x10E4 DUP5 DUP3 PUSH1 0x20 DUP7 ADD PUSH3 0x1046 JUMP JUMPDEST SWAP2 POP POP SWAP3 SWAP2 POP POP JUMP JUMPDEST PUSH1 0x0 PUSH8 0xFFFFFFFFFFFFFFFF DUP3 GT ISZERO PUSH3 0x110B JUMPI PUSH3 0x110A PUSH3 0xF8E JUMP JUMPDEST JUMPDEST PUSH1 0x20 DUP3 MUL SWAP1 POP PUSH1 0x20 DUP2 ADD SWAP1 POP SWAP2 SWAP1 POP JUMP JUMPDEST PUSH1 0x0 PUSH3 0x1133 PUSH3 0x112D DUP5 PUSH3 0x10ED JUMP JUMPDEST PUSH3 0xFF3 JUMP JUMPDEST SWAP1 POP DUP1 DUP4 DUP3 MSTORE PUSH1 0x20 DUP3 ADD SWAP1 POP PUSH1 0x20 DUP5 MUL DUP4 ADD DUP6 DUP2 GT ISZERO PUSH3 0x1159 JUMPI PUSH3 0x1158 PUSH3 0x1041 JUMP JUMPDEST JUMPDEST DUP4 JUMPDEST DUP2 DUP2 LT ISZERO PUSH3 0x1186 JUMPI DUP1 PUSH3 0x1171 DUP9 DUP3 PUSH3 0xEB4 JUMP JUMPDEST DUP5 MSTORE PUSH1 0x20 DUP5 ADD SWAP4 POP POP PUSH1 0x20 DUP2 ADD SWAP1 POP PUSH3 0x115B JUMP JUMPDEST POP POP POP SWAP4 SWAP3 POP POP POP JUMP JUMPDEST PUSH1 0x0 DUP3 PUSH1 0x1F DUP4 ADD SLT PUSH3 0x11A8 JUMPI PUSH3 0x11A7 PUSH3 0xF78 JUMP JUMPDEST JUMPDEST DUP2 CALLDATALOAD PUSH3 0x11BA DUP5 DUP3 PUSH1 0x20 DUP7 ADD PUSH3 0x111C JUMP JUMPDEST SWAP2 POP POP SWAP3 SWAP2 POP POP JUMP JUMPDEST PUSH1 0x0 DUP1 REVERT JUMPDEST PUSH1 0x0 DUP1 DUP4 PUSH1 0x1F DUP5 ADD SLT PUSH3 0x11E1 JUMPI PUSH3 0x11E0 PUSH3 0xF78 JUMP JUMPDEST JUMPDEST DUP3 CALLDATALOAD SWAP1 POP PUSH8 0xFFFFFFFFFFFFFFFF DUP2 GT ISZERO PUSH3 0x1201 JUMPI PUSH3 0x1200 PUSH3 0x11C3 JUMP JUMPDEST JUMPDEST PUSH1 0x20 DUP4 ADD SWAP2 POP DUP4 PUSH1 0x20 DUP3 MUL DUP4 ADD GT ISZERO PUSH3 0x1220 JUMPI PUSH3 0x121F PUSH3 0x1041 JUMP JUMPDEST JUMPDEST SWAP3 POP SWAP3 SWAP1 POP JUMP JUMPDEST PUSH1 0x0 DUP1 PUSH1 0x0 DUP1 PUSH1 0x0 PUSH1 0x80 DUP7 DUP9 SUB SLT ISZERO PUSH3 0x1246 JUMPI PUSH3 0x1245 PUSH3 0xD58 JUMP JUMPDEST JUMPDEST PUSH1 0x0 DUP7 ADD CALLDATALOAD PUSH8 0xFFFFFFFFFFFFFFFF DUP2 GT ISZERO PUSH3 0x1267 JUMPI PUSH3 0x1266 PUSH3 0xD5D JUMP JUMPDEST JUMPDEST PUSH3 0x1275 DUP9 DUP3 DUP10 ADD PUSH3 0x10BA JUMP JUMPDEST SWAP6 POP POP PUSH1 0x20 PUSH3 0x1288 DUP9 DUP3 DUP10 ADD PUSH3 0xE79 JUMP JUMPDEST SWAP5 POP POP PUSH1 0x40 DUP7 ADD CALLDATALOAD PUSH8 0xFFFFFFFFFFFFFFFF DUP2 GT ISZERO PUSH3 0x12AC JUMPI PUSH3 0x12AB PUSH3 0xD5D JUMP JUMPDEST JUMPDEST PUSH3 0x12BA DUP9 DUP3 DUP10 ADD PUSH3 0x1190 JUMP JUMPDEST SWAP4 POP POP PUSH1 0x60 DUP7 ADD CALLDATALOAD PUSH8 0xFFFFFFFFFFFFFFFF DUP2 GT ISZERO PUSH3 0x12DE JUMPI PUSH3 0x12DD PUSH3 0xD5D JUMP JUMPDEST JUMPDEST PUSH3 0x12EC DUP9 DUP3 DUP10 ADD PUSH3 0x11C8 JUMP JUMPDEST SWAP3 POP SWAP3 POP POP SWAP3 SWAP6 POP SWAP3 SWAP6 SWAP1 SWAP4 POP JUMP JUMPDEST PUSH1 0x0 DUP1 PUSH1 0x40 DUP4 DUP6 SUB SLT ISZERO PUSH3 0x1315 JUMPI PUSH3 0x1314 PUSH3 0xD58 JUMP JUMPDEST JUMPDEST PUSH1 0x0 PUSH3 0x1325 DUP6 DUP3 DUP7 ADD PUSH3 0xE79 JUMP JUMPDEST SWAP3 POP POP PUSH1 0x20 PUSH3 0x1338 DUP6 DUP3 DUP7 ADD PUSH3 0xE79 JUMP JUMPDEST SWAP2 POP POP SWAP3 POP SWAP3 SWAP1 POP JUMP JUMPDEST PUSH3 0x134D DUP2 PUSH3 0xE90 JUMP JUMPDEST DUP3 MSTORE POP POP JUMP JUMPDEST PUSH1 0x0 PUSH1 0x20 DUP3 ADD SWAP1 POP PUSH3 0x136A PUSH1 0x0 DUP4 ADD DUP5 PUSH3 0x1342 JUMP JUMPDEST SWAP3 SWAP2 POP POP JUMP JUMPDEST PUSH1 0x0 DUP2 MLOAD SWAP1 POP SWAP2 SWAP1 POP JUMP JUMPDEST PUSH1 0x0 DUP3 DUP3 MSTORE PUSH1 0x20 DUP3 ADD SWAP1 POP SWAP3 SWAP2 POP POP JUMP JUMPDEST PUSH1 0x0 DUP2 SWAP1 POP PUSH1 0x20 DUP3 ADD SWAP1 POP SWAP2 SWAP1 POP JUMP JUMPDEST PUSH3 0x13A7 DUP2 PUSH3 0xE4B JUMP JUMPDEST DUP3 MSTORE POP POP JUMP JUMPDEST PUSH1 0x0 PUSH3 0x13BB DUP4 DUP4 PUSH3 0x139C JUMP JUMPDEST PUSH1 0x20 DUP4 ADD SWAP1 POP SWAP3 SWAP2 POP POP JUMP JUMPDEST PUSH1 0x0 PUSH1 0x20 DUP3 ADD SWAP1 POP SWAP2 SWAP1 POP JUMP JUMPDEST PUSH1 0x0 PUSH3 0x13E1 DUP3 PUSH3 0x1370 JUMP JUMPDEST PUSH3 0x13ED DUP2 DUP6 PUSH3 0x137B JUMP JUMPDEST SWAP4 POP PUSH3 0x13FA DUP4 PUSH3 0x138C JUMP JUMPDEST DUP1 PUSH1 0x0 JUMPDEST DUP4 DUP2 LT ISZERO PUSH3 0x1431 JUMPI DUP2 MLOAD PUSH3 0x1415 DUP9 DUP3 PUSH3 0x13AD JUMP JUMPDEST SWAP8 POP PUSH3 0x1422 DUP4 PUSH3 0x13C7 JUMP JUMPDEST SWAP3 POP POP PUSH1 0x1 DUP2 ADD SWAP1 POP PUSH3 0x13FE JUMP JUMPDEST POP DUP6 SWAP4 POP POP POP POP SWAP3 SWAP2 POP POP JUMP JUMPDEST PUSH1 0x0 PUSH1 0x20 DUP3 ADD SWAP1 POP DUP2 DUP2 SUB PUSH1 0x0 DUP4 ADD MSTORE PUSH3 0x145A DUP2 DUP5 PUSH3 0x13D4 JUMP JUMPDEST SWAP1 POP SWAP3 SWAP2 POP POP JUMP JUMPDEST PUSH1 0x0 PUSH1 0x20 DUP3 DUP5 SUB SLT ISZERO PUSH3 0x147B JUMPI PUSH3 0x147A PUSH3 0xD58 JUMP JUMPDEST JUMPDEST PUSH1 0x0 PUSH3 0x148B DUP5 DUP3 DUP6 ADD PUSH3 0xEB4 JUMP JUMPDEST SWAP2 POP POP SWAP3 SWAP2 POP POP JUMP JUMPDEST PUSH3 0x149F DUP2 PUSH3 0xE4B JUMP JUMPDEST DUP3 MSTORE POP POP JUMP JUMPDEST PUSH1 0x0 PUSH1 0x20 DUP3 ADD SWAP1 POP PUSH3 0x14BC PUSH1 0x0 DUP4 ADD DUP5 PUSH3 0x1494 JUMP JUMPDEST SWAP3 SWAP2 POP POP JUMP JUMPDEST PUSH1 0x0 DUP1 REVERT JUMPDEST PUSH1 0x0 PUSH8 0xFFFFFFFFFFFFFFFF DUP3 GT ISZERO PUSH3 0x14E5 JUMPI PUSH3 0x14E4 PUSH3 0xF8E JUMP JUMPDEST JUMPDEST PUSH3 0x14F0 DUP3 PUSH3 0xF7D JUMP JUMPDEST SWAP1 POP PUSH1 0x20 DUP2 ADD SWAP1 POP SWAP2 SWAP1 POP JUMP JUMPDEST DUP3 DUP2 DUP4 CALLDATACOPY PUSH1 0x0 DUP4 DUP4 ADD MSTORE POP POP POP JUMP JUMPDEST PUSH1 0x0 PUSH3 0x1523 PUSH3 0x151D DUP5 PUSH3 0x14C7 JUMP JUMPDEST PUSH3 0xFF3 JUMP JUMPDEST SWAP1 POP DUP3 DUP2 MSTORE PUSH1 0x20 DUP2 ADD DUP5 DUP5 DUP5 ADD GT ISZERO PUSH3 0x1542 JUMPI PUSH3 0x1541 PUSH3 0x14C2 JUMP JUMPDEST JUMPDEST PUSH3 0x154F DUP5 DUP3 DUP6 PUSH3 0x14FD JUMP JUMPDEST POP SWAP4 SWAP3 POP POP POP JUMP JUMPDEST PUSH1 0x0 DUP3 PUSH1 0x1F DUP4 ADD SLT PUSH3 0x156F JUMPI PUSH3 0x156E PUSH3 0xF78 JUMP JUMPDEST JUMPDEST DUP2 CALLDATALOAD PUSH3 0x1581 DUP5 DUP3 PUSH1 0x20 DUP7 ADD PUSH3 0x150C JUMP JUMPDEST SWAP2 POP POP SWAP3 SWAP2 POP POP JUMP JUMPDEST PUSH1 0x0 DUP1 PUSH1 0x0 DUP1 PUSH1 0x0 PUSH1 0xA0 DUP7 DUP9 SUB SLT ISZERO PUSH3 0x15A9 JUMPI PUSH3 0x15A8 PUSH3 0xD58 JUMP JUMPDEST JUMPDEST PUSH1 0x0 PUSH3 0x15B9 DUP9 DUP3 DUP10 ADD PUSH3 0xE79 JUMP JUMPDEST SWAP6 POP POP PUSH1 0x20 PUSH3 0x15CC DUP9 DUP3 DUP10 ADD PUSH3 0xE79 JUMP JUMPDEST SWAP5 POP POP PUSH1 0x40 DUP7 ADD CALLDATALOAD PUSH8 0xFFFFFFFFFFFFFFFF DUP2 GT ISZERO PUSH3 0x15F0 JUMPI PUSH3 0x15EF PUSH3 0xD5D JUMP JUMPDEST JUMPDEST PUSH3 0x15FE DUP9 DUP3 DUP10 ADD PUSH3 0x1190 JUMP JUMPDEST SWAP4 POP POP PUSH1 0x60 DUP7 ADD CALLDATALOAD PUSH8 0xFFFFFFFFFFFFFFFF DUP2 GT ISZERO PUSH3 0x1622 JUMPI PUSH3 0x1621 PUSH3 0xD5D JUMP JUMPDEST JUMPDEST PUSH3 0x1630 DUP9 DUP3 DUP10 ADD PUSH3 0x1190 JUMP JUMPDEST SWAP3 POP POP PUSH1 0x80 DUP7 ADD CALLDATALOAD PUSH8 0xFFFFFFFFFFFFFFFF DUP2 GT ISZERO PUSH3 0x1654 JUMPI PUSH3 0x1653 PUSH3 0xD5D JUMP JUMPDEST JUMPDEST PUSH3 0x1662 DUP9 DUP3 DUP10 ADD PUSH3 0x1557 JUMP JUMPDEST SWAP2 POP POP SWAP3 SWAP6 POP SWAP3 SWAP6 SWAP1 SWAP4 POP JUMP JUMPDEST PUSH3 0x167A DUP2 PUSH3 0xD62 JUMP JUMPDEST DUP3 MSTORE POP POP JUMP JUMPDEST PUSH1 0x0 PUSH1 0x20 DUP3 ADD SWAP1 POP PUSH3 0x1697 PUSH1 0x0 DUP4 ADD DUP5 PUSH3 0x166F JUMP JUMPDEST SWAP3 SWAP2 POP POP JUMP JUMPDEST PUSH1 0x0 PUSH1 0x20 DUP3 DUP5 SUB SLT ISZERO PUSH3 0x16B6 JUMPI PUSH3 0x16B5 PUSH3 0xD58 JUMP JUMPDEST JUMPDEST PUSH1 0x0 PUSH3 0x16C6 DUP5 DUP3 DUP6 ADD PUSH3 0xE79 JUMP JUMPDEST SWAP2 POP POP SWAP3 SWAP2 POP POP JUMP JUMPDEST PUSH1 0x0 DUP1 PUSH1 0x0 DUP1 PUSH1 0x0 PUSH1 0xA0 DUP7 DUP9 SUB SLT ISZERO PUSH3 0x16EE JUMPI PUSH3 0x16ED PUSH3 0xD58 JUMP JUMPDEST JUMPDEST PUSH1 0x0 PUSH3 0x16FE DUP9 DUP3 DUP10 ADD PUSH3 0xE79 JUMP JUMPDEST SWAP6 POP POP PUSH1 0x20 PUSH3 0x1711 DUP9 DUP3 DUP10 ADD PUSH3 0xE79 JUMP JUMPDEST SWAP5 POP POP PUSH1 0x40 PUSH3 0x1724 DUP9 DUP3 DUP10 ADD PUSH3 0xEB4 JUMP JUMPDEST SWAP4 POP POP PUSH1 0x60 PUSH3 0x1737 DUP9 DUP3 DUP10 ADD PUSH3 0xEB4 JUMP JUMPDEST SWAP3 POP POP PUSH1 0x80 DUP7 ADD CALLDATALOAD PUSH8 0xFFFFFFFFFFFFFFFF DUP2 GT ISZERO PUSH3 0x175B JUMPI PUSH3 0x175A PUSH3 0xD5D JUMP JUMPDEST JUMPDEST PUSH3 0x1769 DUP9 DUP3 DUP10 ADD PUSH3 0x1557 JUMP JUMPDEST SWAP2 POP POP SWAP3 SWAP6 POP SWAP3 SWAP6 SWAP1 SWAP4 POP JUMP JUMPDEST PUSH1 0x0 PUSH1 0x40 DUP3 ADD SWAP1 POP PUSH3 0x178D PUSH1 0x0 DUP4 ADD DUP6 PUSH3 0x1494 JUMP JUMPDEST PUSH3 0x179C PUSH1 0x20 DUP4 ADD DUP5 PUSH3 0x1342 JUMP JUMPDEST SWAP4 SWAP3 POP POP POP JUMP JUMPDEST PUSH1 0x0 DUP2 MLOAD SWAP1 POP PUSH3 0x17B4 DUP2 PUSH3 0xE9A JUMP JUMPDEST SWAP3 SWAP2 POP POP JUMP JUMPDEST PUSH1 0x0 PUSH1 0x20 DUP3 DUP5 SUB SLT ISZERO PUSH3 0x17D3 JUMPI PUSH3 0x17D2 PUSH3 0xD58 JUMP JUMPDEST JUMPDEST PUSH1 0x0 PUSH3 0x17E3 DUP5 DUP3 DUP6 ADD PUSH3 0x17A3 JUMP JUMPDEST SWAP2 POP POP SWAP3 SWAP2 POP POP JUMP JUMPDEST PUSH1 0x0 DUP3 DUP3 MSTORE PUSH1 0x20 DUP3 ADD SWAP1 POP SWAP3 SWAP2 POP POP JUMP JUMPDEST PUSH32 0x4E66744D65726B6C654469737472696275746F723A20496E7375666669636965 PUSH1 0x0 DUP3 ADD MSTORE PUSH32 0x6E742062616C616E636500000000000000000000000000000000000000000000 PUSH1 0x20 DUP3 ADD MSTORE POP JUMP JUMPDEST PUSH1 0x0 PUSH3 0x185B PUSH1 0x2A DUP4 PUSH3 0x17EC JUMP JUMPDEST SWAP2 POP PUSH3 0x1868 DUP3 PUSH3 0x17FD JUMP JUMPDEST PUSH1 0x40 DUP3 ADD SWAP1 POP SWAP2 SWAP1 POP JUMP JUMPDEST PUSH1 0x0 PUSH1 0x20 DUP3 ADD SWAP1 POP DUP2 DUP2 SUB PUSH1 0x0 DUP4 ADD MSTORE PUSH3 0x188E DUP2 PUSH3 0x184C JUMP JUMPDEST SWAP1 POP SWAP2 SWAP1 POP JUMP JUMPDEST PUSH32 0x4E66744D65726B6C654469737472696275746F7220666F72207468697320746F PUSH1 0x0 DUP3 ADD MSTORE PUSH32 0x6B656E20697320616C7265616479206465706C6F796564000000000000000000 PUSH1 0x20 DUP3 ADD MSTORE POP JUMP JUMPDEST PUSH1 0x0 PUSH3 0x18F3 PUSH1 0x37 DUP4 PUSH3 0x17EC JUMP JUMPDEST SWAP2 POP PUSH3 0x1900 DUP3 PUSH3 0x1895 JUMP JUMPDEST PUSH1 0x40 DUP3 ADD SWAP1 POP SWAP2 SWAP1 POP JUMP JUMPDEST PUSH1 0x0 PUSH1 0x20 DUP3 ADD SWAP1 POP DUP2 DUP2 SUB PUSH1 0x0 DUP4 ADD MSTORE PUSH3 0x1926 DUP2 PUSH3 0x18E4 JUMP JUMPDEST SWAP1 POP SWAP2 SWAP1 POP JUMP JUMPDEST PUSH1 0x0 DUP3 DUP3 MSTORE PUSH1 0x20 DUP3 ADD SWAP1 POP SWAP3 SWAP2 POP POP JUMP JUMPDEST POP JUMP JUMPDEST PUSH1 0x0 PUSH3 0x1950 PUSH1 0x0 DUP4 PUSH3 0x192D JUMP JUMPDEST SWAP2 POP PUSH3 0x195D DUP3 PUSH3 0x193E JUMP JUMPDEST PUSH1 0x0 DUP3 ADD SWAP1 POP SWAP2 SWAP1 POP JUMP JUMPDEST PUSH1 0x0 PUSH1 0xA0 DUP3 ADD SWAP1 POP PUSH3 0x197F PUSH1 0x0 DUP4 ADD DUP8 PUSH3 0x1494 JUMP JUMPDEST PUSH3 0x198E PUSH1 0x20 DUP4 ADD DUP7 PUSH3 0x1494 JUMP JUMPDEST PUSH3 0x199D PUSH1 0x40 DUP4 ADD DUP6 PUSH3 0x1342 JUMP JUMPDEST PUSH3 0x19AC PUSH1 0x60 DUP4 ADD DUP5 PUSH3 0x1342 JUMP JUMPDEST DUP2 DUP2 SUB PUSH1 0x80 DUP4 ADD MSTORE PUSH3 0x19BF DUP2 PUSH3 0x1941 JUMP JUMPDEST SWAP1 POP SWAP6 SWAP5 POP POP POP POP POP JUMP JUMPDEST PUSH3 0x19D5 DUP2 PUSH3 0xECB JUMP JUMPDEST DUP3 MSTORE POP POP JUMP JUMPDEST PUSH1 0x0 PUSH1 0x80 DUP3 ADD SWAP1 POP PUSH3 0x19F2 PUSH1 0x0 DUP4 ADD DUP8 PUSH3 0x1494 JUMP JUMPDEST PUSH3 0x1A01 PUSH1 0x20 DUP4 ADD DUP7 PUSH3 0x1342 JUMP JUMPDEST PUSH3 0x1A10 PUSH1 0x40 DUP4 ADD DUP6 PUSH3 0x19CA JUMP JUMPDEST PUSH3 0x1A1F PUSH1 0x60 DUP4 ADD DUP5 PUSH3 0x1342 JUMP JUMPDEST SWAP6 SWAP5 POP POP POP POP POP JUMP JUMPDEST PUSH32 0x4172726179206C656E677468206D69736D617463680000000000000000000000 PUSH1 0x0 DUP3 ADD MSTORE POP JUMP JUMPDEST PUSH1 0x0 PUSH3 0x1A60 PUSH1 0x15 DUP4 PUSH3 0x17EC JUMP JUMPDEST SWAP2 POP PUSH3 0x1A6D DUP3 PUSH3 0x1A28 JUMP JUMPDEST PUSH1 0x20 DUP3 ADD SWAP1 POP SWAP2 SWAP1 POP JUMP JUMPDEST PUSH1 0x0 PUSH1 0x20 DUP3 ADD SWAP1 POP DUP2 DUP2 SUB PUSH1 0x0 DUP4 ADD MSTORE PUSH3 0x1A93 DUP2 PUSH3 0x1A51 JUMP JUMPDEST SWAP1 POP SWAP2 SWAP1 POP JUMP JUMPDEST PUSH32 0x4E487B7100000000000000000000000000000000000000000000000000000000 PUSH1 0x0 MSTORE PUSH1 0x32 PUSH1 0x4 MSTORE PUSH1 0x24 PUSH1 0x0 REVERT JUMPDEST PUSH1 0x0 DUP1 REVERT JUMPDEST PUSH1 0x0 DUP1 REVERT JUMPDEST PUSH1 0x0 DUP1 REVERT JUMPDEST PUSH1 0x0 DUP1 DUP4 CALLDATALOAD PUSH1 0x1 PUSH1 0x20 SUB DUP5 CALLDATASIZE SUB SUB DUP2 SLT PUSH3 0x1AF8 JUMPI PUSH3 0x1AF7 PUSH3 0x1AC9 JUMP JUMPDEST JUMPDEST DUP1 DUP5 ADD SWAP3 POP DUP3 CALLDATALOAD SWAP2 POP PUSH8 0xFFFFFFFFFFFFFFFF DUP3 GT ISZERO PUSH3 0x1B1D JUMPI PUSH3 0x1B1C PUSH3 0x1ACE JUMP JUMPDEST JUMPDEST PUSH1 0x20 DUP4 ADD SWAP3 POP PUSH1 0x20 DUP3 MUL CALLDATASIZE SUB DUP4 SGT ISZERO PUSH3 0x1B3C JUMPI PUSH3 0x1B3B PUSH3 0x1AD3 JUMP JUMPDEST JUMPDEST POP SWAP3 POP SWAP3 SWAP1 POP JUMP JUMPDEST PUSH32 0x496E76616C6964206469737472696275746F7220636F6E747261637400000000 PUSH1 0x0 DUP3 ADD MSTORE POP JUMP JUMPDEST PUSH1 0x0 PUSH3 0x1B7C PUSH1 0x1C DUP4 PUSH3 0x17EC JUMP JUMPDEST SWAP2 POP PUSH3 0x1B89 DUP3 PUSH3 0x1B44 JUMP JUMPDEST PUSH1 0x20 DUP3 ADD SWAP1 POP SWAP2 SWAP1 POP JUMP JUMPDEST PUSH1 0x0 PUSH1 0x20 DUP3 ADD SWAP1 POP DUP2 DUP2 SUB PUSH1 0x0 DUP4 ADD MSTORE PUSH3 0x1BAF DUP2 PUSH3 0x1B6D JUMP JUMPDEST SWAP1 POP SWAP2 SWAP1 POP JUMP JUMPDEST PUSH1 0x0 DUP2 MLOAD SWAP1 POP PUSH3 0x1BC7 DUP2 PUSH3 0xE5F JUMP JUMPDEST SWAP3 SWAP2 POP POP JUMP JUMPDEST PUSH1 0x0 PUSH1 0x20 DUP3 DUP5 SUB SLT ISZERO PUSH3 0x1BE6 JUMPI PUSH3 0x1BE5 PUSH3 0xD58 JUMP JUMPDEST JUMPDEST PUSH1 0x0 PUSH3 0x1BF6 DUP5 DUP3 DUP6 ADD PUSH3 0x1BB6 JUMP JUMPDEST SWAP2 POP POP SWAP3 SWAP2 POP POP JUMP JUMPDEST PUSH32 0x496E73756666696369656E7420746F6B656E2062616C616E636520666F722064 PUSH1 0x0 DUP3 ADD MSTORE PUSH32 0x69737472696275746F7200000000000000000000000000000000000000000000 PUSH1 0x20 DUP3 ADD MSTORE POP JUMP JUMPDEST PUSH1 0x0 PUSH3 0x1C5D PUSH1 0x2A DUP4 PUSH3 0x17EC JUMP JUMPDEST SWAP2 POP PUSH3 0x1C6A DUP3 PUSH3 0x1BFF JUMP JUMPDEST PUSH1 0x40 DUP3 ADD SWAP1 POP SWAP2 SWAP1 POP JUMP JUMPDEST PUSH1 0x0 PUSH1 0x20 DUP3 ADD SWAP1 POP DUP2 DUP2 SUB PUSH1 0x0 DUP4 ADD MSTORE PUSH3 0x1C90 DUP2 PUSH3 0x1C4E JUMP JUMPDEST SWAP1 POP SWAP2 SWAP1 POP JUMP JUMPDEST PUSH32 0x4E487B7100000000000000000000000000000000000000000000000000000000 PUSH1 0x0 MSTORE PUSH1 0x11 PUSH1 0x4 MSTORE PUSH1 0x24 PUSH1 0x0 REVERT JUMPDEST PUSH1 0x0 PUSH3 0x1CD3 DUP3 PUSH3 0xE90 JUMP JUMPDEST SWAP2 POP PUSH3 0x1CE0 DUP4 PUSH3 0xE90 JUMP JUMPDEST SWAP3 POP DUP3 DUP3 SUB SWAP1 POP DUP2 DUP2 GT ISZERO PUSH3 0x1CFB JUMPI PUSH3 0x1CFA PUSH3 0x1C97 JUMP JUMPDEST JUMPDEST SWAP3 SWAP2 POP POP JUMP JUMPDEST PUSH1 0x0 DUP3 DUP3 MSTORE PUSH1 0x20 DUP3 ADD SWAP1 POP SWAP3 SWAP2 POP POP JUMP JUMPDEST PUSH1 0x0 DUP1 REVERT JUMPDEST DUP3 DUP2 DUP4 CALLDATACOPY POP POP POP JUMP JUMPDEST PUSH1 0x0 PUSH3 0x1D2E DUP4 DUP6 PUSH3 0x1D01 JUMP JUMPDEST SWAP4 POP PUSH32 0x7FFFFFFFFFFFFFFFFFFFFFFFFFFFFFFFFFFFFFFFFFFFFFFFFFFFFFFFFFFFFFF DUP4 GT ISZERO PUSH3 0x1D64 JUMPI PUSH3 0x1D63 PUSH3 0x1D12 JUMP JUMPDEST JUMPDEST PUSH1 0x20 DUP4 MUL SWAP3 POP PUSH3 0x1D77 DUP4 DUP6 DUP5 PUSH3 0x1D17 JUMP JUMPDEST DUP3 DUP5 ADD SWAP1 POP SWAP4 SWAP3 POP POP POP JUMP JUMPDEST PUSH1 0x0 PUSH1 0x60 DUP3 ADD SWAP1 POP PUSH3 0x1D9A PUSH1 0x0 DUP4 ADD DUP8 PUSH3 0x1494 JUMP JUMPDEST PUSH3 0x1DA9 PUSH1 0x20 DUP4 ADD DUP7 PUSH3 0x1342 JUMP JUMPDEST DUP2 DUP2 SUB PUSH1 0x40 DUP4 ADD MSTORE PUSH3 0x1DBE DUP2 DUP5 DUP7 PUSH3 0x1D20 JUMP JUMPDEST SWAP1 POP SWAP6 SWAP5 POP POP POP POP POP JUMP JUMPDEST PUSH1 0x0 PUSH3 0x1DD6 DUP3 PUSH3 0xE90 JUMP JUMPDEST SWAP2 POP PUSH32 0xFFFFFFFFFFFFFFFFFFFFFFFFFFFFFFFFFFFFFFFFFFFFFFFFFFFFFFFFFFFFFFFF DUP3 SUB PUSH3 0x1E0B JUMPI PUSH3 0x1E0A PUSH3 0x1C97 JUMP JUMPDEST JUMPDEST PUSH1 0x1 DUP3 ADD SWAP1 POP SWAP2 SWAP1 POP JUMP INVALID PUSH1 0x80 PUSH1 0x40 MSTORE CALLVALUE DUP1 ISZERO PUSH3 0x11 JUMPI PUSH1 0x0 DUP1 REVERT JUMPDEST POP PUSH1 0x40 MLOAD PUSH3 0x116C CODESIZE SUB DUP1 PUSH3 0x116C DUP4 CODECOPY DUP2 DUP2 ADD PUSH1 0x40 MSTORE DUP2 ADD SWAP1 PUSH3 0x37 SWAP2 SWAP1 PUSH3 0x176 JUMP JUMPDEST DUP4 PUSH1 0x0 DUP1 PUSH2 0x100 EXP DUP2 SLOAD DUP2 PUSH20 0xFFFFFFFFFFFFFFFFFFFFFFFFFFFFFFFFFFFFFFFF MUL NOT AND SWAP1 DUP4 PUSH20 0xFFFFFFFFFFFFFFFFFFFFFFFFFFFFFFFFFFFFFFFF AND MUL OR SWAP1 SSTORE POP DUP3 PUSH1 0x2 DUP2 SWAP1 SSTORE POP DUP2 PUSH1 0x1 DUP2 SWAP1 SSTORE POP DUP1 PUSH1 0x4 DUP2 SWAP1 SSTORE POP POP POP POP POP PUSH3 0x1E8 JUMP JUMPDEST PUSH1 0x0 DUP1 REVERT JUMPDEST PUSH1 0x0 PUSH20 0xFFFFFFFFFFFFFFFFFFFFFFFFFFFFFFFFFFFFFFFF DUP3 AND SWAP1 POP SWAP2 SWAP1 POP JUMP JUMPDEST PUSH1 0x0 PUSH3 0xC8 DUP3 PUSH3 0x9B JUMP JUMPDEST SWAP1 POP SWAP2 SWAP1 POP JUMP JUMPDEST PUSH3 0xDA DUP2 PUSH3 0xBB JUMP JUMPDEST DUP2 EQ PUSH3 0xE6 JUMPI PUSH1 0x0 DUP1 REVERT JUMPDEST POP JUMP JUMPDEST PUSH1 0x0 DUP2 MLOAD SWAP1 POP PUSH3 0xFA DUP2 PUSH3 0xCF JUMP JUMPDEST SWAP3 SWAP2 POP POP JUMP JUMPDEST PUSH1 0x0 DUP2 SWAP1 POP SWAP2 SWAP1 POP JUMP JUMPDEST PUSH3 0x115 DUP2 PUSH3 0x100 JUMP JUMPDEST DUP2 EQ PUSH3 0x121 JUMPI PUSH1 0x0 DUP1 REVERT JUMPDEST POP JUMP JUMPDEST PUSH1 0x0 DUP2 MLOAD SWAP1 POP PUSH3 0x135 DUP2 PUSH3 0x10A JUMP JUMPDEST SWAP3 SWAP2 POP POP JUMP JUMPDEST PUSH1 0x0 DUP2 SWAP1 POP SWAP2 SWAP1 POP JUMP JUMPDEST PUSH3 0x150 DUP2 PUSH3 0x13B JUMP JUMPDEST DUP2 EQ PUSH3 0x15C JUMPI PUSH1 0x0 DUP1 REVERT JUMPDEST POP JUMP JUMPDEST PUSH1 0x0 DUP2 MLOAD SWAP1 POP PUSH3 0x170 DUP2 PUSH3 0x145 JUMP JUMPDEST SWAP3 SWAP2 POP POP JUMP JUMPDEST PUSH1 0x0 DUP1 PUSH1 0x0 DUP1 PUSH1 0x80 DUP6 DUP8 SUB SLT ISZERO PUSH3 0x193 JUMPI PUSH3 0x192 PUSH3 0x96 JUMP JUMPDEST JUMPDEST PUSH1 0x0 PUSH3 0x1A3 DUP8 DUP3 DUP9 ADD PUSH3 0xE9 JUMP JUMPDEST SWAP5 POP POP PUSH1 0x20 PUSH3 0x1B6 DUP8 DUP3 DUP9 ADD PUSH3 0x124 JUMP JUMPDEST SWAP4 POP POP PUSH1 0x40 PUSH3 0x1C9 DUP8 DUP3 DUP9 ADD PUSH3 0x15F JUMP JUMPDEST SWAP3 POP POP PUSH1 0x60 PUSH3 0x1DC DUP8 DUP3 DUP9 ADD PUSH3 0x124 JUMP JUMPDEST SWAP2 POP POP SWAP3 SWAP6 SWAP2 SWAP5 POP SWAP3 POP JUMP JUMPDEST PUSH2 0xF74 DUP1 PUSH3 0x1F8 PUSH1 0x0 CODECOPY PUSH1 0x0 RETURN INVALID PUSH1 0x80 PUSH1 0x40 MSTORE CALLVALUE DUP1 ISZERO PUSH2 0x10 JUMPI PUSH1 0x0 DUP1 REVERT JUMPDEST POP PUSH1 0x4 CALLDATASIZE LT PUSH2 0x88 JUMPI PUSH1 0x0 CALLDATALOAD PUSH1 0xE0 SHR DUP1 PUSH4 0x46C7B298 GT PUSH2 0x5B JUMPI DUP1 PUSH4 0x46C7B298 EQ PUSH2 0x115 JUMPI DUP1 PUSH4 0xBC197C81 EQ PUSH2 0x133 JUMPI DUP1 PUSH4 0xF23A6E61 EQ PUSH2 0x163 JUMPI DUP1 PUSH4 0xFC0C546A EQ PUSH2 0x193 JUMPI PUSH2 0x88 JUMP JUMPDEST DUP1 PUSH4 0x1FFC9A7 EQ PUSH2 0x8D JUMPI DUP1 PUSH4 0x17D70F7C EQ PUSH2 0xBD JUMPI DUP1 PUSH4 0x2EB4A7AB EQ PUSH2 0xDB JUMPI DUP1 PUSH4 0x3D13F874 EQ PUSH2 0xF9 JUMPI JUMPDEST PUSH1 0x0 DUP1 REVERT JUMPDEST PUSH2 0xA7 PUSH1 0x4 DUP1 CALLDATASIZE SUB DUP2 ADD SWAP1 PUSH2 0xA2 SWAP2 SWAP1 PUSH2 0x679 JUMP JUMPDEST PUSH2 0x1B1 JUMP JUMPDEST PUSH1 0x40 MLOAD PUSH2 0xB4 SWAP2 SWAP1 PUSH2 0x6C1 JUMP JUMPDEST PUSH1 0x40 MLOAD DUP1 SWAP2 SUB SWAP1 RETURN JUMPDEST PUSH2 0xC5 PUSH2 0x22B JUMP JUMPDEST PUSH1 0x40 MLOAD PUSH2 0xD2 SWAP2 SWAP1 PUSH2 0x6F5 JUMP JUMPDEST PUSH1 0x40 MLOAD DUP1 SWAP2 SUB SWAP1 RETURN JUMPDEST PUSH2 0xE3 PUSH2 0x231 JUMP JUMPDEST PUSH1 0x40 MLOAD PUSH2 0xF0 SWAP2 SWAP1 PUSH2 0x729 JUMP JUMPDEST PUSH1 0x40 MLOAD DUP1 SWAP2 SUB SWAP1 RETURN JUMPDEST PUSH2 0x113 PUSH1 0x4 DUP1 CALLDATASIZE SUB DUP2 ADD SWAP1 PUSH2 0x10E SWAP2 SWAP1 PUSH2 0x833 JUMP JUMPDEST PUSH2 0x237 JUMP JUMPDEST STOP JUMPDEST PUSH2 0x11D PUSH2 0x4A0 JUMP JUMPDEST PUSH1 0x40 MLOAD PUSH2 0x12A SWAP2 SWAP1 PUSH2 0x6F5 JUMP JUMPDEST PUSH1 0x40 MLOAD DUP1 SWAP2 SUB SWAP1 RETURN JUMPDEST PUSH2 0x14D PUSH1 0x4 DUP1 CALLDATASIZE SUB DUP2 ADD SWAP1 PUSH2 0x148 SWAP2 SWAP1 PUSH2 0xAAB JUMP JUMPDEST PUSH2 0x4A6 JUMP JUMPDEST PUSH1 0x40 MLOAD PUSH2 0x15A SWAP2 SWAP1 PUSH2 0xB89 JUMP JUMPDEST PUSH1 0x40 MLOAD DUP1 SWAP2 SUB SWAP1 RETURN JUMPDEST PUSH2 0x17D PUSH1 0x4 DUP1 CALLDATASIZE SUB DUP2 ADD SWAP1 PUSH2 0x178 SWAP2 SWAP1 PUSH2 0xBA4 JUMP JUMPDEST PUSH2 0x4BB JUMP JUMPDEST PUSH1 0x40 MLOAD PUSH2 0x18A SWAP2 SWAP1 PUSH2 0xB89 JUMP JUMPDEST PUSH1 0x40 MLOAD DUP1 SWAP2 SUB SWAP1 RETURN JUMPDEST PUSH2 0x19B PUSH2 0x4D0 JUMP JUMPDEST PUSH1 0x40 MLOAD PUSH2 0x1A8 SWAP2 SWAP1 PUSH2 0xC4A JUMP JUMPDEST PUSH1 0x40 MLOAD DUP1 SWAP2 SUB SWAP1 RETURN JUMPDEST PUSH1 0x0 PUSH32 0x4E2312E000000000000000000000000000000000000000000000000000000000 PUSH28 0xFFFFFFFFFFFFFFFFFFFFFFFFFFFFFFFFFFFFFFFFFFFFFFFFFFFFFFFF NOT AND DUP3 PUSH28 0xFFFFFFFFFFFFFFFFFFFFFFFFFFFFFFFFFFFFFFFFFFFFFFFFFFFFFFFF NOT AND EQ DUP1 PUSH2 0x224 JUMPI POP PUSH2 0x223 DUP3 PUSH2 0x4F4 JUMP JUMPDEST JUMPDEST SWAP1 POP SWAP2 SWAP1 POP JUMP JUMPDEST PUSH1 0x2 SLOAD DUP2 JUMP JUMPDEST PUSH1 0x1 SLOAD DUP2 JUMP JUMPDEST PUSH1 0x0 PUSH1 0x3 PUSH1 0x0 DUP7 PUSH20 0xFFFFFFFFFFFFFFFFFFFFFFFFFFFFFFFFFFFFFFFF AND PUSH20 0xFFFFFFFFFFFFFFFFFFFFFFFFFFFFFFFFFFFFFFFF AND DUP2 MSTORE PUSH1 0x20 ADD SWAP1 DUP2 MSTORE PUSH1 0x20 ADD PUSH1 0x0 KECCAK256 SLOAD EQ PUSH2 0x2B9 JUMPI PUSH1 0x40 MLOAD PUSH32 0x8C379A000000000000000000000000000000000000000000000000000000000 DUP2 MSTORE PUSH1 0x4 ADD PUSH2 0x2B0 SWAP1 PUSH2 0xCE8 JUMP JUMPDEST PUSH1 0x40 MLOAD DUP1 SWAP2 SUB SWAP1 REVERT JUMPDEST PUSH1 0x0 DUP5 DUP5 PUSH1 0x40 MLOAD PUSH1 0x20 ADD PUSH2 0x2CE SWAP3 SWAP2 SWAP1 PUSH2 0xD71 JUMP JUMPDEST PUSH1 0x40 MLOAD PUSH1 0x20 DUP2 DUP4 SUB SUB DUP2 MSTORE SWAP1 PUSH1 0x40 MSTORE DUP1 MLOAD SWAP1 PUSH1 0x20 ADD KECCAK256 SWAP1 POP PUSH2 0x334 DUP4 DUP4 DUP1 DUP1 PUSH1 0x20 MUL PUSH1 0x20 ADD PUSH1 0x40 MLOAD SWAP1 DUP2 ADD PUSH1 0x40 MSTORE DUP1 SWAP4 SWAP3 SWAP2 SWAP1 DUP2 DUP2 MSTORE PUSH1 0x20 ADD DUP4 DUP4 PUSH1 0x20 MUL DUP1 DUP3 DUP5 CALLDATACOPY PUSH1 0x0 DUP2 DUP5 ADD MSTORE PUSH1 0x1F NOT PUSH1 0x1F DUP3 ADD AND SWAP1 POP DUP1 DUP4 ADD SWAP3 POP POP POP POP POP POP POP PUSH1 0x1 SLOAD DUP4 PUSH2 0x55E JUMP JUMPDEST PUSH2 0x373 JUMPI PUSH1 0x40 MLOAD PUSH32 0x8C379A000000000000000000000000000000000000000000000000000000000 DUP2 MSTORE PUSH1 0x4 ADD PUSH2 0x36A SWAP1 PUSH2 0xDE9 JUMP JUMPDEST PUSH1 0x40 MLOAD DUP1 SWAP2 SUB SWAP1 REVERT JUMPDEST PUSH1 0x1 PUSH1 0x3 PUSH1 0x0 DUP8 PUSH20 0xFFFFFFFFFFFFFFFFFFFFFFFFFFFFFFFFFFFFFFFF AND PUSH20 0xFFFFFFFFFFFFFFFFFFFFFFFFFFFFFFFFFFFFFFFF AND DUP2 MSTORE PUSH1 0x20 ADD SWAP1 DUP2 MSTORE PUSH1 0x20 ADD PUSH1 0x0 KECCAK256 DUP2 SWAP1 SSTORE POP PUSH1 0x0 DUP1 SLOAD SWAP1 PUSH2 0x100 EXP SWAP1 DIV PUSH20 0xFFFFFFFFFFFFFFFFFFFFFFFFFFFFFFFFFFFFFFFF AND PUSH20 0xFFFFFFFFFFFFFFFFFFFFFFFFFFFFFFFFFFFFFFFF AND PUSH4 0xF242432A ADDRESS DUP8 PUSH1 0x2 SLOAD DUP9 PUSH1 0x40 MLOAD DUP6 PUSH4 0xFFFFFFFF AND PUSH1 0xE0 SHL DUP2 MSTORE PUSH1 0x4 ADD PUSH2 0x419 SWAP5 SWAP4 SWAP3 SWAP2 SWAP1 PUSH2 0xE40 JUMP JUMPDEST PUSH1 0x0 PUSH1 0x40 MLOAD DUP1 DUP4 SUB DUP2 PUSH1 0x0 DUP8 DUP1 EXTCODESIZE ISZERO DUP1 ISZERO PUSH2 0x433 JUMPI PUSH1 0x0 DUP1 REVERT JUMPDEST POP GAS CALL ISZERO DUP1 ISZERO PUSH2 0x447 JUMPI RETURNDATASIZE PUSH1 0x0 DUP1 RETURNDATACOPY RETURNDATASIZE PUSH1 0x0 REVERT JUMPDEST POP POP POP POP DUP5 PUSH20 0xFFFFFFFFFFFFFFFFFFFFFFFFFFFFFFFFFFFFFFFF AND PUSH32 0xD8138F8A3F377C5259CA548E70E4C2DE94F129F5A11036A15B69513CBA2B426A DUP6 PUSH1 0x40 MLOAD PUSH2 0x491 SWAP2 SWAP1 PUSH2 0x6F5 JUMP JUMPDEST PUSH1 0x40 MLOAD DUP1 SWAP2 SUB SWAP1 LOG2 POP POP POP POP POP JUMP JUMPDEST PUSH1 0x4 SLOAD DUP2 JUMP JUMPDEST PUSH1 0x0 PUSH4 0xBC197C81 PUSH1 0xE0 SHL SWAP1 POP SWAP6 SWAP5 POP POP POP POP POP JUMP JUMPDEST PUSH1 0x0 PUSH4 0xF23A6E61 PUSH1 0xE0 SHL SWAP1 POP SWAP6 SWAP5 POP POP POP POP POP JUMP JUMPDEST PUSH1 0x0 DUP1 SLOAD SWAP1 PUSH2 0x100 EXP SWAP1 DIV PUSH20 0xFFFFFFFFFFFFFFFFFFFFFFFFFFFFFFFFFFFFFFFF AND DUP2 JUMP JUMPDEST PUSH1 0x0 PUSH32 0x1FFC9A700000000000000000000000000000000000000000000000000000000 PUSH28 0xFFFFFFFFFFFFFFFFFFFFFFFFFFFFFFFFFFFFFFFFFFFFFFFFFFFFFFFF NOT AND DUP3 PUSH28 0xFFFFFFFFFFFFFFFFFFFFFFFFFFFFFFFFFFFFFFFFFFFFFFFFFFFFFFFF NOT AND EQ SWAP1 POP SWAP2 SWAP1 POP JUMP JUMPDEST PUSH1 0x0 DUP3 PUSH2 0x56B DUP6 DUP5 PUSH2 0x575 JUMP JUMPDEST EQ SWAP1 POP SWAP4 SWAP3 POP POP POP JUMP JUMPDEST PUSH1 0x0 DUP1 DUP3 SWAP1 POP PUSH1 0x0 JUMPDEST DUP5 MLOAD DUP2 LT ISZERO PUSH2 0x5C0 JUMPI PUSH2 0x5AB DUP3 DUP7 DUP4 DUP2 MLOAD DUP2 LT PUSH2 0x59E JUMPI PUSH2 0x59D PUSH2 0xE98 JUMP JUMPDEST JUMPDEST PUSH1 0x20 MUL PUSH1 0x20 ADD ADD MLOAD PUSH2 0x5CB JUMP JUMPDEST SWAP2 POP DUP1 DUP1 PUSH2 0x5B8 SWAP1 PUSH2 0xEF6 JUMP JUMPDEST SWAP2 POP POP PUSH2 0x57E JUMP JUMPDEST POP DUP1 SWAP2 POP POP SWAP3 SWAP2 POP POP JUMP JUMPDEST PUSH1 0x0 DUP2 DUP4 LT PUSH2 0x5E3 JUMPI PUSH2 0x5DE DUP3 DUP5 PUSH2 0x5F6 JUMP JUMPDEST PUSH2 0x5EE JUMP JUMPDEST PUSH2 0x5ED DUP4 DUP4 PUSH2 0x5F6 JUMP JUMPDEST JUMPDEST SWAP1 POP SWAP3 SWAP2 POP POP JUMP JUMPDEST PUSH1 0x0 DUP3 PUSH1 0x0 MSTORE DUP2 PUSH1 0x20 MSTORE PUSH1 0x40 PUSH1 0x0 KECCAK256 SWAP1 POP SWAP3 SWAP2 POP POP JUMP JUMPDEST PUSH1 0x0 PUSH1 0x40 MLOAD SWAP1 POP SWAP1 JUMP JUMPDEST PUSH1 0x0 DUP1 REVERT JUMPDEST PUSH1 0x0 DUP1 REVERT JUMPDEST PUSH1 0x0 PUSH32 0xFFFFFFFF00000000000000000000000000000000000000000000000000000000 DUP3 AND SWAP1 POP SWAP2 SWAP1 POP JUMP JUMPDEST PUSH2 0x656 DUP2 PUSH2 0x621 JUMP JUMPDEST DUP2 EQ PUSH2 0x661 JUMPI PUSH1 0x0 DUP1 REVERT JUMPDEST POP JUMP JUMPDEST PUSH1 0x0 DUP2 CALLDATALOAD SWAP1 POP PUSH2 0x673 DUP2 PUSH2 0x64D JUMP JUMPDEST SWAP3 SWAP2 POP POP JUMP JUMPDEST PUSH1 0x0 PUSH1 0x20 DUP3 DUP5 SUB SLT ISZERO PUSH2 0x68F JUMPI PUSH2 0x68E PUSH2 0x617 JUMP JUMPDEST JUMPDEST PUSH1 0x0 PUSH2 0x69D DUP5 DUP3 DUP6 ADD PUSH2 0x664 JUMP JUMPDEST SWAP2 POP POP SWAP3 SWAP2 POP POP JUMP JUMPDEST PUSH1 0x0 DUP2 ISZERO ISZERO SWAP1 POP SWAP2 SWAP1 POP JUMP JUMPDEST PUSH2 0x6BB DUP2 PUSH2 0x6A6 JUMP JUMPDEST DUP3 MSTORE POP POP JUMP JUMPDEST PUSH1 0x0 PUSH1 0x20 DUP3 ADD SWAP1 POP PUSH2 0x6D6 PUSH1 0x0 DUP4 ADD DUP5 PUSH2 0x6B2 JUMP JUMPDEST SWAP3 SWAP2 POP POP JUMP JUMPDEST PUSH1 0x0 DUP2 SWAP1 POP SWAP2 SWAP1 POP JUMP JUMPDEST PUSH2 0x6EF DUP2 PUSH2 0x6DC JUMP JUMPDEST DUP3 MSTORE POP POP JUMP JUMPDEST PUSH1 0x0 PUSH1 0x20 DUP3 ADD SWAP1 POP PUSH2 0x70A PUSH1 0x0 DUP4 ADD DUP5 PUSH2 0x6E6 JUMP JUMPDEST SWAP3 SWAP2 POP POP JUMP JUMPDEST PUSH1 0x0 DUP2 SWAP1 POP SWAP2 SWAP1 POP JUMP JUMPDEST PUSH2 0x723 DUP2 PUSH2 0x710 JUMP JUMPDEST DUP3 MSTORE POP POP JUMP JUMPDEST PUSH1 0x0 PUSH1 0x20 DUP3 ADD SWAP1 POP PUSH2 0x73E PUSH1 0x0 DUP4 ADD DUP5 PUSH2 0x71A JUMP JUMPDEST SWAP3 SWAP2 POP POP JUMP JUMPDEST PUSH1 0x0 PUSH20 0xFFFFFFFFFFFFFFFFFFFFFFFFFFFFFFFFFFFFFFFF DUP3 AND SWAP1 POP SWAP2 SWAP1 POP JUMP JUMPDEST PUSH1 0x0 PUSH2 0x76F DUP3 PUSH2 0x744 JUMP JUMPDEST SWAP1 POP SWAP2 SWAP1 POP JUMP JUMPDEST PUSH2 0x77F DUP2 PUSH2 0x764 JUMP JUMPDEST DUP2 EQ PUSH2 0x78A JUMPI PUSH1 0x0 DUP1 REVERT JUMPDEST POP JUMP JUMPDEST PUSH1 0x0 DUP2 CALLDATALOAD SWAP1 POP PUSH2 0x79C DUP2 PUSH2 0x776 JUMP JUMPDEST SWAP3 SWAP2 POP POP JUMP JUMPDEST PUSH2 0x7AB DUP2 PUSH2 0x6DC JUMP JUMPDEST DUP2 EQ PUSH2 0x7B6 JUMPI PUSH1 0x0 DUP1 REVERT JUMPDEST POP JUMP JUMPDEST PUSH1 0x0 DUP2 CALLDATALOAD SWAP1 POP PUSH2 0x7C8 DUP2 PUSH2 0x7A2 JUMP JUMPDEST SWAP3 SWAP2 POP POP JUMP JUMPDEST PUSH1 0x0 DUP1 REVERT JUMPDEST PUSH1 0x0 DUP1 REVERT JUMPDEST PUSH1 0x0 DUP1 REVERT JUMPDEST PUSH1 0x0 DUP1 DUP4 PUSH1 0x1F DUP5 ADD SLT PUSH2 0x7F3 JUMPI PUSH2 0x7F2 PUSH2 0x7CE JUMP JUMPDEST JUMPDEST DUP3 CALLDATALOAD SWAP1 POP PUSH8 0xFFFFFFFFFFFFFFFF DUP2 GT ISZERO PUSH2 0x810 JUMPI PUSH2 0x80F PUSH2 0x7D3 JUMP JUMPDEST JUMPDEST PUSH1 0x20 DUP4 ADD SWAP2 POP DUP4 PUSH1 0x20 DUP3 MUL DUP4 ADD GT ISZERO PUSH2 0x82C JUMPI PUSH2 0x82B PUSH2 0x7D8 JUMP JUMPDEST JUMPDEST SWAP3 POP SWAP3 SWAP1 POP JUMP JUMPDEST PUSH1 0x0 DUP1 PUSH1 0x0 DUP1 PUSH1 0x60 DUP6 DUP8 SUB SLT ISZERO PUSH2 0x84D JUMPI PUSH2 0x84C PUSH2 0x617 JUMP JUMPDEST JUMPDEST PUSH1 0x0 PUSH2 0x85B DUP8 DUP3 DUP9 ADD PUSH2 0x78D JUMP JUMPDEST SWAP5 POP POP PUSH1 0x20 PUSH2 0x86C DUP8 DUP3 DUP9 ADD PUSH2 0x7B9 JUMP JUMPDEST SWAP4 POP POP PUSH1 0x40 DUP6 ADD CALLDATALOAD PUSH8 0xFFFFFFFFFFFFFFFF DUP2 GT ISZERO PUSH2 0x88D JUMPI PUSH2 0x88C PUSH2 0x61C JUMP JUMPDEST JUMPDEST PUSH2 0x899 DUP8 DUP3 DUP9 ADD PUSH2 0x7DD JUMP JUMPDEST SWAP3 POP SWAP3 POP POP SWAP3 SWAP6 SWAP2 SWAP5 POP SWAP3 POP JUMP JUMPDEST PUSH1 0x0 PUSH1 0x1F NOT PUSH1 0x1F DUP4 ADD AND SWAP1 POP SWAP2 SWAP1 POP JUMP JUMPDEST PUSH32 0x4E487B7100000000000000000000000000000000000000000000000000000000 PUSH1 0x0 MSTORE PUSH1 0x41 PUSH1 0x4 MSTORE PUSH1 0x24 PUSH1 0x0 REVERT JUMPDEST PUSH2 0x8F0 DUP3 PUSH2 0x8A7 JUMP JUMPDEST DUP2 ADD DUP2 DUP2 LT PUSH8 0xFFFFFFFFFFFFFFFF DUP3 GT OR ISZERO PUSH2 0x90F JUMPI PUSH2 0x90E PUSH2 0x8B8 JUMP JUMPDEST JUMPDEST DUP1 PUSH1 0x40 MSTORE POP POP POP JUMP JUMPDEST PUSH1 0x0 PUSH2 0x922 PUSH2 0x60D JUMP JUMPDEST SWAP1 POP PUSH2 0x92E DUP3 DUP3 PUSH2 0x8E7 JUMP JUMPDEST SWAP2 SWAP1 POP JUMP JUMPDEST PUSH1 0x0 PUSH8 0xFFFFFFFFFFFFFFFF DUP3 GT ISZERO PUSH2 0x94E JUMPI PUSH2 0x94D PUSH2 0x8B8 JUMP JUMPDEST JUMPDEST PUSH1 0x20 DUP3 MUL SWAP1 POP PUSH1 0x20 DUP2 ADD SWAP1 POP SWAP2 SWAP1 POP JUMP JUMPDEST PUSH1 0x0 PUSH2 0x972 PUSH2 0x96D DUP5 PUSH2 0x933 JUMP JUMPDEST PUSH2 0x918 JUMP JUMPDEST SWAP1 POP DUP1 DUP4 DUP3 MSTORE PUSH1 0x20 DUP3 ADD SWAP1 POP PUSH1 0x20 DUP5 MUL DUP4 ADD DUP6 DUP2 GT ISZERO PUSH2 0x995 JUMPI PUSH2 0x994 PUSH2 0x7D8 JUMP JUMPDEST JUMPDEST DUP4 JUMPDEST DUP2 DUP2 LT ISZERO PUSH2 0x9BE JUMPI DUP1 PUSH2 0x9AA DUP9 DUP3 PUSH2 0x7B9 JUMP JUMPDEST DUP5 MSTORE PUSH1 0x20 DUP5 ADD SWAP4 POP POP PUSH1 0x20 DUP2 ADD SWAP1 POP PUSH2 0x997 JUMP JUMPDEST POP POP POP SWAP4 SWAP3 POP POP POP JUMP JUMPDEST PUSH1 0x0 DUP3 PUSH1 0x1F DUP4 ADD SLT PUSH2 0x9DD JUMPI PUSH2 0x9DC PUSH2 0x7CE JUMP JUMPDEST JUMPDEST DUP2 CALLDATALOAD PUSH2 0x9ED DUP5 DUP3 PUSH1 0x20 DUP7 ADD PUSH2 0x95F JUMP JUMPDEST SWAP2 POP POP SWAP3 SWAP2 POP POP JUMP JUMPDEST PUSH1 0x0 DUP1 REVERT JUMPDEST PUSH1 0x0 PUSH8 0xFFFFFFFFFFFFFFFF DUP3 GT ISZERO PUSH2 0xA16 JUMPI PUSH2 0xA15 PUSH2 0x8B8 JUMP JUMPDEST JUMPDEST PUSH2 0xA1F DUP3 PUSH2 0x8A7 JUMP JUMPDEST SWAP1 POP PUSH1 0x20 DUP2 ADD SWAP1 POP SWAP2 SWAP1 POP JUMP JUMPDEST DUP3 DUP2 DUP4 CALLDATACOPY PUSH1 0x0 DUP4 DUP4 ADD MSTORE POP POP POP JUMP JUMPDEST PUSH1 0x0 PUSH2 0xA4E PUSH2 0xA49 DUP5 PUSH2 0x9FB JUMP JUMPDEST PUSH2 0x918 JUMP JUMPDEST SWAP1 POP DUP3 DUP2 MSTORE PUSH1 0x20 DUP2 ADD DUP5 DUP5 DUP5 ADD GT ISZERO PUSH2 0xA6A JUMPI PUSH2 0xA69 PUSH2 0x9F6 JUMP JUMPDEST JUMPDEST PUSH2 0xA75 DUP5 DUP3 DUP6 PUSH2 0xA2C JUMP JUMPDEST POP SWAP4 SWAP3 POP POP POP JUMP JUMPDEST PUSH1 0x0 DUP3 PUSH1 0x1F DUP4 ADD SLT PUSH2 0xA92 JUMPI PUSH2 0xA91 PUSH2 0x7CE JUMP JUMPDEST JUMPDEST DUP2 CALLDATALOAD PUSH2 0xAA2 DUP5 DUP3 PUSH1 0x20 DUP7 ADD PUSH2 0xA3B JUMP JUMPDEST SWAP2 POP POP SWAP3 SWAP2 POP POP JUMP JUMPDEST PUSH1 0x0 DUP1 PUSH1 0x0 DUP1 PUSH1 0x0 PUSH1 0xA0 DUP7 DUP9 SUB SLT ISZERO PUSH2 0xAC7 JUMPI PUSH2 0xAC6 PUSH2 0x617 JUMP JUMPDEST JUMPDEST PUSH1 0x0 PUSH2 0xAD5 DUP9 DUP3 DUP10 ADD PUSH2 0x78D JUMP JUMPDEST SWAP6 POP POP PUSH1 0x20 PUSH2 0xAE6 DUP9 DUP3 DUP10 ADD PUSH2 0x78D JUMP JUMPDEST SWAP5 POP POP PUSH1 0x40 DUP7 ADD CALLDATALOAD PUSH8 0xFFFFFFFFFFFFFFFF DUP2 GT ISZERO PUSH2 0xB07 JUMPI PUSH2 0xB06 PUSH2 0x61C JUMP JUMPDEST JUMPDEST PUSH2 0xB13 DUP9 DUP3 DUP10 ADD PUSH2 0x9C8 JUMP JUMPDEST SWAP4 POP POP PUSH1 0x60 DUP7 ADD CALLDATALOAD PUSH8 0xFFFFFFFFFFFFFFFF DUP2 GT ISZERO PUSH2 0xB34 JUMPI PUSH2 0xB33 PUSH2 0x61C JUMP JUMPDEST JUMPDEST PUSH2 0xB40 DUP9 DUP3 DUP10 ADD PUSH2 0x9C8 JUMP JUMPDEST SWAP3 POP POP PUSH1 0x80 DUP7 ADD CALLDATALOAD PUSH8 0xFFFFFFFFFFFFFFFF DUP2 GT ISZERO PUSH2 0xB61 JUMPI PUSH2 0xB60 PUSH2 0x61C JUMP JUMPDEST JUMPDEST PUSH2 0xB6D DUP9 DUP3 DUP10 ADD PUSH2 0xA7D JUMP JUMPDEST SWAP2 POP POP SWAP3 SWAP6 POP SWAP3 SWAP6 SWAP1 SWAP4 POP JUMP JUMPDEST PUSH2 0xB83 DUP2 PUSH2 0x621 JUMP JUMPDEST DUP3 MSTORE POP POP JUMP JUMPDEST PUSH1 0x0 PUSH1 0x20 DUP3 ADD SWAP1 POP PUSH2 0xB9E PUSH1 0x0 DUP4 ADD DUP5 PUSH2 0xB7A JUMP JUMPDEST SWAP3 SWAP2 POP POP JUMP JUMPDEST PUSH1 0x0 DUP1 PUSH1 0x0 DUP1 PUSH1 0x0 PUSH1 0xA0 DUP7 DUP9 SUB SLT ISZERO PUSH2 0xBC0 JUMPI PUSH2 0xBBF PUSH2 0x617 JUMP JUMPDEST JUMPDEST PUSH1 0x0 PUSH2 0xBCE DUP9 DUP3 DUP10 ADD PUSH2 0x78D JUMP JUMPDEST SWAP6 POP POP PUSH1 0x20 PUSH2 0xBDF DUP9 DUP3 DUP10 ADD PUSH2 0x78D JUMP JUMPDEST SWAP5 POP POP PUSH1 0x40 PUSH2 0xBF0 DUP9 DUP3 DUP10 ADD PUSH2 0x7B9 JUMP JUMPDEST SWAP4 POP POP PUSH1 0x60 PUSH2 0xC01 DUP9 DUP3 DUP10 ADD PUSH2 0x7B9 JUMP JUMPDEST SWAP3 POP POP PUSH1 0x80 DUP7 ADD CALLDATALOAD PUSH8 0xFFFFFFFFFFFFFFFF DUP2 GT ISZERO PUSH2 0xC22 JUMPI PUSH2 0xC21 PUSH2 0x61C JUMP JUMPDEST JUMPDEST PUSH2 0xC2E DUP9 DUP3 DUP10 ADD PUSH2 0xA7D JUMP JUMPDEST SWAP2 POP POP SWAP3 SWAP6 POP SWAP3 SWAP6 SWAP1 SWAP4 POP JUMP JUMPDEST PUSH2 0xC44 DUP2 PUSH2 0x764 JUMP JUMPDEST DUP3 MSTORE POP POP JUMP JUMPDEST PUSH1 0x0 PUSH1 0x20 DUP3 ADD SWAP1 POP PUSH2 0xC5F PUSH1 0x0 DUP4 ADD DUP5 PUSH2 0xC3B JUMP JUMPDEST SWAP3 SWAP2 POP POP JUMP JUMPDEST PUSH1 0x0 DUP3 DUP3 MSTORE PUSH1 0x20 DUP3 ADD SWAP1 POP SWAP3 SWAP2 POP POP JUMP JUMPDEST PUSH32 0x4D65726B6C654469737472696275746F723A2044726F7020616C726561647920 PUSH1 0x0 DUP3 ADD MSTORE PUSH32 0x636C61696D656400000000000000000000000000000000000000000000000000 PUSH1 0x20 DUP3 ADD MSTORE POP JUMP JUMPDEST PUSH1 0x0 PUSH2 0xCD2 PUSH1 0x27 DUP4 PUSH2 0xC65 JUMP JUMPDEST SWAP2 POP PUSH2 0xCDD DUP3 PUSH2 0xC76 JUMP JUMPDEST PUSH1 0x40 DUP3 ADD SWAP1 POP SWAP2 SWAP1 POP JUMP JUMPDEST PUSH1 0x0 PUSH1 0x20 DUP3 ADD SWAP1 POP DUP2 DUP2 SUB PUSH1 0x0 DUP4 ADD MSTORE PUSH2 0xD01 DUP2 PUSH2 0xCC5 JUMP JUMPDEST SWAP1 POP SWAP2 SWAP1 POP JUMP JUMPDEST PUSH1 0x0 DUP2 PUSH1 0x60 SHL SWAP1 POP SWAP2 SWAP1 POP JUMP JUMPDEST PUSH1 0x0 PUSH2 0xD20 DUP3 PUSH2 0xD08 JUMP JUMPDEST SWAP1 POP SWAP2 SWAP1 POP JUMP JUMPDEST PUSH1 0x0 PUSH2 0xD32 DUP3 PUSH2 0xD15 JUMP JUMPDEST SWAP1 POP SWAP2 SWAP1 POP JUMP JUMPDEST PUSH2 0xD4A PUSH2 0xD45 DUP3 PUSH2 0x764 JUMP JUMPDEST PUSH2 0xD27 JUMP JUMPDEST DUP3 MSTORE POP POP JUMP JUMPDEST PUSH1 0x0 DUP2 SWAP1 POP SWAP2 SWAP1 POP JUMP JUMPDEST PUSH2 0xD6B PUSH2 0xD66 DUP3 PUSH2 0x6DC JUMP JUMPDEST PUSH2 0xD50 JUMP JUMPDEST DUP3 MSTORE POP POP JUMP JUMPDEST PUSH1 0x0 PUSH2 0xD7D DUP3 DUP6 PUSH2 0xD39 JUMP JUMPDEST PUSH1 0x14 DUP3 ADD SWAP2 POP PUSH2 0xD8D DUP3 DUP5 PUSH2 0xD5A JUMP JUMPDEST PUSH1 0x20 DUP3 ADD SWAP2 POP DUP2 SWAP1 POP SWAP4 SWAP3 POP POP POP JUMP JUMPDEST PUSH32 0x496E76616C69642070726F6F6600000000000000000000000000000000000000 PUSH1 0x0 DUP3 ADD MSTORE POP JUMP JUMPDEST PUSH1 0x0 PUSH2 0xDD3 PUSH1 0xD DUP4 PUSH2 0xC65 JUMP JUMPDEST SWAP2 POP PUSH2 0xDDE DUP3 PUSH2 0xD9D JUMP JUMPDEST PUSH1 0x20 DUP3 ADD SWAP1 POP SWAP2 SWAP1 POP JUMP JUMPDEST PUSH1 0x0 PUSH1 0x20 DUP3 ADD SWAP1 POP DUP2 DUP2 SUB PUSH1 0x0 DUP4 ADD MSTORE PUSH2 0xE02 DUP2 PUSH2 0xDC6 JUMP JUMPDEST SWAP1 POP SWAP2 SWAP1 POP JUMP JUMPDEST PUSH1 0x0 DUP3 DUP3 MSTORE PUSH1 0x20 DUP3 ADD SWAP1 POP SWAP3 SWAP2 POP POP JUMP JUMPDEST POP JUMP JUMPDEST PUSH1 0x0 PUSH2 0xE2A PUSH1 0x0 DUP4 PUSH2 0xE09 JUMP JUMPDEST SWAP2 POP PUSH2 0xE35 DUP3 PUSH2 0xE1A JUMP JUMPDEST PUSH1 0x0 DUP3 ADD SWAP1 POP SWAP2 SWAP1 POP JUMP JUMPDEST PUSH1 0x0 PUSH1 0xA0 DUP3 ADD SWAP1 POP PUSH2 0xE55 PUSH1 0x0 DUP4 ADD DUP8 PUSH2 0xC3B JUMP JUMPDEST PUSH2 0xE62 PUSH1 0x20 DUP4 ADD DUP7 PUSH2 0xC3B JUMP JUMPDEST PUSH2 0xE6F PUSH1 0x40 DUP4 ADD DUP6 PUSH2 0x6E6 JUMP JUMPDEST PUSH2 0xE7C PUSH1 0x60 DUP4 ADD DUP5 PUSH2 0x6E6 JUMP JUMPDEST DUP2 DUP2 SUB PUSH1 0x80 DUP4 ADD MSTORE PUSH2 0xE8D DUP2 PUSH2 0xE1D JUMP JUMPDEST SWAP1 POP SWAP6 SWAP5 POP POP POP POP POP JUMP JUMPDEST PUSH32 0x4E487B7100000000000000000000000000000000000000000000000000000000 PUSH1 0x0 MSTORE PUSH1 0x32 PUSH1 0x4 MSTORE PUSH1 0x24 PUSH1 0x0 REVERT JUMPDEST PUSH32 0x4E487B7100000000000000000000000000000000000000000000000000000000 PUSH1 0x0 MSTORE PUSH1 0x11 PUSH1 0x4 MSTORE PUSH1 0x24 PUSH1 0x0 REVERT JUMPDEST PUSH1 0x0 PUSH2 0xF01 DUP3 PUSH2 0x6DC JUMP JUMPDEST SWAP2 POP PUSH32 0xFFFFFFFFFFFFFFFFFFFFFFFFFFFFFFFFFFFFFFFFFFFFFFFFFFFFFFFFFFFFFFFF DUP3 SUB PUSH2 0xF33 JUMPI PUSH2 0xF32 PUSH2 0xEC7 JUMP JUMPDEST JUMPDEST PUSH1 0x1 DUP3 ADD SWAP1 POP SWAP2 SWAP1 POP JUMP INVALID LOG2 PUSH5 0x6970667358 0x22 SLT KECCAK256 PUSH31 0xB59E42DE8DBB408940162B73B0D8319670E76FE5772F9E8AED7DE0EE7873D6 PUSH5 0x736F6C6343 STOP ADDMOD SGT STOP CALLER LOG2 PUSH5 0x6970667358 0x22 SLT KECCAK256 SWAP1 CALLDATASIZE 0xBF CALLER 0xAE 0xFC 0xBA DUP6 SWAP2 SGT BLOCKHASH PUSH23 0x65E56A559685E58FF452B5D13C99F9957BDCAC6F64736F PUSH13 0x63430008130033000000000000 "},"methodIdentifiers":{"claim(address[],address,uint256[],bytes32[][])":"470f0f86","createMerkleDistributor(address,uint256,bytes32,uint256)":"3849617e","deployedContracts(address)":"c70242ad","deployedContractsList(uint256)":"99ca49eb","getAllDeployedContracts()":"6c9364b2","onERC1155BatchReceived(address,address,uint256[],uint256[],bytes)":"bc197c81","onERC1155Received(address,address,uint256,uint256,bytes)":"f23a6e61","supportsInterface(bytes4)":"01ffc9a7","tokenBalances(address,address)":"4dbf6c5a"}}}}}