{"contracts/NftMerkleDistributor.sol":{"NftMerkleDistributor":{"abi":[{"inputs":[{"internalType":"address","name":"token_","type":"address"},{"internalType":"uint256[]","name":"tokenIds_","type":"uint256[]"},{"internalType":"bytes32","name":"merkleRoot_","type":"bytes32"}],"stateMutability":"nonpayable","type":"constructor"},{"anonymous":false,"inputs":[{"indexed":true,"internalType":"address","name":"_from","type":"address"},{"indexed":false,"internalType":"uint256[]","name":"tokenIds","type":"uint256[]"}],"name":"Claimed","type":"event"},{"inputs":[{"internalType":"address","name":"account","type":"address"},{"internalType":"uint256","name":"tokenId","type":"uint256"},{"internalType":"bytes32[]","name":"merkleProof","type":"bytes32[]"}],"name":"claim","outputs":[],"stateMutability":"nonpayable","type":"function"},{"inputs":[],"name":"merkleRoot","outputs":[{"internalType":"bytes32","name":"","type":"bytes32"}],"stateMutability":"view","type":"function"},{"inputs":[{"internalType":"address","name":"","type":"address"},{"internalType":"address","name":"","type":"address"},{"internalType":"uint256","name":"","type":"uint256"},{"internalType":"bytes","name":"","type":"bytes"}],"name":"onERC721Received","outputs":[{"internalType":"bytes4","name":"","type":"bytes4"}],"stateMutability":"nonpayable","type":"function"},{"inputs":[],"name":"token","outputs":[{"internalType":"address","name":"","type":"address"}],"stateMutability":"view","type":"function"},{"inputs":[{"internalType":"uint256","name":"","type":"uint256"}],"name":"tokenIds","outputs":[{"internalType":"uint256","name":"","type":"uint256"}],"stateMutability":"view","type":"function"}],"evm":{"bytecode":{"linkReferences":{},"object":"60806040523480156200001157600080fd5b506040516200108838038062001088833981810160405281019062000037919062000375565b826000806101000a81548173ffffffffffffffffffffffffffffffffffffffff021916908373ffffffffffffffffffffffffffffffffffffffff16021790555081600290805190602001906200008f929190620000a0565b5080600181905550505050620003f0565b828054828255906000526020600020908101928215620000df579160200282015b82811115620000de578251825591602001919060010190620000c1565b5b509050620000ee9190620000f2565b5090565b5b808211156200010d576000816000905550600101620000f3565b5090565b6000604051905090565b600080fd5b600080fd5b600073ffffffffffffffffffffffffffffffffffffffff82169050919050565b6000620001528262000125565b9050919050565b620001648162000145565b81146200017057600080fd5b50565b600081519050620001848162000159565b92915050565b600080fd5b6000601f19601f8301169050919050565b7f4e487b7100000000000000000000000000000000000000000000000000000000600052604160045260246000fd5b620001da826200018f565b810181811067ffffffffffffffff82111715620001fc57620001fb620001a0565b5b80604052505050565b60006200021162000111565b90506200021f8282620001cf565b919050565b600067ffffffffffffffff821115620002425762000241620001a0565b5b602082029050602081019050919050565b600080fd5b6000819050919050565b6200026d8162000258565b81146200027957600080fd5b50565b6000815190506200028d8162000262565b92915050565b6000620002aa620002a48462000224565b62000205565b90508083825260208201905060208402830185811115620002d057620002cf62000253565b5b835b81811015620002fd5780620002e888826200027c565b845260208401935050602081019050620002d2565b5050509392505050565b600082601f8301126200031f576200031e6200018a565b5b81516200033184826020860162000293565b91505092915050565b6000819050919050565b6200034f816200033a565b81146200035b57600080fd5b50565b6000815190506200036f8162000344565b92915050565b6000806000606084860312156200039157620003906200011b565b5b6000620003a18682870162000173565b935050602084015167ffffffffffffffff811115620003c557620003c462000120565b5b620003d38682870162000307565b9250506040620003e6868287016200035e565b9150509250925092565b610c8880620004006000396000f3fe608060405234801561001057600080fd5b50600436106100575760003560e01c8063150b7a021461005c5780632eb4a7ab1461008c5780633d13f874146100aa578063d58778d6146100c6578063fc0c546a146100f6575b600080fd5b6100766004803603810190610071919061063f565b610114565b60405161008391906106fd565b60405180910390f35b610094610128565b6040516100a19190610731565b60405180910390f35b6100c460048036038101906100bf91906107ac565b61012e565b005b6100e060048036038101906100db9190610820565b61035a565b6040516100ed919061085c565b60405180910390f35b6100fe61037e565b60405161010b9190610886565b60405180910390f35b600063150b7a0260e01b9050949350505050565b60015481565b6003600084815260200190815260200160002060009054906101000a900460ff161561018f576040517f08c379a000000000000000000000000000000000000000000000000000000000815260040161018690610924565b60405180910390fd5b600084846040516020016101a49291906109ad565b60405160208183030381529060405280519060200120905061020a838380806020026020016040519081016040528093929190818152602001838360200280828437600081840152601f19601f82011690508083019250505050505050600154836103a2565b610249576040517f08c379a000000000000000000000000000000000000000000000000000000000815260040161024090610a25565b60405180910390fd5b60016003600086815260200190815260200160002060006101000a81548160ff02191690831515021790555060008054906101000a900473ffffffffffffffffffffffffffffffffffffffff1673ffffffffffffffffffffffffffffffffffffffff166342842e0e3087876040518463ffffffff1660e01b81526004016102d293929190610a45565b600060405180830381600087803b1580156102ec57600080fd5b505af1158015610300573d6000803e3d6000fd5b505050508473ffffffffffffffffffffffffffffffffffffffff167f28ee566bdecaf975c0979f4d09fecf91a9009ffe78523aef053a678134137b8b600260405161034b9190610b8a565b60405180910390a25050505050565b6002818154811061036a57600080fd5b906000526020600020016000915090505481565b60008054906101000a900473ffffffffffffffffffffffffffffffffffffffff1681565b6000826103af85846103b9565b1490509392505050565b60008082905060005b8451811015610404576103ef828683815181106103e2576103e1610bac565b5b602002602001015161040f565b915080806103fc90610c0a565b9150506103c2565b508091505092915050565b600081831061042757610422828461043a565b610432565b610431838361043a565b5b905092915050565b600082600052816020526040600020905092915050565b6000604051905090565b600080fd5b600080fd5b600073ffffffffffffffffffffffffffffffffffffffff82169050919050565b600061049082610465565b9050919050565b6104a081610485565b81146104ab57600080fd5b50565b6000813590506104bd81610497565b92915050565b6000819050919050565b6104d6816104c3565b81146104e157600080fd5b50565b6000813590506104f3816104cd565b92915050565b600080fd5b600080fd5b6000601f19601f8301169050919050565b7f4e487b7100000000000000000000000000000000000000000000000000000000600052604160045260246000fd5b61054c82610503565b810181811067ffffffffffffffff8211171561056b5761056a610514565b5b80604052505050565b600061057e610451565b905061058a8282610543565b919050565b600067ffffffffffffffff8211156105aa576105a9610514565b5b6105b382610503565b9050602081019050919050565b82818337600083830152505050565b60006105e26105dd8461058f565b610574565b9050828152602081018484840111156105fe576105fd6104fe565b5b6106098482856105c0565b509392505050565b600082601f830112610626576106256104f9565b5b81356106368482602086016105cf565b91505092915050565b600080600080608085870312156106595761065861045b565b5b6000610667878288016104ae565b9450506020610678878288016104ae565b9350506040610689878288016104e4565b925050606085013567ffffffffffffffff8111156106aa576106a9610460565b5b6106b687828801610611565b91505092959194509250565b60007fffffffff0000000000000000000000000000000000000000000000000000000082169050919050565b6106f7816106c2565b82525050565b600060208201905061071260008301846106ee565b92915050565b6000819050919050565b61072b81610718565b82525050565b60006020820190506107466000830184610722565b92915050565b600080fd5b600080fd5b60008083601f84011261076c5761076b6104f9565b5b8235905067ffffffffffffffff8111156107895761078861074c565b5b6020830191508360208202830111156107a5576107a4610751565b5b9250929050565b600080600080606085870312156107c6576107c561045b565b5b60006107d4878288016104ae565b94505060206107e5878288016104e4565b935050604085013567ffffffffffffffff81111561080657610805610460565b5b61081287828801610756565b925092505092959194509250565b6000602082840312156108365761083561045b565b5b6000610844848285016104e4565b91505092915050565b610856816104c3565b82525050565b6000602082019050610871600083018461084d565b92915050565b61088081610485565b82525050565b600060208201905061089b6000830184610877565b92915050565b600082825260208201905092915050565b7f4d65726b6c654469737472696275746f723a20546f6b656e20616c726561647960008201527f20636c61696d6564000000000000000000000000000000000000000000000000602082015250565b600061090e6028836108a1565b9150610919826108b2565b604082019050919050565b6000602082019050818103600083015261093d81610901565b9050919050565b60008160601b9050919050565b600061095c82610944565b9050919050565b600061096e82610951565b9050919050565b61098661098182610485565b610963565b82525050565b6000819050919050565b6109a76109a2826104c3565b61098c565b82525050565b60006109b98285610975565b6014820191506109c98284610996565b6020820191508190509392505050565b7f496e76616c69642070726f6f6600000000000000000000000000000000000000600082015250565b6000610a0f600d836108a1565b9150610a1a826109d9565b602082019050919050565b60006020820190508181036000830152610a3e81610a02565b9050919050565b6000606082019050610a5a6000830186610877565b610a676020830185610877565b610a74604083018461084d565b949350505050565b600081549050919050565b600082825260208201905092915050565b60008190508160005260206000209050919050565b610ab6816104c3565b82525050565b6000610ac88383610aad565b60208301905092915050565b60008160001c9050919050565b6000819050919050565b6000610afe610af983610ad4565b610ae1565b9050919050565b6000610b118254610aeb565b9050919050565b6000600182019050919050565b6000610b3082610a7c565b610b3a8185610a87565b9350610b4583610a98565b8060005b83811015610b7d57610b5a82610b05565b610b648882610abc565b9750610b6f83610b18565b925050600181019050610b49565b5085935050505092915050565b60006020820190508181036000830152610ba48184610b25565b905092915050565b7f4e487b7100000000000000000000000000000000000000000000000000000000600052603260045260246000fd5b7f4e487b7100000000000000000000000000000000000000000000000000000000600052601160045260246000fd5b6000610c15826104c3565b91507fffffffffffffffffffffffffffffffffffffffffffffffffffffffffffffffff8203610c4757610c46610bdb565b5b60018201905091905056fea264697066735822122024547ff12f1e09626cbabb41d83183bbb6415c53a65320177c18e43f0a53b97d64736f6c63430008130033","opcodes":"PUSH1 0x80 PUSH1 0x40 MSTORE CALLVALUE DUP1 ISZERO PUSH3 0x11 JUMPI PUSH1 0x0 DUP1 REVERT JUMPDEST POP PUSH1 0x40 MLOAD PUSH3 0x1088 CODESIZE SUB DUP1 PUSH3 0x1088 DUP4 CODECOPY DUP2 DUP2 ADD PUSH1 0x40 MSTORE DUP2 ADD SWAP1 PUSH3 0x37 SWAP2 SWAP1 PUSH3 0x375 JUMP JUMPDEST DUP3 PUSH1 0x0 DUP1 PUSH2 0x100 EXP DUP2 SLOAD DUP2 PUSH20 0xFFFFFFFFFFFFFFFFFFFFFFFFFFFFFFFFFFFFFFFF MUL NOT AND SWAP1 DUP4 PUSH20 0xFFFFFFFFFFFFFFFFFFFFFFFFFFFFFFFFFFFFFFFF AND MUL OR SWAP1 SSTORE POP DUP2 PUSH1 0x2 SWAP1 DUP1 MLOAD SWAP1 PUSH1 0x20 ADD SWAP1 PUSH3 0x8F SWAP3 SWAP2 SWAP1 PUSH3 0xA0 JUMP JUMPDEST POP DUP1 PUSH1 0x1 DUP2 SWAP1 SSTORE POP POP POP POP PUSH3 0x3F0 JUMP JUMPDEST DUP3 DUP1 SLOAD DUP3 DUP3 SSTORE SWAP1 PUSH1 0x0 MSTORE PUSH1 0x20 PUSH1 0x0 KECCAK256 SWAP1 DUP2 ADD SWAP3 DUP3 ISZERO PUSH3 0xDF JUMPI SWAP2 PUSH1 0x20 MUL DUP3 ADD JUMPDEST DUP3 DUP2 GT ISZERO PUSH3 0xDE JUMPI DUP3 MLOAD DUP3 SSTORE SWAP2 PUSH1 0x20 ADD SWAP2 SWAP1 PUSH1 0x1 ADD SWAP1 PUSH3 0xC1 JUMP JUMPDEST JUMPDEST POP SWAP1 POP PUSH3 0xEE SWAP2 SWAP1 PUSH3 0xF2 JUMP JUMPDEST POP SWAP1 JUMP JUMPDEST JUMPDEST DUP1 DUP3 GT ISZERO PUSH3 0x10D JUMPI PUSH1 0x0 DUP2 PUSH1 0x0 SWAP1 SSTORE POP PUSH1 0x1 ADD PUSH3 0xF3 JUMP JUMPDEST POP SWAP1 JUMP JUMPDEST PUSH1 0x0 PUSH1 0x40 MLOAD SWAP1 POP SWAP1 JUMP JUMPDEST PUSH1 0x0 DUP1 REVERT JUMPDEST PUSH1 0x0 DUP1 REVERT JUMPDEST PUSH1 0x0 PUSH20 0xFFFFFFFFFFFFFFFFFFFFFFFFFFFFFFFFFFFFFFFF DUP3 AND SWAP1 POP SWAP2 SWAP1 POP JUMP JUMPDEST PUSH1 0x0 PUSH3 0x152 DUP3 PUSH3 0x125 JUMP JUMPDEST SWAP1 POP SWAP2 SWAP1 POP JUMP JUMPDEST PUSH3 0x164 DUP2 PUSH3 0x145 JUMP JUMPDEST DUP2 EQ PUSH3 0x170 JUMPI PUSH1 0x0 DUP1 REVERT JUMPDEST POP JUMP JUMPDEST PUSH1 0x0 DUP2 MLOAD SWAP1 POP PUSH3 0x184 DUP2 PUSH3 0x159 JUMP JUMPDEST SWAP3 SWAP2 POP POP JUMP JUMPDEST PUSH1 0x0 DUP1 REVERT JUMPDEST PUSH1 0x0 PUSH1 0x1F NOT PUSH1 0x1F DUP4 ADD AND SWAP1 POP SWAP2 SWAP1 POP JUMP JUMPDEST PUSH32 0x4E487B7100000000000000000000000000000000000000000000000000000000 PUSH1 0x0 MSTORE PUSH1 0x41 PUSH1 0x4 MSTORE PUSH1 0x24 PUSH1 0x0 REVERT JUMPDEST PUSH3 0x1DA DUP3 PUSH3 0x18F JUMP JUMPDEST DUP2 ADD DUP2 DUP2 LT PUSH8 0xFFFFFFFFFFFFFFFF DUP3 GT OR ISZERO PUSH3 0x1FC JUMPI PUSH3 0x1FB PUSH3 0x1A0 JUMP JUMPDEST JUMPDEST DUP1 PUSH1 0x40 MSTORE POP POP POP JUMP JUMPDEST PUSH1 0x0 PUSH3 0x211 PUSH3 0x111 JUMP JUMPDEST SWAP1 POP PUSH3 0x21F DUP3 DUP3 PUSH3 0x1CF JUMP JUMPDEST SWAP2 SWAP1 POP JUMP JUMPDEST PUSH1 0x0 PUSH8 0xFFFFFFFFFFFFFFFF DUP3 GT ISZERO PUSH3 0x242 JUMPI PUSH3 0x241 PUSH3 0x1A0 JUMP JUMPDEST JUMPDEST PUSH1 0x20 DUP3 MUL SWAP1 POP PUSH1 0x20 DUP2 ADD SWAP1 POP SWAP2 SWAP1 POP JUMP JUMPDEST PUSH1 0x0 DUP1 REVERT JUMPDEST PUSH1 0x0 DUP2 SWAP1 POP SWAP2 SWAP1 POP JUMP JUMPDEST PUSH3 0x26D DUP2 PUSH3 0x258 JUMP JUMPDEST DUP2 EQ PUSH3 0x279 JUMPI PUSH1 0x0 DUP1 REVERT JUMPDEST POP JUMP JUMPDEST PUSH1 0x0 DUP2 MLOAD SWAP1 POP PUSH3 0x28D DUP2 PUSH3 0x262 JUMP JUMPDEST SWAP3 SWAP2 POP POP JUMP JUMPDEST PUSH1 0x0 PUSH3 0x2AA PUSH3 0x2A4 DUP5 PUSH3 0x224 JUMP JUMPDEST PUSH3 0x205 JUMP JUMPDEST SWAP1 POP DUP1 DUP4 DUP3 MSTORE PUSH1 0x20 DUP3 ADD SWAP1 POP PUSH1 0x20 DUP5 MUL DUP4 ADD DUP6 DUP2 GT ISZERO PUSH3 0x2D0 JUMPI PUSH3 0x2CF PUSH3 0x253 JUMP JUMPDEST JUMPDEST DUP4 JUMPDEST DUP2 DUP2 LT ISZERO PUSH3 0x2FD JUMPI DUP1 PUSH3 0x2E8 DUP9 DUP3 PUSH3 0x27C JUMP JUMPDEST DUP5 MSTORE PUSH1 0x20 DUP5 ADD SWAP4 POP POP PUSH1 0x20 DUP2 ADD SWAP1 POP PUSH3 0x2D2 JUMP JUMPDEST POP POP POP SWAP4 SWAP3 POP POP POP JUMP JUMPDEST PUSH1 0x0 DUP3 PUSH1 0x1F DUP4 ADD SLT PUSH3 0x31F JUMPI PUSH3 0x31E PUSH3 0x18A JUMP JUMPDEST JUMPDEST DUP2 MLOAD PUSH3 0x331 DUP5 DUP3 PUSH1 0x20 DUP7 ADD PUSH3 0x293 JUMP JUMPDEST SWAP2 POP POP SWAP3 SWAP2 POP POP JUMP JUMPDEST PUSH1 0x0 DUP2 SWAP1 POP SWAP2 SWAP1 POP JUMP JUMPDEST PUSH3 0x34F DUP2 PUSH3 0x33A JUMP JUMPDEST DUP2 EQ PUSH3 0x35B JUMPI PUSH1 0x0 DUP1 REVERT JUMPDEST POP JUMP JUMPDEST PUSH1 0x0 DUP2 MLOAD SWAP1 POP PUSH3 0x36F DUP2 PUSH3 0x344 JUMP JUMPDEST SWAP3 SWAP2 POP POP JUMP JUMPDEST PUSH1 0x0 DUP1 PUSH1 0x0 PUSH1 0x60 DUP5 DUP7 SUB SLT ISZERO PUSH3 0x391 JUMPI PUSH3 0x390 PUSH3 0x11B JUMP JUMPDEST JUMPDEST PUSH1 0x0 PUSH3 0x3A1 DUP7 DUP3 DUP8 ADD PUSH3 0x173 JUMP JUMPDEST SWAP4 POP POP PUSH1 0x20 DUP5 ADD MLOAD PUSH8 0xFFFFFFFFFFFFFFFF DUP2 GT ISZERO PUSH3 0x3C5 JUMPI PUSH3 0x3C4 PUSH3 0x120 JUMP JUMPDEST JUMPDEST PUSH3 0x3D3 DUP7 DUP3 DUP8 ADD PUSH3 0x307 JUMP JUMPDEST SWAP3 POP POP PUSH1 0x40 PUSH3 0x3E6 DUP7 DUP3 DUP8 ADD PUSH3 0x35E JUMP JUMPDEST SWAP2 POP POP SWAP3 POP SWAP3 POP SWAP3 JUMP JUMPDEST PUSH2 0xC88 DUP1 PUSH3 0x400 PUSH1 0x0 CODECOPY PUSH1 0x0 RETURN INVALID PUSH1 0x80 PUSH1 0x40 MSTORE CALLVALUE DUP1 ISZERO PUSH2 0x10 JUMPI PUSH1 0x0 DUP1 REVERT JUMPDEST POP PUSH1 0x4 CALLDATASIZE LT PUSH2 0x57 JUMPI PUSH1 0x0 CALLDATALOAD PUSH1 0xE0 SHR DUP1 PUSH4 0x150B7A02 EQ PUSH2 0x5C JUMPI DUP1 PUSH4 0x2EB4A7AB EQ PUSH2 0x8C JUMPI DUP1 PUSH4 0x3D13F874 EQ PUSH2 0xAA JUMPI DUP1 PUSH4 0xD58778D6 EQ PUSH2 0xC6 JUMPI DUP1 PUSH4 0xFC0C546A EQ PUSH2 0xF6 JUMPI JUMPDEST PUSH1 0x0 DUP1 REVERT JUMPDEST PUSH2 0x76 PUSH1 0x4 DUP1 CALLDATASIZE SUB DUP2 ADD SWAP1 PUSH2 0x71 SWAP2 SWAP1 PUSH2 0x63F JUMP JUMPDEST PUSH2 0x114 JUMP JUMPDEST PUSH1 0x40 MLOAD PUSH2 0x83 SWAP2 SWAP1 PUSH2 0x6FD JUMP JUMPDEST PUSH1 0x40 MLOAD DUP1 SWAP2 SUB SWAP1 RETURN JUMPDEST PUSH2 0x94 PUSH2 0x128 JUMP JUMPDEST PUSH1 0x40 MLOAD PUSH2 0xA1 SWAP2 SWAP1 PUSH2 0x731 JUMP JUMPDEST PUSH1 0x40 MLOAD DUP1 SWAP2 SUB SWAP1 RETURN JUMPDEST PUSH2 0xC4 PUSH1 0x4 DUP1 CALLDATASIZE SUB DUP2 ADD SWAP1 PUSH2 0xBF SWAP2 SWAP1 PUSH2 0x7AC JUMP JUMPDEST PUSH2 0x12E JUMP JUMPDEST STOP JUMPDEST PUSH2 0xE0 PUSH1 0x4 DUP1 CALLDATASIZE SUB DUP2 ADD SWAP1 PUSH2 0xDB SWAP2 SWAP1 PUSH2 0x820 JUMP JUMPDEST PUSH2 0x35A JUMP JUMPDEST PUSH1 0x40 MLOAD PUSH2 0xED SWAP2 SWAP1 PUSH2 0x85C JUMP JUMPDEST PUSH1 0x40 MLOAD DUP1 SWAP2 SUB SWAP1 RETURN JUMPDEST PUSH2 0xFE PUSH2 0x37E JUMP JUMPDEST PUSH1 0x40 MLOAD PUSH2 0x10B SWAP2 SWAP1 PUSH2 0x886 JUMP JUMPDEST PUSH1 0x40 MLOAD DUP1 SWAP2 SUB SWAP1 RETURN JUMPDEST PUSH1 0x0 PUSH4 0x150B7A02 PUSH1 0xE0 SHL SWAP1 POP SWAP5 SWAP4 POP POP POP POP JUMP JUMPDEST PUSH1 0x1 SLOAD DUP2 JUMP JUMPDEST PUSH1 0x3 PUSH1 0x0 DUP5 DUP2 MSTORE PUSH1 0x20 ADD SWAP1 DUP2 MSTORE PUSH1 0x20 ADD PUSH1 0x0 KECCAK256 PUSH1 0x0 SWAP1 SLOAD SWAP1 PUSH2 0x100 EXP SWAP1 DIV PUSH1 0xFF AND ISZERO PUSH2 0x18F JUMPI PUSH1 0x40 MLOAD PUSH32 0x8C379A000000000000000000000000000000000000000000000000000000000 DUP2 MSTORE PUSH1 0x4 ADD PUSH2 0x186 SWAP1 PUSH2 0x924 JUMP JUMPDEST PUSH1 0x40 MLOAD DUP1 SWAP2 SUB SWAP1 REVERT JUMPDEST PUSH1 0x0 DUP5 DUP5 PUSH1 0x40 MLOAD PUSH1 0x20 ADD PUSH2 0x1A4 SWAP3 SWAP2 SWAP1 PUSH2 0x9AD JUMP JUMPDEST PUSH1 0x40 MLOAD PUSH1 0x20 DUP2 DUP4 SUB SUB DUP2 MSTORE SWAP1 PUSH1 0x40 MSTORE DUP1 MLOAD SWAP1 PUSH1 0x20 ADD KECCAK256 SWAP1 POP PUSH2 0x20A DUP4 DUP4 DUP1 DUP1 PUSH1 0x20 MUL PUSH1 0x20 ADD PUSH1 0x40 MLOAD SWAP1 DUP2 ADD PUSH1 0x40 MSTORE DUP1 SWAP4 SWAP3 SWAP2 SWAP1 DUP2 DUP2 MSTORE PUSH1 0x20 ADD DUP4 DUP4 PUSH1 0x20 MUL DUP1 DUP3 DUP5 CALLDATACOPY PUSH1 0x0 DUP2 DUP5 ADD MSTORE PUSH1 0x1F NOT PUSH1 0x1F DUP3 ADD AND SWAP1 POP DUP1 DUP4 ADD SWAP3 POP POP POP POP POP POP POP PUSH1 0x1 SLOAD DUP4 PUSH2 0x3A2 JUMP JUMPDEST PUSH2 0x249 JUMPI PUSH1 0x40 MLOAD PUSH32 0x8C379A000000000000000000000000000000000000000000000000000000000 DUP2 MSTORE PUSH1 0x4 ADD PUSH2 0x240 SWAP1 PUSH2 0xA25 JUMP JUMPDEST PUSH1 0x40 MLOAD DUP1 SWAP2 SUB SWAP1 REVERT JUMPDEST PUSH1 0x1 PUSH1 0x3 PUSH1 0x0 DUP7 DUP2 MSTORE PUSH1 0x20 ADD SWAP1 DUP2 MSTORE PUSH1 0x20 ADD PUSH1 0x0 KECCAK256 PUSH1 0x0 PUSH2 0x100 EXP DUP2 SLOAD DUP2 PUSH1 0xFF MUL NOT AND SWAP1 DUP4 ISZERO ISZERO MUL OR SWAP1 SSTORE POP PUSH1 0x0 DUP1 SLOAD SWAP1 PUSH2 0x100 EXP SWAP1 DIV PUSH20 0xFFFFFFFFFFFFFFFFFFFFFFFFFFFFFFFFFFFFFFFF AND PUSH20 0xFFFFFFFFFFFFFFFFFFFFFFFFFFFFFFFFFFFFFFFF AND PUSH4 0x42842E0E ADDRESS DUP8 DUP8 PUSH1 0x40 MLOAD DUP5 PUSH4 0xFFFFFFFF AND PUSH1 0xE0 SHL DUP2 MSTORE PUSH1 0x4 ADD PUSH2 0x2D2 SWAP4 SWAP3 SWAP2 SWAP1 PUSH2 0xA45 JUMP JUMPDEST PUSH1 0x0 PUSH1 0x40 MLOAD DUP1 DUP4 SUB DUP2 PUSH1 0x0 DUP8 DUP1 EXTCODESIZE ISZERO DUP1 ISZERO PUSH2 0x2EC JUMPI PUSH1 0x0 DUP1 REVERT JUMPDEST POP GAS CALL ISZERO DUP1 ISZERO PUSH2 0x300 JUMPI RETURNDATASIZE PUSH1 0x0 DUP1 RETURNDATACOPY RETURNDATASIZE PUSH1 0x0 REVERT JUMPDEST POP POP POP POP DUP5 PUSH20 0xFFFFFFFFFFFFFFFFFFFFFFFFFFFFFFFFFFFFFFFF AND PUSH32 0x28EE566BDECAF975C0979F4D09FECF91A9009FFE78523AEF053A678134137B8B PUSH1 0x2 PUSH1 0x40 MLOAD PUSH2 0x34B SWAP2 SWAP1 PUSH2 0xB8A JUMP JUMPDEST PUSH1 0x40 MLOAD DUP1 SWAP2 SUB SWAP1 LOG2 POP POP POP POP POP JUMP JUMPDEST PUSH1 0x2 DUP2 DUP2 SLOAD DUP2 LT PUSH2 0x36A JUMPI PUSH1 0x0 DUP1 REVERT JUMPDEST SWAP1 PUSH1 0x0 MSTORE PUSH1 0x20 PUSH1 0x0 KECCAK256 ADD PUSH1 0x0 SWAP2 POP SWAP1 POP SLOAD DUP2 JUMP JUMPDEST PUSH1 0x0 DUP1 SLOAD SWAP1 PUSH2 0x100 EXP SWAP1 DIV PUSH20 0xFFFFFFFFFFFFFFFFFFFFFFFFFFFFFFFFFFFFFFFF AND DUP2 JUMP JUMPDEST PUSH1 0x0 DUP3 PUSH2 0x3AF DUP6 DUP5 PUSH2 0x3B9 JUMP JUMPDEST EQ SWAP1 POP SWAP4 SWAP3 POP POP POP JUMP JUMPDEST PUSH1 0x0 DUP1 DUP3 SWAP1 POP PUSH1 0x0 JUMPDEST DUP5 MLOAD DUP2 LT ISZERO PUSH2 0x404 JUMPI PUSH2 0x3EF DUP3 DUP7 DUP4 DUP2 MLOAD DUP2 LT PUSH2 0x3E2 JUMPI PUSH2 0x3E1 PUSH2 0xBAC JUMP JUMPDEST JUMPDEST PUSH1 0x20 MUL PUSH1 0x20 ADD ADD MLOAD PUSH2 0x40F JUMP JUMPDEST SWAP2 POP DUP1 DUP1 PUSH2 0x3FC SWAP1 PUSH2 0xC0A JUMP JUMPDEST SWAP2 POP POP PUSH2 0x3C2 JUMP JUMPDEST POP DUP1 SWAP2 POP POP SWAP3 SWAP2 POP POP JUMP JUMPDEST PUSH1 0x0 DUP2 DUP4 LT PUSH2 0x427 JUMPI PUSH2 0x422 DUP3 DUP5 PUSH2 0x43A JUMP JUMPDEST PUSH2 0x432 JUMP JUMPDEST PUSH2 0x431 DUP4 DUP4 PUSH2 0x43A JUMP JUMPDEST JUMPDEST SWAP1 POP SWAP3 SWAP2 POP POP JUMP JUMPDEST PUSH1 0x0 DUP3 PUSH1 0x0 MSTORE DUP2 PUSH1 0x20 MSTORE PUSH1 0x40 PUSH1 0x0 KECCAK256 SWAP1 POP SWAP3 SWAP2 POP POP JUMP JUMPDEST PUSH1 0x0 PUSH1 0x40 MLOAD SWAP1 POP SWAP1 JUMP JUMPDEST PUSH1 0x0 DUP1 REVERT JUMPDEST PUSH1 0x0 DUP1 REVERT JUMPDEST PUSH1 0x0 PUSH20 0xFFFFFFFFFFFFFFFFFFFFFFFFFFFFFFFFFFFFFFFF DUP3 AND SWAP1 POP SWAP2 SWAP1 POP JUMP JUMPDEST PUSH1 0x0 PUSH2 0x490 DUP3 PUSH2 0x465 JUMP JUMPDEST SWAP1 POP SWAP2 SWAP1 POP JUMP JUMPDEST PUSH2 0x4A0 DUP2 PUSH2 0x485 JUMP JUMPDEST DUP2 EQ PUSH2 0x4AB JUMPI PUSH1 0x0 DUP1 REVERT JUMPDEST POP JUMP JUMPDEST PUSH1 0x0 DUP2 CALLDATALOAD SWAP1 POP PUSH2 0x4BD DUP2 PUSH2 0x497 JUMP JUMPDEST SWAP3 SWAP2 POP POP JUMP JUMPDEST PUSH1 0x0 DUP2 SWAP1 POP SWAP2 SWAP1 POP JUMP JUMPDEST PUSH2 0x4D6 DUP2 PUSH2 0x4C3 JUMP JUMPDEST DUP2 EQ PUSH2 0x4E1 JUMPI PUSH1 0x0 DUP1 REVERT JUMPDEST POP JUMP JUMPDEST PUSH1 0x0 DUP2 CALLDATALOAD SWAP1 POP PUSH2 0x4F3 DUP2 PUSH2 0x4CD JUMP JUMPDEST SWAP3 SWAP2 POP POP JUMP JUMPDEST PUSH1 0x0 DUP1 REVERT JUMPDEST PUSH1 0x0 DUP1 REVERT JUMPDEST PUSH1 0x0 PUSH1 0x1F NOT PUSH1 0x1F DUP4 ADD AND SWAP1 POP SWAP2 SWAP1 POP JUMP JUMPDEST PUSH32 0x4E487B7100000000000000000000000000000000000000000000000000000000 PUSH1 0x0 MSTORE PUSH1 0x41 PUSH1 0x4 MSTORE PUSH1 0x24 PUSH1 0x0 REVERT JUMPDEST PUSH2 0x54C DUP3 PUSH2 0x503 JUMP JUMPDEST DUP2 ADD DUP2 DUP2 LT PUSH8 0xFFFFFFFFFFFFFFFF DUP3 GT OR ISZERO PUSH2 0x56B JUMPI PUSH2 0x56A PUSH2 0x514 JUMP JUMPDEST JUMPDEST DUP1 PUSH1 0x40 MSTORE POP POP POP JUMP JUMPDEST PUSH1 0x0 PUSH2 0x57E PUSH2 0x451 JUMP JUMPDEST SWAP1 POP PUSH2 0x58A DUP3 DUP3 PUSH2 0x543 JUMP JUMPDEST SWAP2 SWAP1 POP JUMP JUMPDEST PUSH1 0x0 PUSH8 0xFFFFFFFFFFFFFFFF DUP3 GT ISZERO PUSH2 0x5AA JUMPI PUSH2 0x5A9 PUSH2 0x514 JUMP JUMPDEST JUMPDEST PUSH2 0x5B3 DUP3 PUSH2 0x503 JUMP JUMPDEST SWAP1 POP PUSH1 0x20 DUP2 ADD SWAP1 POP SWAP2 SWAP1 POP JUMP JUMPDEST DUP3 DUP2 DUP4 CALLDATACOPY PUSH1 0x0 DUP4 DUP4 ADD MSTORE POP POP POP JUMP JUMPDEST PUSH1 0x0 PUSH2 0x5E2 PUSH2 0x5DD DUP5 PUSH2 0x58F JUMP JUMPDEST PUSH2 0x574 JUMP JUMPDEST SWAP1 POP DUP3 DUP2 MSTORE PUSH1 0x20 DUP2 ADD DUP5 DUP5 DUP5 ADD GT ISZERO PUSH2 0x5FE JUMPI PUSH2 0x5FD PUSH2 0x4FE JUMP JUMPDEST JUMPDEST PUSH2 0x609 DUP5 DUP3 DUP6 PUSH2 0x5C0 JUMP JUMPDEST POP SWAP4 SWAP3 POP POP POP JUMP JUMPDEST PUSH1 0x0 DUP3 PUSH1 0x1F DUP4 ADD SLT PUSH2 0x626 JUMPI PUSH2 0x625 PUSH2 0x4F9 JUMP JUMPDEST JUMPDEST DUP2 CALLDATALOAD PUSH2 0x636 DUP5 DUP3 PUSH1 0x20 DUP7 ADD PUSH2 0x5CF JUMP JUMPDEST SWAP2 POP POP SWAP3 SWAP2 POP POP JUMP JUMPDEST PUSH1 0x0 DUP1 PUSH1 0x0 DUP1 PUSH1 0x80 DUP6 DUP8 SUB SLT ISZERO PUSH2 0x659 JUMPI PUSH2 0x658 PUSH2 0x45B JUMP JUMPDEST JUMPDEST PUSH1 0x0 PUSH2 0x667 DUP8 DUP3 DUP9 ADD PUSH2 0x4AE JUMP JUMPDEST SWAP5 POP POP PUSH1 0x20 PUSH2 0x678 DUP8 DUP3 DUP9 ADD PUSH2 0x4AE JUMP JUMPDEST SWAP4 POP POP PUSH1 0x40 PUSH2 0x689 DUP8 DUP3 DUP9 ADD PUSH2 0x4E4 JUMP JUMPDEST SWAP3 POP POP PUSH1 0x60 DUP6 ADD CALLDATALOAD PUSH8 0xFFFFFFFFFFFFFFFF DUP2 GT ISZERO PUSH2 0x6AA JUMPI PUSH2 0x6A9 PUSH2 0x460 JUMP JUMPDEST JUMPDEST PUSH2 0x6B6 DUP8 DUP3 DUP9 ADD PUSH2 0x611 JUMP JUMPDEST SWAP2 POP POP SWAP3 SWAP6 SWAP2 SWAP5 POP SWAP3 POP JUMP JUMPDEST PUSH1 0x0 PUSH32 0xFFFFFFFF00000000000000000000000000000000000000000000000000000000 DUP3 AND SWAP1 POP SWAP2 SWAP1 POP JUMP JUMPDEST PUSH2 0x6F7 DUP2 PUSH2 0x6C2 JUMP JUMPDEST DUP3 MSTORE POP POP JUMP JUMPDEST PUSH1 0x0 PUSH1 0x20 DUP3 ADD SWAP1 POP PUSH2 0x712 PUSH1 0x0 DUP4 ADD DUP5 PUSH2 0x6EE JUMP JUMPDEST SWAP3 SWAP2 POP POP JUMP JUMPDEST PUSH1 0x0 DUP2 SWAP1 POP SWAP2 SWAP1 POP JUMP JUMPDEST PUSH2 0x72B DUP2 PUSH2 0x718 JUMP JUMPDEST DUP3 MSTORE POP POP JUMP JUMPDEST PUSH1 0x0 PUSH1 0x20 DUP3 ADD SWAP1 POP PUSH2 0x746 PUSH1 0x0 DUP4 ADD DUP5 PUSH2 0x722 JUMP JUMPDEST SWAP3 SWAP2 POP POP JUMP JUMPDEST PUSH1 0x0 DUP1 REVERT JUMPDEST PUSH1 0x0 DUP1 REVERT JUMPDEST PUSH1 0x0 DUP1 DUP4 PUSH1 0x1F DUP5 ADD SLT PUSH2 0x76C JUMPI PUSH2 0x76B PUSH2 0x4F9 JUMP JUMPDEST JUMPDEST DUP3 CALLDATALOAD SWAP1 POP PUSH8 0xFFFFFFFFFFFFFFFF DUP2 GT ISZERO PUSH2 0x789 JUMPI PUSH2 0x788 PUSH2 0x74C JUMP JUMPDEST JUMPDEST PUSH1 0x20 DUP4 ADD SWAP2 POP DUP4 PUSH1 0x20 DUP3 MUL DUP4 ADD GT ISZERO PUSH2 0x7A5 JUMPI PUSH2 0x7A4 PUSH2 0x751 JUMP JUMPDEST JUMPDEST SWAP3 POP SWAP3 SWAP1 POP JUMP JUMPDEST PUSH1 0x0 DUP1 PUSH1 0x0 DUP1 PUSH1 0x60 DUP6 DUP8 SUB SLT ISZERO PUSH2 0x7C6 JUMPI PUSH2 0x7C5 PUSH2 0x45B JUMP JUMPDEST JUMPDEST PUSH1 0x0 PUSH2 0x7D4 DUP8 DUP3 DUP9 ADD PUSH2 0x4AE JUMP JUMPDEST SWAP5 POP POP PUSH1 0x20 PUSH2 0x7E5 DUP8 DUP3 DUP9 ADD PUSH2 0x4E4 JUMP JUMPDEST SWAP4 POP POP PUSH1 0x40 DUP6 ADD CALLDATALOAD PUSH8 0xFFFFFFFFFFFFFFFF DUP2 GT ISZERO PUSH2 0x806 JUMPI PUSH2 0x805 PUSH2 0x460 JUMP JUMPDEST JUMPDEST PUSH2 0x812 DUP8 DUP3 DUP9 ADD PUSH2 0x756 JUMP JUMPDEST SWAP3 POP SWAP3 POP POP SWAP3 SWAP6 SWAP2 SWAP5 POP SWAP3 POP JUMP JUMPDEST PUSH1 0x0 PUSH1 0x20 DUP3 DUP5 SUB SLT ISZERO PUSH2 0x836 JUMPI PUSH2 0x835 PUSH2 0x45B JUMP JUMPDEST JUMPDEST PUSH1 0x0 PUSH2 0x844 DUP5 DUP3 DUP6 ADD PUSH2 0x4E4 JUMP JUMPDEST SWAP2 POP POP SWAP3 SWAP2 POP POP JUMP JUMPDEST PUSH2 0x856 DUP2 PUSH2 0x4C3 JUMP JUMPDEST DUP3 MSTORE POP POP JUMP JUMPDEST PUSH1 0x0 PUSH1 0x20 DUP3 ADD SWAP1 POP PUSH2 0x871 PUSH1 0x0 DUP4 ADD DUP5 PUSH2 0x84D JUMP JUMPDEST SWAP3 SWAP2 POP POP JUMP JUMPDEST PUSH2 0x880 DUP2 PUSH2 0x485 JUMP JUMPDEST DUP3 MSTORE POP POP JUMP JUMPDEST PUSH1 0x0 PUSH1 0x20 DUP3 ADD SWAP1 POP PUSH2 0x89B PUSH1 0x0 DUP4 ADD DUP5 PUSH2 0x877 JUMP JUMPDEST SWAP3 SWAP2 POP POP JUMP JUMPDEST PUSH1 0x0 DUP3 DUP3 MSTORE PUSH1 0x20 DUP3 ADD SWAP1 POP SWAP3 SWAP2 POP POP JUMP JUMPDEST PUSH32 0x4D65726B6C654469737472696275746F723A20546F6B656E20616C7265616479 PUSH1 0x0 DUP3 ADD MSTORE PUSH32 0x20636C61696D6564000000000000000000000000000000000000000000000000 PUSH1 0x20 DUP3 ADD MSTORE POP JUMP JUMPDEST PUSH1 0x0 PUSH2 0x90E PUSH1 0x28 DUP4 PUSH2 0x8A1 JUMP JUMPDEST SWAP2 POP PUSH2 0x919 DUP3 PUSH2 0x8B2 JUMP JUMPDEST PUSH1 0x40 DUP3 ADD SWAP1 POP SWAP2 SWAP1 POP JUMP JUMPDEST PUSH1 0x0 PUSH1 0x20 DUP3 ADD SWAP1 POP DUP2 DUP2 SUB PUSH1 0x0 DUP4 ADD MSTORE PUSH2 0x93D DUP2 PUSH2 0x901 JUMP JUMPDEST SWAP1 POP SWAP2 SWAP1 POP JUMP JUMPDEST PUSH1 0x0 DUP2 PUSH1 0x60 SHL SWAP1 POP SWAP2 SWAP1 POP JUMP JUMPDEST PUSH1 0x0 PUSH2 0x95C DUP3 PUSH2 0x944 JUMP JUMPDEST SWAP1 POP SWAP2 SWAP1 POP JUMP JUMPDEST PUSH1 0x0 PUSH2 0x96E DUP3 PUSH2 0x951 JUMP JUMPDEST SWAP1 POP SWAP2 SWAP1 POP JUMP JUMPDEST PUSH2 0x986 PUSH2 0x981 DUP3 PUSH2 0x485 JUMP JUMPDEST PUSH2 0x963 JUMP JUMPDEST DUP3 MSTORE POP POP JUMP JUMPDEST PUSH1 0x0 DUP2 SWAP1 POP SWAP2 SWAP1 POP JUMP JUMPDEST PUSH2 0x9A7 PUSH2 0x9A2 DUP3 PUSH2 0x4C3 JUMP JUMPDEST PUSH2 0x98C JUMP JUMPDEST DUP3 MSTORE POP POP JUMP JUMPDEST PUSH1 0x0 PUSH2 0x9B9 DUP3 DUP6 PUSH2 0x975 JUMP JUMPDEST PUSH1 0x14 DUP3 ADD SWAP2 POP PUSH2 0x9C9 DUP3 DUP5 PUSH2 0x996 JUMP JUMPDEST PUSH1 0x20 DUP3 ADD SWAP2 POP DUP2 SWAP1 POP SWAP4 SWAP3 POP POP POP JUMP JUMPDEST PUSH32 0x496E76616C69642070726F6F6600000000000000000000000000000000000000 PUSH1 0x0 DUP3 ADD MSTORE POP JUMP JUMPDEST PUSH1 0x0 PUSH2 0xA0F PUSH1 0xD DUP4 PUSH2 0x8A1 JUMP JUMPDEST SWAP2 POP PUSH2 0xA1A DUP3 PUSH2 0x9D9 JUMP JUMPDEST PUSH1 0x20 DUP3 ADD SWAP1 POP SWAP2 SWAP1 POP JUMP JUMPDEST PUSH1 0x0 PUSH1 0x20 DUP3 ADD SWAP1 POP DUP2 DUP2 SUB PUSH1 0x0 DUP4 ADD MSTORE PUSH2 0xA3E DUP2 PUSH2 0xA02 JUMP JUMPDEST SWAP1 POP SWAP2 SWAP1 POP JUMP JUMPDEST PUSH1 0x0 PUSH1 0x60 DUP3 ADD SWAP1 POP PUSH2 0xA5A PUSH1 0x0 DUP4 ADD DUP7 PUSH2 0x877 JUMP JUMPDEST PUSH2 0xA67 PUSH1 0x20 DUP4 ADD DUP6 PUSH2 0x877 JUMP JUMPDEST PUSH2 0xA74 PUSH1 0x40 DUP4 ADD DUP5 PUSH2 0x84D JUMP JUMPDEST SWAP5 SWAP4 POP POP POP POP JUMP JUMPDEST PUSH1 0x0 DUP2 SLOAD SWAP1 POP SWAP2 SWAP1 POP JUMP JUMPDEST PUSH1 0x0 DUP3 DUP3 MSTORE PUSH1 0x20 DUP3 ADD SWAP1 POP SWAP3 SWAP2 POP POP JUMP JUMPDEST PUSH1 0x0 DUP2 SWAP1 POP DUP2 PUSH1 0x0 MSTORE PUSH1 0x20 PUSH1 0x0 KECCAK256 SWAP1 POP SWAP2 SWAP1 POP JUMP JUMPDEST PUSH2 0xAB6 DUP2 PUSH2 0x4C3 JUMP JUMPDEST DUP3 MSTORE POP POP JUMP JUMPDEST PUSH1 0x0 PUSH2 0xAC8 DUP4 DUP4 PUSH2 0xAAD JUMP JUMPDEST PUSH1 0x20 DUP4 ADD SWAP1 POP SWAP3 SWAP2 POP POP JUMP JUMPDEST PUSH1 0x0 DUP2 PUSH1 0x0 SHR SWAP1 POP SWAP2 SWAP1 POP JUMP JUMPDEST PUSH1 0x0 DUP2 SWAP1 POP SWAP2 SWAP1 POP JUMP JUMPDEST PUSH1 0x0 PUSH2 0xAFE PUSH2 0xAF9 DUP4 PUSH2 0xAD4 JUMP JUMPDEST PUSH2 0xAE1 JUMP JUMPDEST SWAP1 POP SWAP2 SWAP1 POP JUMP JUMPDEST PUSH1 0x0 PUSH2 0xB11 DUP3 SLOAD PUSH2 0xAEB JUMP JUMPDEST SWAP1 POP SWAP2 SWAP1 POP JUMP JUMPDEST PUSH1 0x0 PUSH1 0x1 DUP3 ADD SWAP1 POP SWAP2 SWAP1 POP JUMP JUMPDEST PUSH1 0x0 PUSH2 0xB30 DUP3 PUSH2 0xA7C JUMP JUMPDEST PUSH2 0xB3A DUP2 DUP6 PUSH2 0xA87 JUMP JUMPDEST SWAP4 POP PUSH2 0xB45 DUP4 PUSH2 0xA98 JUMP JUMPDEST DUP1 PUSH1 0x0 JUMPDEST DUP4 DUP2 LT ISZERO PUSH2 0xB7D JUMPI PUSH2 0xB5A DUP3 PUSH2 0xB05 JUMP JUMPDEST PUSH2 0xB64 DUP9 DUP3 PUSH2 0xABC JUMP JUMPDEST SWAP8 POP PUSH2 0xB6F DUP4 PUSH2 0xB18 JUMP JUMPDEST SWAP3 POP POP PUSH1 0x1 DUP2 ADD SWAP1 POP PUSH2 0xB49 JUMP JUMPDEST POP DUP6 SWAP4 POP POP POP POP SWAP3 SWAP2 POP POP JUMP JUMPDEST PUSH1 0x0 PUSH1 0x20 DUP3 ADD SWAP1 POP DUP2 DUP2 SUB PUSH1 0x0 DUP4 ADD MSTORE PUSH2 0xBA4 DUP2 DUP5 PUSH2 0xB25 JUMP JUMPDEST SWAP1 POP SWAP3 SWAP2 POP POP JUMP JUMPDEST PUSH32 0x4E487B7100000000000000000000000000000000000000000000000000000000 PUSH1 0x0 MSTORE PUSH1 0x32 PUSH1 0x4 MSTORE PUSH1 0x24 PUSH1 0x0 REVERT JUMPDEST PUSH32 0x4E487B7100000000000000000000000000000000000000000000000000000000 PUSH1 0x0 MSTORE PUSH1 0x11 PUSH1 0x4 MSTORE PUSH1 0x24 PUSH1 0x0 REVERT JUMPDEST PUSH1 0x0 PUSH2 0xC15 DUP3 PUSH2 0x4C3 JUMP JUMPDEST SWAP2 POP PUSH32 0xFFFFFFFFFFFFFFFFFFFFFFFFFFFFFFFFFFFFFFFFFFFFFFFFFFFFFFFFFFFFFFFF DUP3 SUB PUSH2 0xC47 JUMPI PUSH2 0xC46 PUSH2 0xBDB JUMP JUMPDEST JUMPDEST PUSH1 0x1 DUP3 ADD SWAP1 POP SWAP2 SWAP1 POP JUMP INVALID LOG2 PUSH5 0x6970667358 0x22 SLT KECCAK256 0x24 SLOAD PUSH32 0xF12F1E09626CBABB41D83183BBB6415C53A65320177C18E43F0A53B97D64736F PUSH13 0x63430008130033000000000000 "},"methodIdentifiers":{"claim(address,uint256,bytes32[])":"3d13f874","merkleRoot()":"2eb4a7ab","onERC721Received(address,address,uint256,bytes)":"150b7a02","token()":"fc0c546a","tokenIds(uint256)":"d58778d6"}}}}}