{
  "_format": "hh-sol-artifact-1",
  "contractName": "NftMerkleDistributorFactory",
  "sourceName": "contracts/NftMerkleDistributorFactory.sol",
  "abi": [
    {
      "anonymous": false,
      "inputs": [
        {
          "indexed": true,
          "internalType": "address",
          "name": "distributor",
          "type": "address"
        },
        {
          "indexed": true,
          "internalType": "address",
          "name": "creator",
          "type": "address"
        },
        {
          "indexed": true,
          "internalType": "address",
          "name": "token",
          "type": "address"
        },
        {
          "indexed": false,
          "internalType": "uint256[]",
          "name": "tokenIds",
          "type": "uint256[]"
        }
      ],
      "name": "NftMerkleDistributorDeployed",
      "type": "event"
    },
    {
      "inputs": [
        {
          "internalType": "address[]",
          "name": "distributors",
          "type": "address[]"
        },
        {
          "internalType": "address",
          "name": "account",
          "type": "address"
        },
        {
          "internalType": "uint256[]",
          "name": "tokenIds",
          "type": "uint256[]"
        },
        {
          "internalType": "bytes32[][]",
          "name": "merkleProofs",
          "type": "bytes32[][]"
        }
      ],
      "name": "claim",
      "outputs": [],
      "stateMutability": "nonpayable",
      "type": "function"
    },
    {
      "inputs": [
        {
          "internalType": "address",
          "name": "token",
          "type": "address"
        },
        {
          "internalType": "uint256[]",
          "name": "tokenIds",
          "type": "uint256[]"
        },
        {
          "internalType": "bytes32",
          "name": "merkleRoot",
          "type": "bytes32"
        }
      ],
      "name": "createMerkleDistributor",
      "outputs": [],
      "stateMutability": "nonpayable",
      "type": "function"
    },
    {
      "inputs": [
        {
          "internalType": "address",
          "name": "",
          "type": "address"
        }
      ],
      "name": "deployedContracts",
      "outputs": [
        {
          "internalType": "bool",
          "name": "",
          "type": "bool"
        }
      ],
      "stateMutability": "view",
      "type": "function"
    },
    {
      "inputs": [
        {
          "internalType": "uint256",
          "name": "",
          "type": "uint256"
        }
      ],
      "name": "deployedContractsList",
      "outputs": [
        {
          "internalType": "address",
          "name": "",
          "type": "address"
        }
      ],
      "stateMutability": "view",
      "type": "function"
    },
    {
      "inputs": [],
      "name": "getAllDeployedContracts",
      "outputs": [
        {
          "internalType": "address[]",
          "name": "",
          "type": "address[]"
        }
      ],
      "stateMutability": "view",
      "type": "function"
    },
    {
      "inputs": [
        {
          "internalType": "address",
          "name": "",
          "type": "address"
        },
        {
          "internalType": "address",
          "name": "",
          "type": "address"
        },
        {
          "internalType": "uint256",
          "name": "",
          "type": "uint256"
        },
        {
          "internalType": "bytes",
          "name": "",
          "type": "bytes"
        }
      ],
      "name": "onERC721Received",
      "outputs": [
        {
          "internalType": "bytes4",
          "name": "",
          "type": "bytes4"
        }
      ],
      "stateMutability": "nonpayable",
      "type": "function"
    }
  ],
  "bytecode": "0x608060405234801561001057600080fd5b506127ad806100206000396000f3fe60806040523480156200001157600080fd5b50600436106200006a5760003560e01c8063150b7a02146200006f578063470f0f8614620000a55780634874498e14620000c55780636c9364b214620000e557806399ca49eb1462000107578063c70242ad146200013d575b600080fd5b6200008d600480360381019062000087919062000abf565b62000173565b6040516200009c919062000b8d565b60405180910390f35b620000c36004803603810190620000bd919062000dbf565b62000187565b005b620000e36004803603810190620000dd919062000ece565b62000371565b005b620000ef620007ab565b604051620000fe919062001017565b60405180910390f35b6200012560048036038101906200011f91906200103b565b6200083b565b6040516200013491906200107e565b60405180910390f35b6200015b60048036038101906200015591906200109b565b6200087b565b6040516200016a9190620010ea565b60405180910390f35b600063150b7a0260e01b9050949350505050565b81819050855114620001d0576040517f08c379a0000000000000000000000000000000000000000000000000000000008152600401620001c79062001168565b60405180910390fd5b60005b855181101562000369576000868281518110620001f557620001f46200118a565b5b602002602001015190503660008585858181106200021857620002176200118a565b5b90506020028101906200022c9190620011c8565b915091506000808473ffffffffffffffffffffffffffffffffffffffff1673ffffffffffffffffffffffffffffffffffffffff16815260200190815260200160002060009054906101000a900460ff16620002be576040517f08c379a0000000000000000000000000000000000000000000000000000000008152600401620002b59062001284565b60405180910390fd5b8273ffffffffffffffffffffffffffffffffffffffff16633d13f87489898781518110620002f157620002f06200118a565b5b602002602001015185856040518563ffffffff1660e01b81526004016200031c949392919062001339565b600060405180830381600087803b1580156200033757600080fd5b505af11580156200034c573d6000803e3d6000fd5b5050505050505080806200036090620013ae565b915050620001d3565b505050505050565b6000825111620003b8576040517f08c379a0000000000000000000000000000000000000000000000000000000008152600401620003af9062001471565b60405180910390fd5b60005b825181101562000577573373ffffffffffffffffffffffffffffffffffffffff168473ffffffffffffffffffffffffffffffffffffffff16636352211e8584815181106200040e576200040d6200118a565b5b60200260200101516040518263ffffffff1660e01b815260040162000434919062001493565b602060405180830381865afa15801562000452573d6000803e3d6000fd5b505050506040513d601f19601f82011682018060405250810190620004789190620014c7565b73ffffffffffffffffffffffffffffffffffffffff1614620004d1576040517f08c379a0000000000000000000000000000000000000000000000000000000008152600401620004c89062001549565b60405180910390fd5b8373ffffffffffffffffffffffffffffffffffffffff166323b872dd33308685815181106200050557620005046200118a565b5b60200260200101516040518463ffffffff1660e01b81526004016200052d939291906200156b565b600060405180830381600087803b1580156200054857600080fd5b505af11580156200055d573d6000803e3d6000fd5b5050505080806200056e90620013ae565b915050620003bb565b5060008383836040516200058b906200089b565b620005999392919062001687565b604051809103906000f080158015620005b6573d6000803e3d6000fd5b50905060005b83518110156200066c578473ffffffffffffffffffffffffffffffffffffffff166323b872dd3084878581518110620005fa57620005f96200118a565b5b60200260200101516040518463ffffffff1660e01b815260040162000622939291906200156b565b600060405180830381600087803b1580156200063d57600080fd5b505af115801562000652573d6000803e3d6000fd5b5050505080806200066390620013ae565b915050620005bc565b5060016000808373ffffffffffffffffffffffffffffffffffffffff1673ffffffffffffffffffffffffffffffffffffffff16815260200190815260200160002060006101000a81548160ff0219169083151502179055506001819080600181540180825580915050600190039060005260206000200160009091909190916101000a81548173ffffffffffffffffffffffffffffffffffffffff021916908373ffffffffffffffffffffffffffffffffffffffff1602179055508373ffffffffffffffffffffffffffffffffffffffff163373ffffffffffffffffffffffffffffffffffffffff168273ffffffffffffffffffffffffffffffffffffffff167f38384e5bc2c41f8c8ad4a4bf0d1978db44bb106399fdea66b3c0f50d9499517a866040516200079d9190620016cb565b60405180910390a450505050565b606060018054806020026020016040519081016040528092919081815260200182805480156200083157602002820191906000526020600020905b8160009054906101000a900473ffffffffffffffffffffffffffffffffffffffff1673ffffffffffffffffffffffffffffffffffffffff1681526020019060010190808311620007e6575b5050505050905090565b600181815481106200084c57600080fd5b906000526020600020016000915054906101000a900473ffffffffffffffffffffffffffffffffffffffff1681565b60006020528060005260406000206000915054906101000a900460ff1681565b61108880620016f083390190565b6000604051905090565b600080fd5b600080fd5b600073ffffffffffffffffffffffffffffffffffffffff82169050919050565b6000620008ea82620008bd565b9050919050565b620008fc81620008dd565b81146200090857600080fd5b50565b6000813590506200091c81620008f1565b92915050565b6000819050919050565b620009378162000922565b81146200094357600080fd5b50565b60008135905062000957816200092c565b92915050565b600080fd5b600080fd5b6000601f19601f8301169050919050565b7f4e487b7100000000000000000000000000000000000000000000000000000000600052604160045260246000fd5b620009b28262000967565b810181811067ffffffffffffffff82111715620009d457620009d362000978565b5b80604052505050565b6000620009e9620008a9565b9050620009f78282620009a7565b919050565b600067ffffffffffffffff82111562000a1a5762000a1962000978565b5b62000a258262000967565b9050602081019050919050565b82818337600083830152505050565b600062000a5862000a5284620009fc565b620009dd565b90508281526020810184848401111562000a775762000a7662000962565b5b62000a8484828562000a32565b509392505050565b600082601f83011262000aa45762000aa36200095d565b5b813562000ab684826020860162000a41565b91505092915050565b6000806000806080858703121562000adc5762000adb620008b3565b5b600062000aec878288016200090b565b945050602062000aff878288016200090b565b935050604062000b128782880162000946565b925050606085013567ffffffffffffffff81111562000b365762000b35620008b8565b5b62000b448782880162000a8c565b91505092959194509250565b60007fffffffff0000000000000000000000000000000000000000000000000000000082169050919050565b62000b878162000b50565b82525050565b600060208201905062000ba4600083018462000b7c565b92915050565b600067ffffffffffffffff82111562000bc85762000bc762000978565b5b602082029050602081019050919050565b600080fd5b600062000bf562000bef8462000baa565b620009dd565b9050808382526020820190506020840283018581111562000c1b5762000c1a62000bd9565b5b835b8181101562000c48578062000c3388826200090b565b84526020840193505060208101905062000c1d565b5050509392505050565b600082601f83011262000c6a5762000c696200095d565b5b813562000c7c84826020860162000bde565b91505092915050565b600067ffffffffffffffff82111562000ca35762000ca262000978565b5b602082029050602081019050919050565b600062000ccb62000cc58462000c85565b620009dd565b9050808382526020820190506020840283018581111562000cf15762000cf062000bd9565b5b835b8181101562000d1e578062000d09888262000946565b84526020840193505060208101905062000cf3565b5050509392505050565b600082601f83011262000d405762000d3f6200095d565b5b813562000d5284826020860162000cb4565b91505092915050565b600080fd5b60008083601f84011262000d795762000d786200095d565b5b8235905067ffffffffffffffff81111562000d995762000d9862000d5b565b5b60208301915083602082028301111562000db85762000db762000bd9565b5b9250929050565b60008060008060006080868803121562000dde5762000ddd620008b3565b5b600086013567ffffffffffffffff81111562000dff5762000dfe620008b8565b5b62000e0d8882890162000c52565b955050602062000e20888289016200090b565b945050604086013567ffffffffffffffff81111562000e445762000e43620008b8565b5b62000e528882890162000d28565b935050606086013567ffffffffffffffff81111562000e765762000e75620008b8565b5b62000e848882890162000d60565b92509250509295509295909350565b6000819050919050565b62000ea88162000e93565b811462000eb457600080fd5b50565b60008135905062000ec88162000e9d565b92915050565b60008060006060848603121562000eea5762000ee9620008b3565b5b600062000efa868287016200090b565b935050602084013567ffffffffffffffff81111562000f1e5762000f1d620008b8565b5b62000f2c8682870162000d28565b925050604062000f3f8682870162000eb7565b9150509250925092565b600081519050919050565b600082825260208201905092915050565b6000819050602082019050919050565b62000f8081620008dd565b82525050565b600062000f94838362000f75565b60208301905092915050565b6000602082019050919050565b600062000fba8262000f49565b62000fc6818562000f54565b935062000fd38362000f65565b8060005b838110156200100a57815162000fee888262000f86565b975062000ffb8362000fa0565b92505060018101905062000fd7565b5085935050505092915050565b6000602082019050818103600083015262001033818462000fad565b905092915050565b600060208284031215620010545762001053620008b3565b5b6000620010648482850162000946565b91505092915050565b6200107881620008dd565b82525050565b60006020820190506200109560008301846200106d565b92915050565b600060208284031215620010b457620010b3620008b3565b5b6000620010c4848285016200090b565b91505092915050565b60008115159050919050565b620010e481620010cd565b82525050565b6000602082019050620011016000830184620010d9565b92915050565b600082825260208201905092915050565b7f4172726179206c656e677468206d69736d617463680000000000000000000000600082015250565b60006200115060158362001107565b91506200115d8262001118565b602082019050919050565b60006020820190508181036000830152620011838162001141565b9050919050565b7f4e487b7100000000000000000000000000000000000000000000000000000000600052603260045260246000fd5b600080fd5b600080fd5b600080fd5b60008083356001602003843603038112620011e857620011e7620011b9565b5b80840192508235915067ffffffffffffffff8211156200120d576200120c620011be565b5b6020830192506020820236038313156200122c576200122b620011c3565b5b509250929050565b7f496e76616c6964206469737472696275746f7220636f6e747261637400000000600082015250565b60006200126c601c8362001107565b9150620012798262001234565b602082019050919050565b600060208201905081810360008301526200129f816200125d565b9050919050565b620012b18162000922565b82525050565b600082825260208201905092915050565b600080fd5b82818337505050565b6000620012e48385620012b7565b93507f07ffffffffffffffffffffffffffffffffffffffffffffffffffffffffffffff8311156200131a5762001319620012c8565b5b6020830292506200132d838584620012cd565b82840190509392505050565b60006060820190506200135060008301876200106d565b6200135f6020830186620012a6565b818103604083015262001374818486620012d6565b905095945050505050565b7f4e487b7100000000000000000000000000000000000000000000000000000000600052601160045260246000fd5b6000620013bb8262000922565b91507fffffffffffffffffffffffffffffffffffffffffffffffffffffffffffffffff8203620013f057620013ef6200137f565b5b600182019050919050565b7f4d7573742070726f76696465206174206c65617374206f6e6520746f6b656e2060008201527f4944000000000000000000000000000000000000000000000000000000000000602082015250565b60006200145960228362001107565b91506200146682620013fb565b604082019050919050565b600060208201905081810360008301526200148c816200144a565b9050919050565b6000602082019050620014aa6000830184620012a6565b92915050565b600081519050620014c181620008f1565b92915050565b600060208284031215620014e057620014df620008b3565b5b6000620014f084828501620014b0565b91505092915050565b7f596f75206d757374206f776e2074686520746f6b656e00000000000000000000600082015250565b60006200153160168362001107565b91506200153e82620014f9565b602082019050919050565b60006020820190508181036000830152620015648162001522565b9050919050565b60006060820190506200158260008301866200106d565b6200159160208301856200106d565b620015a06040830184620012a6565b949350505050565b600081519050919050565b600082825260208201905092915050565b6000819050602082019050919050565b620015df8162000922565b82525050565b6000620015f38383620015d4565b60208301905092915050565b6000602082019050919050565b60006200161982620015a8565b620016258185620015b3565b93506200163283620015c4565b8060005b83811015620016695781516200164d8882620015e5565b97506200165a83620015ff565b92505060018101905062001636565b5085935050505092915050565b620016818162000e93565b82525050565b60006060820190506200169e60008301866200106d565b8181036020830152620016b281856200160c565b9050620016c3604083018462001676565b949350505050565b60006020820190508181036000830152620016e781846200160c565b90509291505056fe60806040523480156200001157600080fd5b506040516200108838038062001088833981810160405281019062000037919062000375565b826000806101000a81548173ffffffffffffffffffffffffffffffffffffffff021916908373ffffffffffffffffffffffffffffffffffffffff16021790555081600290805190602001906200008f929190620000a0565b5080600181905550505050620003f0565b828054828255906000526020600020908101928215620000df579160200282015b82811115620000de578251825591602001919060010190620000c1565b5b509050620000ee9190620000f2565b5090565b5b808211156200010d576000816000905550600101620000f3565b5090565b6000604051905090565b600080fd5b600080fd5b600073ffffffffffffffffffffffffffffffffffffffff82169050919050565b6000620001528262000125565b9050919050565b620001648162000145565b81146200017057600080fd5b50565b600081519050620001848162000159565b92915050565b600080fd5b6000601f19601f8301169050919050565b7f4e487b7100000000000000000000000000000000000000000000000000000000600052604160045260246000fd5b620001da826200018f565b810181811067ffffffffffffffff82111715620001fc57620001fb620001a0565b5b80604052505050565b60006200021162000111565b90506200021f8282620001cf565b919050565b600067ffffffffffffffff821115620002425762000241620001a0565b5b602082029050602081019050919050565b600080fd5b6000819050919050565b6200026d8162000258565b81146200027957600080fd5b50565b6000815190506200028d8162000262565b92915050565b6000620002aa620002a48462000224565b62000205565b90508083825260208201905060208402830185811115620002d057620002cf62000253565b5b835b81811015620002fd5780620002e888826200027c565b845260208401935050602081019050620002d2565b5050509392505050565b600082601f8301126200031f576200031e6200018a565b5b81516200033184826020860162000293565b91505092915050565b6000819050919050565b6200034f816200033a565b81146200035b57600080fd5b50565b6000815190506200036f8162000344565b92915050565b6000806000606084860312156200039157620003906200011b565b5b6000620003a18682870162000173565b935050602084015167ffffffffffffffff811115620003c557620003c462000120565b5b620003d38682870162000307565b9250506040620003e6868287016200035e565b9150509250925092565b610c8880620004006000396000f3fe608060405234801561001057600080fd5b50600436106100575760003560e01c8063150b7a021461005c5780632eb4a7ab1461008c5780633d13f874146100aa578063d58778d6146100c6578063fc0c546a146100f6575b600080fd5b6100766004803603810190610071919061063f565b610114565b60405161008391906106fd565b60405180910390f35b610094610128565b6040516100a19190610731565b60405180910390f35b6100c460048036038101906100bf91906107ac565b61012e565b005b6100e060048036038101906100db9190610820565b61035a565b6040516100ed919061085c565b60405180910390f35b6100fe61037e565b60405161010b9190610886565b60405180910390f35b600063150b7a0260e01b9050949350505050565b60015481565b6003600084815260200190815260200160002060009054906101000a900460ff161561018f576040517f08c379a000000000000000000000000000000000000000000000000000000000815260040161018690610924565b60405180910390fd5b600084846040516020016101a49291906109ad565b60405160208183030381529060405280519060200120905061020a838380806020026020016040519081016040528093929190818152602001838360200280828437600081840152601f19601f82011690508083019250505050505050600154836103a2565b610249576040517f08c379a000000000000000000000000000000000000000000000000000000000815260040161024090610a25565b60405180910390fd5b60016003600086815260200190815260200160002060006101000a81548160ff02191690831515021790555060008054906101000a900473ffffffffffffffffffffffffffffffffffffffff1673ffffffffffffffffffffffffffffffffffffffff166342842e0e3087876040518463ffffffff1660e01b81526004016102d293929190610a45565b600060405180830381600087803b1580156102ec57600080fd5b505af1158015610300573d6000803e3d6000fd5b505050508473ffffffffffffffffffffffffffffffffffffffff167f28ee566bdecaf975c0979f4d09fecf91a9009ffe78523aef053a678134137b8b600260405161034b9190610b8a565b60405180910390a25050505050565b6002818154811061036a57600080fd5b906000526020600020016000915090505481565b60008054906101000a900473ffffffffffffffffffffffffffffffffffffffff1681565b6000826103af85846103b9565b1490509392505050565b60008082905060005b8451811015610404576103ef828683815181106103e2576103e1610bac565b5b602002602001015161040f565b915080806103fc90610c0a565b9150506103c2565b508091505092915050565b600081831061042757610422828461043a565b610432565b610431838361043a565b5b905092915050565b600082600052816020526040600020905092915050565b6000604051905090565b600080fd5b600080fd5b600073ffffffffffffffffffffffffffffffffffffffff82169050919050565b600061049082610465565b9050919050565b6104a081610485565b81146104ab57600080fd5b50565b6000813590506104bd81610497565b92915050565b6000819050919050565b6104d6816104c3565b81146104e157600080fd5b50565b6000813590506104f3816104cd565b92915050565b600080fd5b600080fd5b6000601f19601f8301169050919050565b7f4e487b7100000000000000000000000000000000000000000000000000000000600052604160045260246000fd5b61054c82610503565b810181811067ffffffffffffffff8211171561056b5761056a610514565b5b80604052505050565b600061057e610451565b905061058a8282610543565b919050565b600067ffffffffffffffff8211156105aa576105a9610514565b5b6105b382610503565b9050602081019050919050565b82818337600083830152505050565b60006105e26105dd8461058f565b610574565b9050828152602081018484840111156105fe576105fd6104fe565b5b6106098482856105c0565b509392505050565b600082601f830112610626576106256104f9565b5b81356106368482602086016105cf565b91505092915050565b600080600080608085870312156106595761065861045b565b5b6000610667878288016104ae565b9450506020610678878288016104ae565b9350506040610689878288016104e4565b925050606085013567ffffffffffffffff8111156106aa576106a9610460565b5b6106b687828801610611565b91505092959194509250565b60007fffffffff0000000000000000000000000000000000000000000000000000000082169050919050565b6106f7816106c2565b82525050565b600060208201905061071260008301846106ee565b92915050565b6000819050919050565b61072b81610718565b82525050565b60006020820190506107466000830184610722565b92915050565b600080fd5b600080fd5b60008083601f84011261076c5761076b6104f9565b5b8235905067ffffffffffffffff8111156107895761078861074c565b5b6020830191508360208202830111156107a5576107a4610751565b5b9250929050565b600080600080606085870312156107c6576107c561045b565b5b60006107d4878288016104ae565b94505060206107e5878288016104e4565b935050604085013567ffffffffffffffff81111561080657610805610460565b5b61081287828801610756565b925092505092959194509250565b6000602082840312156108365761083561045b565b5b6000610844848285016104e4565b91505092915050565b610856816104c3565b82525050565b6000602082019050610871600083018461084d565b92915050565b61088081610485565b82525050565b600060208201905061089b6000830184610877565b92915050565b600082825260208201905092915050565b7f4d65726b6c654469737472696275746f723a20546f6b656e20616c726561647960008201527f20636c61696d6564000000000000000000000000000000000000000000000000602082015250565b600061090e6028836108a1565b9150610919826108b2565b604082019050919050565b6000602082019050818103600083015261093d81610901565b9050919050565b60008160601b9050919050565b600061095c82610944565b9050919050565b600061096e82610951565b9050919050565b61098661098182610485565b610963565b82525050565b6000819050919050565b6109a76109a2826104c3565b61098c565b82525050565b60006109b98285610975565b6014820191506109c98284610996565b6020820191508190509392505050565b7f496e76616c69642070726f6f6600000000000000000000000000000000000000600082015250565b6000610a0f600d836108a1565b9150610a1a826109d9565b602082019050919050565b60006020820190508181036000830152610a3e81610a02565b9050919050565b6000606082019050610a5a6000830186610877565b610a676020830185610877565b610a74604083018461084d565b949350505050565b600081549050919050565b600082825260208201905092915050565b60008190508160005260206000209050919050565b610ab6816104c3565b82525050565b6000610ac88383610aad565b60208301905092915050565b60008160001c9050919050565b6000819050919050565b6000610afe610af983610ad4565b610ae1565b9050919050565b6000610b118254610aeb565b9050919050565b6000600182019050919050565b6000610b3082610a7c565b610b3a8185610a87565b9350610b4583610a98565b8060005b83811015610b7d57610b5a82610b05565b610b648882610abc565b9750610b6f83610b18565b925050600181019050610b49565b5085935050505092915050565b60006020820190508181036000830152610ba48184610b25565b905092915050565b7f4e487b7100000000000000000000000000000000000000000000000000000000600052603260045260246000fd5b7f4e487b7100000000000000000000000000000000000000000000000000000000600052601160045260246000fd5b6000610c15826104c3565b91507fffffffffffffffffffffffffffffffffffffffffffffffffffffffffffffffff8203610c4757610c46610bdb565b5b60018201905091905056fea264697066735822122024547ff12f1e09626cbabb41d83183bbb6415c53a65320177c18e43f0a53b97d64736f6c63430008130033a26469706673582212208e3396e2b378992a2f43efc48894e31d09904f12a70a6cd44ead55b6d0e7fd2c64736f6c63430008130033",
  "linkReferences": {},
  "deployedLinkReferences": {}
}