{
  "_format": "hh-sol-artifact-1",
  "contractName": "NftMerkleDistributor",
  "sourceName": "contracts/NftMerkleDistributor.sol",
  "abi": [
    {
      "inputs": [
        {
          "internalType": "address",
          "name": "token_",
          "type": "address"
        },
        {
          "internalType": "uint256[]",
          "name": "tokenIds_",
          "type": "uint256[]"
        },
        {
          "internalType": "bytes32",
          "name": "merkleRoot_",
          "type": "bytes32"
        }
      ],
      "stateMutability": "nonpayable",
      "type": "constructor"
    },
    {
      "anonymous": false,
      "inputs": [
        {
          "indexed": true,
          "internalType": "address",
          "name": "_from",
          "type": "address"
        },
        {
          "indexed": false,
          "internalType": "uint256[]",
          "name": "tokenIds",
          "type": "uint256[]"
        }
      ],
      "name": "Claimed",
      "type": "event"
    },
    {
      "inputs": [
        {
          "internalType": "address",
          "name": "account",
          "type": "address"
        },
        {
          "internalType": "uint256",
          "name": "tokenId",
          "type": "uint256"
        },
        {
          "internalType": "bytes32[]",
          "name": "merkleProof",
          "type": "bytes32[]"
        }
      ],
      "name": "claim",
      "outputs": [],
      "stateMutability": "nonpayable",
      "type": "function"
    },
    {
      "inputs": [],
      "name": "merkleRoot",
      "outputs": [
        {
          "internalType": "bytes32",
          "name": "",
          "type": "bytes32"
        }
      ],
      "stateMutability": "view",
      "type": "function"
    },
    {
      "inputs": [
        {
          "internalType": "address",
          "name": "",
          "type": "address"
        },
        {
          "internalType": "address",
          "name": "",
          "type": "address"
        },
        {
          "internalType": "uint256",
          "name": "",
          "type": "uint256"
        },
        {
          "internalType": "bytes",
          "name": "",
          "type": "bytes"
        }
      ],
      "name": "onERC721Received",
      "outputs": [
        {
          "internalType": "bytes4",
          "name": "",
          "type": "bytes4"
        }
      ],
      "stateMutability": "nonpayable",
      "type": "function"
    },
    {
      "inputs": [],
      "name": "token",
      "outputs": [
        {
          "internalType": "address",
          "name": "",
          "type": "address"
        }
      ],
      "stateMutability": "view",
      "type": "function"
    },
    {
      "inputs": [
        {
          "internalType": "uint256",
          "name": "",
          "type": "uint256"
        }
      ],
      "name": "tokenIds",
      "outputs": [
        {
          "internalType": "uint256",
          "name": "",
          "type": "uint256"
        }
      ],
      "stateMutability": "view",
      "type": "function"
    }
  ],
  "bytecode": "0x60806040523480156200001157600080fd5b506040516200108838038062001088833981810160405281019062000037919062000375565b826000806101000a81548173ffffffffffffffffffffffffffffffffffffffff021916908373ffffffffffffffffffffffffffffffffffffffff16021790555081600290805190602001906200008f929190620000a0565b5080600181905550505050620003f0565b828054828255906000526020600020908101928215620000df579160200282015b82811115620000de578251825591602001919060010190620000c1565b5b509050620000ee9190620000f2565b5090565b5b808211156200010d576000816000905550600101620000f3565b5090565b6000604051905090565b600080fd5b600080fd5b600073ffffffffffffffffffffffffffffffffffffffff82169050919050565b6000620001528262000125565b9050919050565b620001648162000145565b81146200017057600080fd5b50565b600081519050620001848162000159565b92915050565b600080fd5b6000601f19601f8301169050919050565b7f4e487b7100000000000000000000000000000000000000000000000000000000600052604160045260246000fd5b620001da826200018f565b810181811067ffffffffffffffff82111715620001fc57620001fb620001a0565b5b80604052505050565b60006200021162000111565b90506200021f8282620001cf565b919050565b600067ffffffffffffffff821115620002425762000241620001a0565b5b602082029050602081019050919050565b600080fd5b6000819050919050565b6200026d8162000258565b81146200027957600080fd5b50565b6000815190506200028d8162000262565b92915050565b6000620002aa620002a48462000224565b62000205565b90508083825260208201905060208402830185811115620002d057620002cf62000253565b5b835b81811015620002fd5780620002e888826200027c565b845260208401935050602081019050620002d2565b5050509392505050565b600082601f8301126200031f576200031e6200018a565b5b81516200033184826020860162000293565b91505092915050565b6000819050919050565b6200034f816200033a565b81146200035b57600080fd5b50565b6000815190506200036f8162000344565b92915050565b6000806000606084860312156200039157620003906200011b565b5b6000620003a18682870162000173565b935050602084015167ffffffffffffffff811115620003c557620003c462000120565b5b620003d38682870162000307565b9250506040620003e6868287016200035e565b9150509250925092565b610c8880620004006000396000f3fe608060405234801561001057600080fd5b50600436106100575760003560e01c8063150b7a021461005c5780632eb4a7ab1461008c5780633d13f874146100aa578063d58778d6146100c6578063fc0c546a146100f6575b600080fd5b6100766004803603810190610071919061063f565b610114565b60405161008391906106fd565b60405180910390f35b610094610128565b6040516100a19190610731565b60405180910390f35b6100c460048036038101906100bf91906107ac565b61012e565b005b6100e060048036038101906100db9190610820565b61035a565b6040516100ed919061085c565b60405180910390f35b6100fe61037e565b60405161010b9190610886565b60405180910390f35b600063150b7a0260e01b9050949350505050565b60015481565b6003600084815260200190815260200160002060009054906101000a900460ff161561018f576040517f08c379a000000000000000000000000000000000000000000000000000000000815260040161018690610924565b60405180910390fd5b600084846040516020016101a49291906109ad565b60405160208183030381529060405280519060200120905061020a838380806020026020016040519081016040528093929190818152602001838360200280828437600081840152601f19601f82011690508083019250505050505050600154836103a2565b610249576040517f08c379a000000000000000000000000000000000000000000000000000000000815260040161024090610a25565b60405180910390fd5b60016003600086815260200190815260200160002060006101000a81548160ff02191690831515021790555060008054906101000a900473ffffffffffffffffffffffffffffffffffffffff1673ffffffffffffffffffffffffffffffffffffffff166342842e0e3087876040518463ffffffff1660e01b81526004016102d293929190610a45565b600060405180830381600087803b1580156102ec57600080fd5b505af1158015610300573d6000803e3d6000fd5b505050508473ffffffffffffffffffffffffffffffffffffffff167f28ee566bdecaf975c0979f4d09fecf91a9009ffe78523aef053a678134137b8b600260405161034b9190610b8a565b60405180910390a25050505050565b6002818154811061036a57600080fd5b906000526020600020016000915090505481565b60008054906101000a900473ffffffffffffffffffffffffffffffffffffffff1681565b6000826103af85846103b9565b1490509392505050565b60008082905060005b8451811015610404576103ef828683815181106103e2576103e1610bac565b5b602002602001015161040f565b915080806103fc90610c0a565b9150506103c2565b508091505092915050565b600081831061042757610422828461043a565b610432565b610431838361043a565b5b905092915050565b600082600052816020526040600020905092915050565b6000604051905090565b600080fd5b600080fd5b600073ffffffffffffffffffffffffffffffffffffffff82169050919050565b600061049082610465565b9050919050565b6104a081610485565b81146104ab57600080fd5b50565b6000813590506104bd81610497565b92915050565b6000819050919050565b6104d6816104c3565b81146104e157600080fd5b50565b6000813590506104f3816104cd565b92915050565b600080fd5b600080fd5b6000601f19601f8301169050919050565b7f4e487b7100000000000000000000000000000000000000000000000000000000600052604160045260246000fd5b61054c82610503565b810181811067ffffffffffffffff8211171561056b5761056a610514565b5b80604052505050565b600061057e610451565b905061058a8282610543565b919050565b600067ffffffffffffffff8211156105aa576105a9610514565b5b6105b382610503565b9050602081019050919050565b82818337600083830152505050565b60006105e26105dd8461058f565b610574565b9050828152602081018484840111156105fe576105fd6104fe565b5b6106098482856105c0565b509392505050565b600082601f830112610626576106256104f9565b5b81356106368482602086016105cf565b91505092915050565b600080600080608085870312156106595761065861045b565b5b6000610667878288016104ae565b9450506020610678878288016104ae565b9350506040610689878288016104e4565b925050606085013567ffffffffffffffff8111156106aa576106a9610460565b5b6106b687828801610611565b91505092959194509250565b60007fffffffff0000000000000000000000000000000000000000000000000000000082169050919050565b6106f7816106c2565b82525050565b600060208201905061071260008301846106ee565b92915050565b6000819050919050565b61072b81610718565b82525050565b60006020820190506107466000830184610722565b92915050565b600080fd5b600080fd5b60008083601f84011261076c5761076b6104f9565b5b8235905067ffffffffffffffff8111156107895761078861074c565b5b6020830191508360208202830111156107a5576107a4610751565b5b9250929050565b600080600080606085870312156107c6576107c561045b565b5b60006107d4878288016104ae565b94505060206107e5878288016104e4565b935050604085013567ffffffffffffffff81111561080657610805610460565b5b61081287828801610756565b925092505092959194509250565b6000602082840312156108365761083561045b565b5b6000610844848285016104e4565b91505092915050565b610856816104c3565b82525050565b6000602082019050610871600083018461084d565b92915050565b61088081610485565b82525050565b600060208201905061089b6000830184610877565b92915050565b600082825260208201905092915050565b7f4d65726b6c654469737472696275746f723a20546f6b656e20616c726561647960008201527f20636c61696d6564000000000000000000000000000000000000000000000000602082015250565b600061090e6028836108a1565b9150610919826108b2565b604082019050919050565b6000602082019050818103600083015261093d81610901565b9050919050565b60008160601b9050919050565b600061095c82610944565b9050919050565b600061096e82610951565b9050919050565b61098661098182610485565b610963565b82525050565b6000819050919050565b6109a76109a2826104c3565b61098c565b82525050565b60006109b98285610975565b6014820191506109c98284610996565b6020820191508190509392505050565b7f496e76616c69642070726f6f6600000000000000000000000000000000000000600082015250565b6000610a0f600d836108a1565b9150610a1a826109d9565b602082019050919050565b60006020820190508181036000830152610a3e81610a02565b9050919050565b6000606082019050610a5a6000830186610877565b610a676020830185610877565b610a74604083018461084d565b949350505050565b600081549050919050565b600082825260208201905092915050565b60008190508160005260206000209050919050565b610ab6816104c3565b82525050565b6000610ac88383610aad565b60208301905092915050565b60008160001c9050919050565b6000819050919050565b6000610afe610af983610ad4565b610ae1565b9050919050565b6000610b118254610aeb565b9050919050565b6000600182019050919050565b6000610b3082610a7c565b610b3a8185610a87565b9350610b4583610a98565b8060005b83811015610b7d57610b5a82610b05565b610b648882610abc565b9750610b6f83610b18565b925050600181019050610b49565b5085935050505092915050565b60006020820190508181036000830152610ba48184610b25565b905092915050565b7f4e487b7100000000000000000000000000000000000000000000000000000000600052603260045260246000fd5b7f4e487b7100000000000000000000000000000000000000000000000000000000600052601160045260246000fd5b6000610c15826104c3565b91507fffffffffffffffffffffffffffffffffffffffffffffffffffffffffffffffff8203610c4757610c46610bdb565b5b60018201905091905056fea264697066735822122024547ff12f1e09626cbabb41d83183bbb6415c53a65320177c18e43f0a53b97d64736f6c63430008130033",
  "linkReferences": {},
  "deployedLinkReferences": {}
}